S01200004F50414D505F414443312E737265633D
S113000068220020051800000118000001180000F3
S113001000000000000000000000000000000000DC
S113002000000000000000000000000001180000B3
S1130030000000000000000001180000011800008A
S11300400118000001180000011800000118000048
S11300500118000001180000011800000118000038
S1130060990B0000A90B0000B90B0000C90B00009C
S1130070D90B0000E90B0000011800000118000072
S11300800118000001180000011800000118000008
S11300900118000001180000BD1000000118000044
S11300A001180000011800000118000001180000E8
S11300B00000000010B5064C2378002B07D1054B37
S11300C0002B02D0044800E000BF0123237010BDC0
S11300D06800002000000000B02F0000084B10B59D
S11300E0002B03D00749084800E000BF0748036815
S11300F0002B00D110BD064B002BFBD09847F9E72D
S1130100000000006C000020B02F0000B02F0000A1
S11301100000000010B5490840230024814201D2A8
S11301200AE01C00091A631C9BB28842F9D94023D7
S1130130FF2C01D814800023180010BDF0B55F46D1
S113014056464D464446F0B489B00C00059212AAB6
S1130150117802004A434025A24200D9C6E0002B90
S113016051D1020008000021644DA84783462600AF
S113017000270023002400930194002200233F2041
S113018020218C461F3902960397202464420419C7
S113019003D40D00A540A84604E06446241A0D00CB
S11301A0E540A8460C008440A14614001D00A41894
S11301B05D4122002B0046465F463E4203D00E00BE
S11301C0264332002B00029C039D9D420FD801D18F
S11301D094420CD8029C039D121BAB414D46009ED9
S11301E0019F35433C004646344300950194013851
S11301F0CBD20022012300980199121A8B41120CD0
S11302001B041A436FE00022012B6CD1630F04938B
S1130210E30098460A0000230021384CA04704005C
S11302200D0000239C46069320339B46012663461B
S1130230079300230293002200233F210094019599
S11302400F0020214942791803D4300088408446A5
S113025004E05946C91B3000C84084463100B94007
S11302608946100019008018594102000B004446C9
S11302704D462C40A2466446049D2C40A446544658
S113028065462C4303D03400044322000B0000983D
S1130290019999420AD801D1904207D8009801994E
S11302A0121A8B410299484601430291013FC8D278
S11302B0009C019D0299079A8B1ADB0810498B4216
S11302C00BD9069B0133DBB21900069313000133EB
S11302D007930829ADD1402508E04025069A082A4D
S11302E004D052031A43059B1A800025280009B044
S11302F03CBC90469946A246AB46F0BDE51C0000C6
S1130300FF1F000010B582B004000E4B1B78002BB9
S113031001D000290DD001A90C7011200A4B984777
S113032011200A4B9847074B5C7001221A70002079
S113033006E0044B5B78834201D01D2000E00020DE
S113034002B010BD84000020A51600003516000080
S1130350444B984234D007D88423DB0598420DD00F
S1130360414B98421BD06FE0404B98424AD0404BDF
S1130370984258D03F4B984266D132E0012906D0CA
S1130380002963D0022906D0032906D001E03A48A7
S113039067E0002065E0394863E0394861E00129FD
S11303A006D0002954D0022906D0032906D001E042
S11303B0344856E0002054E0334852E0334850E0DB
S11303C0012906D0002945D0022906D0032906D0E8
S11303D001E02F4845E0002043E02E4841E02E484C
S11303E03FE0012906D0002936D0022906D003298E
S11303F006D001E0294834E0002032E0284830E00B
S113040028482EE0012906D0002927D0022906D049
S1130410032906D001E0244823E0002021E02348FA
S11304201FE023481DE0012906D0002918D0022925
S113043006D0032906D001E01E4812E0002010E097
S11304401D480EE01D480CE000200AE01C4808E0AE
S1130450032006E01B4804E01B4802E01B4800E0C0
S11304601B4870470008004200040042001000428C
S113047000040043000C00420300050003000600D2
S1130480030007000300010003001E0003001F0017
S11304900300090003000A0003000B00030011001D
S11304A0030012000300130003000D0003000E00FC
S11304B003000F00030017000300180003001900D5
S11304C003000400030008000300100003000C00F4
S11304D00300160030B587B00C4B6A4632CB32C2EB
S11304E032CB32C2009B834206D001239A00694674
S11304F05258824203D100E00023D8B203E0013312
S1130500062BF3D1002007B030BDC046742D000087
S1130510F0B5474680B40C00904600280DD1002A5F
S11305200EDD8F18084E094D306821002B6898475E
S11305300134A742F8D1404603E00120404200E0E4
S1130540002004BC9046F0BDE0000020D80000204C
S1130550F0B5474680B40E0015000138022811D8C2
S1130560002A12D000240C4B98460C4F43461868BE
S1130570315D3B689847002809DB0134A542F5D179
S1130580200006E00120404203E0002001E00120B9
S1130590404204BC9046F0BDE0000020DC00002096
S11305A0F0B55F4656464D464446F0B491B005005A
S11305B00C00160029600800C44B9847021E052A47
S11305C003D007001237030001E018270123216834
S11305D00520C90700D571E121681730890700D5C6
S11305E06CE1052A07D1BA48026A012199400B003F
S11305F01343036206E0B648C269012199400B0027
S11306001343C3610FA92D239846F35C0B70FFB20B
S11306103800B04B98473800AF4B98474346F05CDE
S11306200021AE4B9847F37A6B712423F35CAB71D2
S11306302523F35CEB71F37E2B72337F6B722B6893
S113064099461800A14B9847123000220E2306A9A0
S11306508C4663441A80328A02928023DB019A42D8
S11306601AD004D880239B019A420BD007E1C023FF
S1130670DB01029A9A420AD080231B029A4200D1DB
S113068002E1FCE0102306930F3B079300E10823EB
S11306900693073B0793FBE033680493F3689B4698
S11306A073690393337E98462623F35C059373683A
S11306B09A46002B16D080235B059A4539D127230F
S11306C0F35C002B39D1336A1F00C0B2844B9847C6
S11306D001000E2206AB9C4662443800814B9847C9
S11306E0030027E008230693002307932723F35CE2
S11306F0002B0CD0069B0093079B0E2206A98C4668
S11307006244B16A306A784FB847030012E0336A32
S11307101F00C0B2724B98470100069B0093079BD1
S11307200E2206A88446624438006F4FB84703007F
S113073000E00023181E00D0C0E0737E002B02D01E
S1130740B37E4A4693732A68029FD369002BFCD177
S11307500E3306AA944663441B884A469381049B3D
S11307605A461343039A1343524613433B434246A8
S113077012021343059A57071F432723F35C002BE8
S113078001D104331F43717E8902337F5B02194315
S1130790737F1B0219432423F35C5B041943252351
S11307A0F25C12041143F37A19433389FF2B04D00A
S11307B0802252041743194305E0F37E002B02D034
S11307C08023DB041F432C23F35C002B03D1474B12
S11307D09B789B0701D580231F432A68D369002B8C
S11307E0FCD14B4659602A68D369002BFCD14B4697
S11307F01F600EAB80221A7000225A70DA709A7051
S1130800336B0A93736B0B93B36B0C93F36B02937D
S11308100D9300270EAEF9B2BB000AAA985800281F
S113082002D12000324B9847431C05D03070000C95
S1130830C0B231002F4B98470137042FEBD100236E
S1130840EB602B616B61AB61EB612B62AB626B6242
S11308500022EB85AB853033EA540133EA5401338B
S1130860EA540133EA542868184B98470400224993
S1130870224B9847A400224BE55000201EE0102391
S113088006930023079303E00323069300230793AF
S113089033680493F3689B4673690393337E9846E5
S11308A02623F35C059373689A46002B00D11DE759
S11308B080235B059A4500D101E73EE711B03CBCBB
S11308C090469946A246AB46F0BDC046D50400000A
S11308D000040040A51600003516000005030000C2
S11308E0C9160000150100003D0100000020004170
S11308F051030000A1170000A1090000310B000002
S1130900E4000020C2791C23002A0ED0C28D92B2CA
S1130910173B002A09D10368DA69002AFCD119853A
S113092002211A7E0A42FCD0002318007047C046F8
S113093082791C23002A30D0828D92B2173B002A80
S11309402BD10268107E400727D5D369002BFCD138
S1130950538BDBB298061DD0980703D5022353832B
S113096018331AE0580703D5042353831A3314E0C9
S1130970D80703D50123538312330EE0D80603D5D9
S113098010235383323308E09B0603D5202353837B
S1130990213302E0138D0B80002318007047C046FA
S11309A0F8B58000604BC5582C68E369002BFCD176
S11309B0237EA67D1E403023EB5C3122AF5C1F40BA
S11309C0F30722D5EB8D9BB2002B1CD0AA6A1378B7
S11309D0DBB2511CA9626979012901D09BB204E000
S11309E0517809020B430232AA62DB05DB0D238531
S11309F0EB8D013B9BB2EB85002B06D101332375B4
S1130A000133A37501E001232375B30709D502233C
S1130A10237500223133EA54FB0702D52800EB6822
S1130A209847730760D5AB8D9BB2002B5AD0638B6C
S1130A30DBB21A0702D43F22134001E037221340ED
S1130A40002B2DD09A0705D51A223223EA54303BC5
S1130A5063831FE05A0705D51E223223EA542E3B36
S1130A60638317E0DA0705D513223223EA54313BB6
S1130A7063830FE0DA0605D542223223EA54223B8F
S1130A80638307E020221A4204D021323223EA543D
S1130A90123B63837B0727D528006B69984723E0C3
S1130AA0238DDB05DB0DDAB2696A0A706A6A511CB0
S1130AB069626979012904D11B0A53706B6A013395
S1130AC06B62AB8D013B9BB2AB85002B0CD1043325
S1130AD0237500222E33EA54BB0705D528002B6961
S1130AE0984701E004232375F30607D510232375E3
S1130AF02376FB0602D52800EB699847B30607D591
S1130B002023237523763B0702D52800AB69984739
S1130B10330707D5082323752376BB0602D52B6A32
S1130B2028009847F8BDC046E40000207047C0463E
S1130B30F0B50A4B1B78002B0CD1094F094E0A4D16
S1130B400024DE515A1914600433182BF9D1012200
S1130B50024B1A708000024BC150F0BD8600002089
S1130B60880000202D0B0000E400002010B582B0A6
S1130B700400062205496846054B98472000054BAA
S1130B8098476B46185602B010BDC0468C2D000025
S1130B90891D0000D504000010B5024B1B6800201D
S1130BA0984710BD8800002010B5024B5B680120F7
S1130BB0984710BD8800002010B5024B9B680220A6
S1130BC0984710BD8800002010B5024BDB68032055
S1130BD0984710BD8800002010B5024B1B69042003
S1130BE0984710BD8800002010B5024B5B690520B2
S1130BF0984710BD880000200C4B1B68002B10D1B7
S1130C00EFF31083002B09D172B6BFF35F8F00227C
S1130C10074B1A700132074B1A7002E00022054B91
S1130C201A70024A1368013313607047A000002051
S1130C3000000020A4000020084B1A68013A1A6042
S1130C401B68002B09D1064B1B78002B05D0012211
S1130C50044B1A70BFF35F8F62B67047A000002088
S1130C60A400002000000020F0B583B001AC0125F1
S1130C7065700027A770257021002A20064EB04712
S1130C808022D200054B9A612770657021000220F2
S1130C90B04703B0F0BDC0460113000080280040F7
S1130CA00020704710B50023002203704370837046
S1130CB0C370002103830362C36101240471C0244F
S1130CC06401C480017242728272C27202732A2465
S1130CD0025542738273C27303610275063C025566
S1130CE0C3840385417510BDF0B54F4680B49AB0F6
S1130CF005000C0016000800A94B98472C60A94A6F
S1130D00116A08230B43136222780523D20700D506
S1130D10C9E12A68138C9BB2002BFBD122781C33C7
S1130D20920700D5BFE173782B71002B04D19E4A42
S1130D30D16904330B43D3610023AB60EB602B61B7
S1130D40AB76EB762B832B778000984BC5502A2308
S1130D50F35C002B05D1337B002B02D101336B777D
S1130D6001E000236B772F6833786A461370694675
S1130D701E208F4B98471E208E4B98473479602253
S1130D808D4902A88D4B9847132C0CD8A40002ABB4
S1130D90E05801A900234B70CB708B7001330B70AA
S1130DA0C0B2874B9847F4886022834902A8834BDA
S1130DB09847132C0CD8A40002ABE05801A90023D7
S1130DC04B70CB708B7001330B70C0B27C4B984767
S1130DD000247A4B99460123A34032691A4212D067
S1130DE06022754902A8C847132C0CD8A30002AA94
S1130DF0985801A900234B70CB708B7001330B7092
S1130E00C0B26F4B98470134142CE4D1737B9A0120
S1130E10B37BDB011343DBB23B70337DDB017278C0
S1130E201343DBB2BB70F378342B00D93AE19B0057
S1130E30644AD3589F460420102102221AE0727A91
S1130E40307A102116E006201021012212E0082039
S1130E50102100220EE00020302100220AE00020B0
S1130E602021002206E000200021002202E00220CE
S1130E701021012212017023134003433B732A689B
S1130E80138C9BB2002BFBD1727D17333F2A00D900
S1130E9009E1F37BDB011A43D2B27A732A68138C1B
S1130EA09BB2002BFBD1B3787B702423F25CD2007D
S1130EB0337B9B001343F27A1A43B37A5B001343E8
S1130EC00B437B812A68138C9BB2002BFBD1328BA2
S1130ED0002A00D198E010297AD002D800293ED007
S1130EE092E020291AD0302900D08DE0F37A002B2B
S1130EF00AD0F16980311723FF2900D9D3E0316A80
S1130F008031FF2900D9CEE01723F169FF2900DDE4
S1130F10C9E0316AFF2900DDC5E075E0F37A002BF2
S1130F2012D0F3698020800084466344190017239B
S1130F302548814200D9B6E0336A63441900172377
S1130F402148814200D9AEE017231F49F069884245
S1130F5000DDA8E0306A884200DDA4E054E0F37AC2
S1130F60002B12D0F36980200001844663441900E9
S1130F7017231648814200D995E0336A6344190067
S1130F8017231248814200D98DE017230F49F069D5
S1130F90884200DD87E0306A884200DD83E033E088
S1130FA0A10C00000004004000140040FC000020DC
S1130FB0A516000035160000682E0000891D0000EB
S1130FC0A1170000942D0000FF030000FF0F000094
S1130FD0F37A002B10D0F369802000028446634426
S1130FE019001723324881425DD8336A63441900DB
S1130FF017232F48814256D817232D49F069884278
S113100051DC306A88424EDC7B891A437A812A6833
S1131010138C9BB2002BFBD1B38BFB812A68138CFE
S11310209BB2002BFBD1338C3B822A68138C9BB27E
S1131030002BFBD13279F38813433B812A68138C4C
S11310409BB2002BFBD12A33F35CFB7007233B716B
S11310501D33F35C002B19D0F28C172315498A42F7
S113106021D87A822A68138C9BB2002BFBD1318D54
S113107080231B01CA1892B217230E48824212D849
S1131080B9822A68138C9BB2002BFBD10A4B1B68D4
S11310901902E022D2000A409B065B0F1343BB8572
S11310A0002300E0172318001AB004BC9146F0BDD9
S11310B0FFFF0000FF0F00002060800070B52D4B83
S11310C01C6823689D79EDB2EA0735D5E27ED20724
S11310D032D5A27ED2072FD501229A716269931C60
S11310E0636123689B8C9BB21380238B013B9BB26F
S11310F02383002B15D0637F002B1DD02268D37966
S11311005BB2002B18DB138C9BB2002BFBD1117E3E
S113111002330B4313762268138C9BB2002BFBD152
S11311200AE0237F052B07D10023237701332268AC
S113113013712000A36898476B070BD5042322681A
S11311409371E37E9B0705D5A37E9B0702D5200000
S1131150E3689847AB070BD5022322689371E37EBB
S11311605B0705D5A37E5B0702D52369200098475A
S113117070BDC046FC000020931C9B001950012345
S11311809340827E134383767047C04610B50400B3
S1131190038B9BB20520002B1DD1237FD8B20528D9
S11311A019D00523237722836161043B226853719C
S11311B0637F0020002B0ED02268138C9BB2002B7F
S11311C0FBD1117E02330B4313762268138C9BB23E
S11311D0002BFBD1002010BD00B583B001A8002373
S11311E00370094B9847094A116A40230B43136261
S11311F0074B197801220A431A70197802220A430C
S11312001A7003B000BDC046B913000000040040CA
S1131210001800438023DB014381002303734373DD
S11312208373C373037443748374802292030260D0
S11312304360C0235B0103817047C046037B5A1E91
S113124093419B02427B002A02D0802292001343E6
S1131250827B002A02D0802252001343C27B002AE0
S113126001D080221343027C002A01D04022134380
S1131270827C002A01D0042213430168426811438E
S113128042890A43417C0A4301890A431343014AC0
S1131290D360704700180043002805D10A4A5168FA
S11312A002230B4353600EE0012805D1064A9168DE
S11312B002230B43936006E0022804D1024AD1685A
S11312C002230B43D360704700180043031E05D16B
S11312D00A4B9878C007C00FC0B20DE0012804D1B2
S11312E0064B98788007C00F06E00020022B03D13C
S11312F0024B98784007C00F7047C046001800435F
S113130000B583B001AB80221A700A785A704A780B
S11313109A708A78DA701900014B984703B000BDBF
S1131320A117000010B5082803D880001C4B1B58D7
S11313309F46002032E01B4B18692FE01A4B187DA2
S11313400007800F0130194B584327E0154B5869AB
S113135024E0144B1B68022018401FD0124980223D
S11313605200CB681342FCD00E4B1B685B0714D5AC
S113137000200F4B98470B4B9B681B041B0C5843D6
S11313800CE02823084AD35C00209B0706D5054BB4
S1131390D86803E08020000200E0064810BDC04683
S11313A0C82E0000A8000020000C004000093D00E9
S11313B0C9160000006CDC0210B50549CC6902783E
S11313C001231A40D203034B23401343CB6110BDC6
S11313D000100040FF7FFFFF10B584B08022520050
S11313E02B4B9A60FD3A2B4B9A602B4A53681E2173
S11313F08B4353608023DB059B78022B09D0802329
S1131400DB0501229A7101329A701A009379002B3C
S1131410FCD01F4B1A7D802149420A431A751A7D5C
S1131420C0318A431A751D4B98471D4C0123A37183
S113143063712371227804218A43227001A94B60CD
S113144000234B7006220A700B724B720020154B5E
S113145098470020144B98470020144B9847217953
S1131460C9B2134B9847134B98420ED88023DB051F
S11314709B78002B09D08023DB0501229A7100227E
S11314809A701A009379002BFCD004B010BDC046AA
S1131490000C00400014004000400041B91400005A
S11314A000040040DD14000089150000C915000087
S11314B0CD1B0000001BB700064A516940230B43B3
S11314C053610122044B1A7019000B781342FCD1AA
S11314D07047C046000400400018004070B5050085
S11314E00C784B78002B02D08023DB001C434B7A12
S11314F0002B02D080231B011C434A68012A17D900
S1131500531E1A420FD1022A06D9022300200130A9
S11315105B009A42FBD800E0002080235B011C435F
S11315200004044304E0120480239B001A43144380
S11315300B7A002B02D080239B011C430426AE406F
S11315400D490E4A4B6813401E42FBD10C4B984781
S1131550AD00094B9C466544286A80235B00184013
S1131560204328626146054A4B6813401E42FBD162
S1131570044B984770BDC04600180040FC070000AB
S1131580F90B0000390C000010B50400042282405D
S113159009480A4943680B401A42FBD1084B984753
S11315A0A400054B9C466444236A802252001343E2
S11315B02362044B984710BD00180040FC0700004C
S11315C0F90B0000390C0000F8B504000422824035
S11315D01248134943680B401A42FBD1114B9847F8
S11315E00E4F0834A400E059C006C00E0E4B9847B5
S11315F00600E559ED04ED0FE459240C0B4B984714
S1131600002D07D1012C07D921003000084B984741
S1131610060001E00134E6403000F8BD0018004047
S1131620FC070000F90B000025130000390C000032
S1131630CD1B000010B50400094B9847A000094BCE
S11316409C4660448022815840230B438350802170
S1131650403A43581A42FCD0034B984710BDC04649
S1131660F90B000000180040390C000010B504000C
S1131670094B9847A000094B9C466044802283583C
S113168040218B4383504031403A43581A42FCD1A5
S1131690034B984710BDC046F90B000000180040EA
S11316A0390C000070B504000D00054B98472B78E9
S11316B00F2213402034A400024AA35070BDC04638
S11316C06D1600000018004010B50400064B984742
S11316D02034A400054BE4582407240F044B9847F6
S11316E02000044B984710BDF90B0000001800407F
S11316F0390C0000C915000030B5D378002B1ED179
S11317001378802B04D01B0680246402234300E05A
S1131710002354780225AC430AD19478002C03D1D9
S11317208024A402234302E0C024E4022343416052
S11317305478013C012C12D8184C23400FE041602E
S11317400B041B0CA024E405234383620B0CD0245C
S1131750240623438362D378002B18D01CE00C04A6
S1131760240CA025ED052C431C4384620C0CD025CD
S11317702D062C431C438462D478002C0CD15B03CB
S113178005D59378012B01D1816100E04161537843
S1131790013B012B00D8816030BDC046FFFFFBFF39
S11317A010B503000A00C1090020002904D158091A
S11317B0C00105498C4660441F210B401E399940E5
S11317C0024B984710BDC04600280040F91600009F
S11317D07047C04610B5054B9847054B9847054BD5
S11317E09847054B9847054B984710BDD9130000FF
S11317F0690C0000D1170000D1170000D1170000B8
S1131800FEE7C04610B51D4B1D4A9A4203D01D4B3E
S11318101A4A9A4204D31C4B1C4A9A4210D31EE023
S11318201B4A184B03339B1A9B0801339B0000226D
S1131830124813498C58845004329A42FAD1EAE788
S1131840144A114B03339B1A9B0801339B0000225B
S11318500E4800211418216004329A42FAD10E4A2B
S1131860FF210E4B8B4393600D4A516880230B4339
S113187053600C4B98470C4B9847FEE70000002040
S1131880B02F0000680000206402002068000020DF
S1131890040000206C00002000ED00E000000000C7
S11318A0004000413D1D0000351A00000300064AB7
S11318B01268002A02D10549034A1160024A1068DD
S11318C0C31813607047C046C0000020682200207F
S11318D0012040427047C04680239B014B6000209A
S11318E07047C04601207047002070470122014B19
S11318F01A707047C400002070B582B005000E0055
S113190000226B46DA80064C6B46991D2800A047DE
S11319100028F9D16B4606331B88337002B070BDC2
S11319203109000070B505008CB2034E2100280077
S1131930B0470028FAD170BD0509000010B586B083
S1131940144B984701AC2000134B984780235B034A
S1131950019300226260C0235B01238180239B01E9
S1131960638101232373A373A37469464A708B7044
S1131970CA700B700520094B98472000084B984704
S11319800220084B9847084C0220A0470028FBD0AF
S113199006B010BDD911000015120000A1170000F7
S11319A03D12000099120000CD12000030B58DB038
S11319B001AC2000114B98470223A3701D332371FF
S11319C00F4D22000F4928000F4B98472A68138CAB
S11319D09BB2002BFBD18021C9030C4B1960072358
S11319E0137193711178053B0B431370044B1A6800
S11319F0138C9BB2002BFBD10DB030BDA50C0000A5
S1131A0034020020000C0043E90C000000E100E077
S1131A1010B5054C002205492000054B9847E27E8D
S1131A2001231343E37610BD34020020ED180000B7
S1131A3079110000F0B557464646C0B491B0484B02
S1131A4098478023DB05009300230193FF22694616
S1131A500A8100228B72CB720124242168464454EB
S1131A600131445401314354013143540A93053143
S1131A7043540131435405930382C37602760277BB
S1131A80427613238376427796231B020893C4235A
S1131A909B03039301235B420C930D93314B0E93F1
S1131AA0314B0F93314D324B1D60324A324B1A6029
S1131AB0324A334B1A606A4632492800324B9847FF
S1131AC0324F3B6898680021314EB0473B685868F4
S1131AD00021B0472E6830002E4B98471F23184032
S1131AE084402D4B1C602B68DA69002AFCD13268D3
S1131AF0022313433360294B9847294B9847294BBA
S1131B0098470122284B1A70BFF35F8F62B6274BA8
S1131B109846802226492748C047274B1B78002B2C
S1131B20F7D0254B9A460026244F254D8024534652
S1131B301E7039681E4B5A1CFF3218884118C80F92
S1131B404118491002339342F7D11C4B19602C60A1
S1131B501C481D4B9847184B1B78002BE7D1D8E73E
S1131B60D51700000200120002001300000100203B
S1131B70E000002025190000DC000020F918000016
S1131B80D800002000040042A105000064000020E9
S1131B90E11D00006D0B000000E100E03D190000B4
S1131BA0AD190000111A0000000000208D11000082
S1131BB03401002034020020C4000020CC000020A6
S1131BC0C8000020EC2E0000AD1D000000224308D8
S1131BD08B4274D303098B425FD3030A8B4244D3F1
S1131BE0030B8B4228D3030C8B420DD3FF22090233
S1131BF012BA030C8B4202D31212090265D0030BF2
S1131C008B4219D300E0090AC30B8B4201D3CB03E7
S1131C10C01A5241830B8B4201D38B03C01A524129
S1131C20430B8B4201D34B03C01A5241030B8B422B
S1131C3001D30B03C01A5241C30A8B4201D3CB0216
S1131C40C01A5241830A8B4201D38B02C01A5241FB
S1131C50430A8B4201D34B02C01A5241030A8B42FE
S1131C6001D30B02C01A5241CDD2C3098B4201D316
S1131C70CB01C01A524183098B4201D38B01C01A94
S1131C80524143098B4201D34B01C01A524103090B
S1131C908B4201D30B01C01A5241C3088B4201D3BA
S1131CA0CB00C01A524183088B4201D38B00C01A67
S1131CB0524143088B4201D34B00C01A5241411A8E
S1131CC000D20146524110467047FFE701B500209B
S1131CD000F006F802BDC0460029F7D076E7704749
S1131CE07047C046F0B54F464646C0B41604360C9D
S1131CF09946330005042C0C070C150C63437E43F2
S1131D006F4365431C0CAD1964199C46A64203D964
S1131D1080235B02984647446346250CEF191D0453
S1131D204B464A4343432D0C240464199918C9199A
S1131D3020000CBC90469946F0BDC0460E4B70B5D1
S1131D4000251E000D4CE41AA410A54204D0AB00DB
S1131D50F35898470135F8E701F01AF9084B0025C4
S1131D601E00084CE41AA410A54204D0AB00F3589A
S1131D7098470135F8E770BD9C2F00009C2F0000A8
S1131D809C2F0000A02F0000002310B59A4203D01E
S1131D90CC5CC4540133F9E710BD030082189342AC
S1131DA002D019700133FAE7704700000FB40B4BEF
S1131DB013B51C68002C05D0A369002B02D12000A8
S1131DC000F0BCF905AB049AA1682000019300F06F
S1131DD07BFB16BC08BC04B01847C0466400002056
S1131DE04A424A41802310B55200DB0000F002F859
S1131DF010BD0000F0B51D00514B85B01E680400F5
S1131E000F000092002E05D0B369002B02D13000E0
S1131E1000F094F94B4B9C4201D1746808E04A4BA2
S1131E209C4201D1B46803E0484B9C4200D1F46861
S1131E30009B022B05D0012B00D97CE0002D00DA99
S1131E4079E02100300000F00BF9616B002908D023
S1131E5023004433994202D0300000F071FA002389
S1131E6063630023A3616360A3891B0603D521690F
S1131E70300000F065FAA289354B1340A381009B22
S1131E80022B21D003AB02AA2100300000F0EAF9B2
S1131E90A3891843A081002D01D1029D01E0002FE8
S1131EA025D1280000F042FA0195071E1AD1029BA1
S1131EB00193AB4202D10120404206E0019800F0B8
S1131EC035FA071E0ED1F6E700200222A389134338
S1131ED0A3810023A36023004733236023610123EC
S1131EE063612AE08022A389019D1343A381B3691E
S1131EF0002B02D1300000F021F9009B012B03D10B
S1131F00A389009A1A43A2810823A2892760134057
S1131F1027616561181E0CD001231A400023101E8E
S1131F20984204D06D42A360A561180005E0A56045
S1131F3003E0A36001E00120404205B0F0BDC046CB
S1131F4064000020FC2E00001C2F00003C2F000029
S1131F505CF3FFFFF7B58A8905000C0013075AD418
S1131F604B68002B02DC0B6C002B19DDE76A002F99
S1131F7016D000232E682B6080235B011A4001D009
S1131F80606D14E00123216A2800B847431C0ED178
S1131F902B68002B0BD01D2B01D0162B02D12E60E9
S1131FA000205AE04022A3891343A38155E0A3896A
S1131FB05B0706D56368C01A636B002B01D0236CE2
S1131FC0C01A00230200216A2800E76AB847A389DF
S1131FD0421C06D129681D293AD8204ACA40D20792
S1131FE036D50022626022692260DB0405D5431CD9
S1131FF002D12B68002B00D16065616B2E60002933
S1132000CED023004433994202D0280000F098F93E
S11320100020606321E00F69002FC1D00B680F60BE
S1132020DB1B01930023920700D14B69A36003E0FB
S1132030019B3F181B1A0193019B002BB0DD019BF0
S11320403A00216A2800A66AB0470028F0DCA38978
S1132050402201201343A3814042FEBD01004020E1
S11320600B6970B505000C00002B01D100201CE0A9
S1132070002804D08369002B01D100F05FF80B4BDA
S11320809C4201D16C6808E0094B9C4201D1AC68C8
S113209003E0084B9C4200D1EC680C22A35E002BA9
S11320A0E4D021002800FFF755FF70BDFC2E00008E
S11320B01C2F00003C2F000010B5024900F0B0F8BE
S11320C010BDC04661200000002310B50400036069
S11320D04360836081814366C2810361436183619C
S11320E0190008225C30FFF758FE054B2462636236
S11320F0044BA362044BE362044B236310BDC0464C
S1132100452A00006D2A0000A52A0000D12A0000FB
S113211070B568254B1E5D430E002900743100F034
S113212055F9041E08D000212A00016046600C30D5
S1132130A0606832FFF731FE200070BD836913B5DB
S11321400400002B28D18364C3640365134B144A31
S11321501B6882620193984201D1012383612000AC
S113216000F020F86060200000F01CF8A06020005F
S113217000F018F80022E06004216068FFF7A4FF73
S113218001220921A068FFF79FFF02221221E068C3
S1132190FFF79AFF0123A36113BDC046F82E000088
S11321A0B9200000F8B51D4B06001D68AB69002B73
S11321B002D12800FFF7C2FF4835AC686B68013BC9
S11321C005D40C22A75E002F10D06834F7E72B68E3
S11321D0002B01D02D68F0E704213000FFF798FFB1
S11321E028600028F6D10C23336016E00123200078
S11321F05B42E3810233A38167662760A76067605F
S113220027616761A7615C3008223900FFF7C5FDCB
S113221020006763A763A764E764F8BDF82E000095
S1132220F7B504000700002601914834002C16D0AD
S11322306368A5680093009B013B00930DD4AB89B0
S1132240012B08D90E22AB5E013304D029003800DB
S1132250019B984706436835EDE72468E6E73000BC
S1132260FEBD000070B50E001D000E23C95E90B0C7
S11322701400002906DA00232B60B3891B060FD54E
S113228040230FE001AA00F01DFD0028F3DBF0233A
S1132290029A1B021340054A9B185A4253412B6071
S11322A08023DB000020236010B070BD00E0FFFF3E
S11322B0F7B502268B8905000C00334210D101AB1F
S11322C06A46FFF7CFFF00990700280000F07EF868
S11322D000280CD10C22A35E9A0523D43343A38196
S11322E02300473323602361012363611AE08022C2
S11322F00D4BAB62A38920601343A381009B206133
S11323006361019B002B0AD00E23E15E280000F0DC
S1132310EBFC002803D00122A3891343A381A389E2
S11323201F43A781F7BDC046B920000010B5034B79
S11323300100186800F04AF810BDC046640000208F
S113234030B500293ED004390B68002B00DAC918D7
S11323501D4A13681400002B02D14B60116031E058
S11323608B420DD90A688818834203D118685B68C8
S113237082180A604B60216024E08A4203D813006B
S11323805A68002AF9D11D685C198C420BD109687E
S1132390691858181960824214D11068526841189B
S11323A019605A600EE08C4202D90C23036009E0E4
S11323B008680C18A24203D11468526820180860F7
S11323C04A60596030BDC046D4000020032370B574
S11323D0CD1C9D43083506000C2D01D20C2505E0CB
S11323E0002D03DA0C230020336040E0A942F9D821
S11323F01F4B1C681A002100002913D00B685B1BBB
S11324000DD40B2B02D90B60CC181EE08C4202D1E8
S1132410636813601AE04B6863600C0016E00C00FC
S11324204968E9E7134C2368002B03D1300000F01E
S1132430F7FA20602900300000F0F2FA431CD1D0F2
S11324400323C41C9C43A0420AD125602000072218
S11324500B30231D9043C31A09D05A42E25006E0C0
S1132460211A300000F0DCFA431CEED1BAE770BD4B
S1132470D4000020D0000020936810B5013B936085
S1132480002B05DA9469A34208DBCBB20A2B05D0F2
S11324901368581C10601970C8B201E000F01EFBEC
S11324A010BDF8B506000F001400D518AC4208D0D2
S11324B021783A003000FFF7DFFF0134431CF5D1E7
S11324C000E00020F8BD0000F0B59FB006000F004A
S11324D002920593002804D08369002B01D1FFF7F1
S11324E02DFE7F4B9F4201D1776808E07D4B9F42D0
S11324F001D1B76803E07C4B9F4200D1F768BB89E8
S11325001B070AD53B69002B07D0002306AD6B617E
S113251020336B761033AB763DE03900300000F0A9
S113252049FB0028F1D001204042D6E0059A111D54
S113253012680591002A00DA7FE0099201342378B9
S11325402E2B00D18DE021780322684800F0F2FBA5
S1132550002807D0654B2A68C01A402383401343E0
S11325602B6001342178631C06226148029329768A
S113257000F0E0FB002800D19DE05E4B002B00D072
S113258090E00722059B07339343083305936B6957
S1132590039A9B186B61029C2378002B04D1029B45
S11325A0E31A049312D003E0252BF8D00134F3E7A7
S11325B0049B029A39003000FFF773FF431C00D1DB
S11325C086E06A69049B944663446B612378002B1C
S11325D07ED00122002352426A6002A9543252186A
S11325E001342B60EB60AB601370AB65217805227E
S11325F0414800F09FFB002808D03F4B2A68C01ACE
S11326000123834013432B600134EFE72B68DA0680
S113261004D55322202102A8121811701A0704D5D8
S113262053222B2102A81218117022782A2A00D1D1
S11326307CE7099B00200A2105E05242EA6002225D
S113264013432B607AE72278303A092A04D84B43A3
S113265001349B180120F6E7002800D16FE70993A5
S11326606DE763782A2B0AD1059B02341A1D1B6877
S11326700592002B01DA01235B42079363E70023F1
S11326800A201A0001346B6021783039092904D8F2
S11326904243013452180123F6E7002B00D152E7DC
S11326A0079250E705AB00933A00144B2900300021
S11326B000E000BF07E005AB00933A000F4B290090
S11326C0300000F08BF80390039B013300D05EE7E9
S11326D0BB895B0600D526E70B981FB0F0BDC0464A
S11326E0FC2E00001C2F00003C2F0000622F000075
S11326F0662F0000000000005C2F0000A3240000EF
S1132700F7B5170001938A680B6900900C00934297
S113271000DA130022003B6043321278002A01D011
S113272001333B6023689B0602D53B6802333B6060
S1132730062523681D401ED0230043331B785A1EF0
S11327409341226892061CD53020E1184331087069
S113275021005A1C45310978A21843320233117002
S11327600FE022000123193201990098089EB04716
S1132770431C0ED00135E3683A689B1A9D42F0DB96
S1132780DAE72200019943320098089DA847431CC8
S113279002D10120404220E006232068E1683A6823
S11327A003400025042B03D18D1AEB43DB171D4096
S11327B0A3682269934201DD9B1AED180027BD42EC
S11327C00AD0220001231A3201990098089EB047CA
S11327D0431CDED00137F2E70020FEBDF0B58BB01C
S11327E006920A0043320793059004920A7E0C0075
S11327F0109B6E2A00D1ABE011D8632A22D009D8ED
S1132800002A00D1B5E0582A00D0C5E045310A704D
S1132810814A4FE0642A1DD0692A1BD0BCE0732A88
S113282000D1AAE009D86F2A29D0702A00D0B3E0D9
S1132830202209680A43226037E0752A1FD0782ACB
S113284033D0A9E00E001A684236111D19601368CE
S11328503370A4E021681A68080606D4490604D532
S1132860111D19600023D55E02E0111D1960156861
S1132870002D3BDA2D23049A6D42137036E0216853
S11328801A68080606D4490604D51568111D19608E
S1132890ADB202E0111D196015685F4B227E0393EF
S11328A008276F2A1DD00A271BE022007821453211
S11328B011705A4A19680392081D226818600D683D
S11328C0100602D4500600D5ADB2D30702D520239A
S11328D01A4322601027002D03D1202322689A4333
S11328E022602300002243331A7002E00A274A4B75
S11328F003936368A360002B09DB042221689143DE
S11329002160002D05D1049E002B11D07BE0002D09
S113291079D0049E28003900FFF7DEF9039B013EBD
S11329205B5C280033703900FFF750F9051EF1D1C4
S1132930082F09D12368DB0706D56368226993420F
S113294002DC3023013E3370049B9B1B23612BE08C
S113295009681A68080607D4490605D5111D1960C7
S11329601368A28A1A8004E0111D19601368626951
S11329701A600023049E236116E01A68111D196071
S1132980166800216268300000F0D4F9002801D0F4
S1132990801B6060636803E02600423632700123C6
S11329A023610023049A1370079B09AA0093210052
S11329B0069B0598FFF7A4FE431C02D10120404268
S11329C027E02369320006990598079DA847431C10
S11329D0F4D0236800259B070FD4099BE068984234
S11329E017DA180015E02200012319320699059818
S11329F0079EB047431CE1D00135E368099A9B1A4E
S1132A009D42F0DBE9E72600039B42361B783370D6
S1132A108EE70BB0F0BDC0466D2F00007E2F000086
S1132A20002370B5064C050008002360FEF73EFF46
S1132A30431C03D12368002B00D02B6070BDC0461B
S1132A406002002070B50C000E25495F00F07EF98D
S1132A50002803DB636D1B18636503E0A289024B46
S1132A601340A38170BDC046FFEFFFFFF8B51F0000
S1132A708B8905000C001600DB0505D50E23C95E05
S1132A800022022300F042F9A289054B28001340DA
S1132A90A38132000E23E15E3B0000F077F8F8BD1D
S1132AA0FFEFFFFF70B50C000E25495F00F02EF913
S1132AB0A389421C03D1054A1340A38104E0802268
S1132AC052011343A381606570BDC046FFEFFFFF51
S1132AD010B50E23C95E00F0E3F810BDF8B505008B
S1132AE00F001400002804D08369002B01D1FFF7E4
S1132AF025FB234B9C4201D16C6808E0214B9C428E
S1132B0001D1AC6803E0204B9C4200D1EC68A3697E
S1132B10A360A3891B070AD52369002B07D0236868
S1132B202269FEB2981A636998420FDB08E021001B
S1132B30280000F03FF80028F1D0012040421DE0B9
S1132B4021002800FFF78CFA0028F6D1A368013091
S1132B50013BA36023685A1C22601F70636998427A
S1132B6005D0A3893000DB0708D50A2E06D1210041
S1132B702800FFF775FA0028DFD13000F8BDC04601
S1132B80FC2E00001C2F00003C2F000070B5050037
S1132B90080011000022064C22601A00FDF7D8FC40
S1132BA0431C03D12368002B00D02B6070BDC046AA
S1132BB060020020364B70B51D6806000C00002D25
S1132BC005D0AB69002B02D12800FFF7B7FA314BCF
S1132BD09C4201D16C6808E02F4B9C4201D1AC6847
S1132BE003E02E4B9C4200D1EC680C22A35E9AB207
S1132BF0110723D4D10607D40922012032603732C9
S1132C001343A381404242E0530713D5616B00296B
S1132C1008D023004433994202D03000FFF790FBE0
S1132C20002363632422A3899343A3810023636065
S1132C30236923600822A3891343A3812369002BFA
S1132C400BD1A023A2899B001340802292009342BF
S1132C5003D021003000FFF72BFB0123A28913408E
S1132C6005D00023A36063695B42A36103E092077C
S1132C7000D46369A36000202369834207D10C2236
S1132C80A35E1A0603D540221343A381013870BD05
S1132C9064000020FC2E00001C2F00003C2F0000CC
S1132CA0002370B5064C050008002360FEF710FEF3
S1132CB0431C03D12368002B00D02B6070BDC04699
S1132CC060020020002370B5064C050008001100C6
S1132CD02360FEF701FE431C03D12368002B00D0C0
S1132CE02B6070BD60020020002370B5064C050007
S1132CF008002360FEF7F6FD431C03D12368002B74
S1132D0000D02B6070BDC0466002002070B5050085
S1132D10080011000022064C22601A00FEF7E4FDB0
S1132D20431C03D12368002B00D02B6070BDC04628
S1132D3060020020C9B28218904204D003788B420A
S1132D4002D00130F8E700207047000070B505009C
S1132D50080011000022064C22601A00FDF7D8FB7F
S1132D60431C03D12368002B00D02B6070BDC046E8
S1132D7060020020000000420004004200080042FB
S1132D80000C0042001000420004004308090A0B32
S1132D900C0D0000660E0000A4100000A41000003A
S1132DA0A4100000A4100000A4100000A41000004F
S1132DB0A4100000A4100000A4100000A41000003F
S1132DC0A4100000A4100000A4100000A41000002F
S1132DD0A41000004E0E0000A4100000A410000077
S1132DE0A4100000A4100000A4100000A41000000F
S1132DF0A4100000A4100000A4100000A4100000FF
S1132E00A4100000A4100000A4100000A4100000EE
S1132E10A41000005E0E0000A4100000A410000026
S1132E20A4100000A4100000A4100000A4100000CE
S1132E30A4100000A4100000A4100000A4100000BE
S1132E40A4100000A4100000A4100000A4100000AE
S1132E50A4100000560E00006E0E0000360E000096
S1132E60460E00003E0E00000200000003000000B9
S1132E7028000000290000000400000005000000F4
S1132E8006000000070000002000000021000000F0
S1132E9022000000230000002400000025000000A0
S1132EA026000000270000000800000009000000C0
S1132EB00A0000000B000000FFFF0000FFFF0000FD
S1132EC0FFFF0000FFFF0000361300003213000074
S1132ED03213000094130000941300004C130000FC
S1132EE03C130000521300008213000025640A0DF5
S1132EF00000000043000000040000200000000067
S1132F0000000000000000000000000000000000BD
S1132F1000000000000000000000000000000000AD
S1132F20000000000000000000000000000000009D
S1132F30000000000000000000000000000000008D
S1132F40000000000000000000000000000000007D
S1132F50000000000000000000000000232D302BC2
S1132F602000686C4C006566674546470030313286
S1132F7033343536373839414243444546003031DD
S1132F80323334353637383961626364656600003C
S1132F90F8B5C046F8BC08BC9E467047DD0000008A
S1132FA0F8B5C046F8BC08BC9E467047B5000000A2
S1132FB00100000000000000FC2E00001C2F000097
S1132FC03C2F000000000000000000000000000092
S1132FD000000000F42E00000000000000000000CB
S1132FE000000000000000000000000000000000DD
S1132FF000000000000000000000000000000000CD
S113300000000000000000000000000000000000BC
S10B3010000000000400002090
S9031805DF
