:10000000805F0020FD180000F9180000F9180000BA
:1000100000000000000000000000000000000000E0
:10002000000000000000000000000000C11A0000F5
:100030000000000000000000291B00006D1B0000F4
:10004000F9180000F9180000F9180000F91800006C
:10005000F9180000F9180000F9180000F91800005C
:10006000910C0000A10C0000B10C0000C10C0000BC
:10007000D10C0000E10C0000F9180000F918000094
:10008000F9180000F9180000F9180000F91800002C
:10009000F9180000F9180000B5110000F918000067
:1000A000F9180000F9180000F9180000F91800000C
:1000B0000000000010B5064C2378002B07D1054B3B
:1000C000002B02D0044800E000BF0123237010BDC4
:1000D0007C00002000000000CC400000084B10B560
:1000E000002B03D00749084800E000BF0748036819
:1000F000002B00D110BD064B002BFBD09847F9E731
:100100000000000080000020CC400000CC40000037
:100110000000000070B50020084B98470500084C0F
:10012000FA218900A047074B186007492800A0471B
:10013000064B18600522064B1A6070BDC116000000
:10014000113500000400002040420F000000002094
:1001500010E000E010B5490840230024814201D29C
:100160000AE01C00091A631C9BB28842F9D940239B
:10017000FF2C01D814800023180010BDF0B55F4695
:1001800056464D464446F0B489B00C00059212AA7A
:10019000117802004A434025A24200D9C6E0002B54
:1001A00051D1020008000021644DA8478346260073
:1001B00000270023002400930194002200233F2005
:1001C00020218C461F39029603972024644204198B
:1001D00003D40D00A540A84604E06446241A0D008F
:1001E000E540A8460C008440A14614001D00A41858
:1001F0005D4122002B0046465F463E4203D00E0082
:10020000264332002B00029C039D9D420FD801D152
:1002100094420CD8029C039D121BAB414D46009E9C
:10022000019F35433C004646344300950194013814
:10023000CBD20022012300980199121A8B41120C93
:100240001B041A436FE00022012B6CD1630F04934F
:10025000E30098460A0000230021384CA047040020
:100260000D0000239C46069320339B4601266346DF
:10027000079300230293002200233F21009401955D
:100280000F0020214942791803D430008840844669
:1002900004E05946C91B3000C84084463100B940CB
:1002A0008946100019008018594102000B0044468D
:1002B0004D462C40A2466446049D2C40A44654461C
:1002C00065462C4303D03400044322000B00009801
:1002D000019999420AD801D1904207D80098019912
:1002E000121A8B410299484601430291013FC8D23C
:1002F000009C019D0299079A8B1ADB0810498B42DA
:100300000BD9069B0133DBB21900069313000133AE
:1003100007930829ADD1402508E04025069A082A10
:1003200004D052031A43059B1A800025280009B007
:100330003CBC90469946A246AB46F0BD293600002B
:10034000FF1F000010B582B004000E4B1B78002B7D
:1003500001D000290DD001A90C7011200A4B98473B
:1003600011200A4B9847074B5C7001221A7000203D
:1003700006E0044B5B78834201D01D2000E00020A2
:1003800002B010BD980000209D1700002D1700003E
:10039000444B984234D007D88423DB0598420DD0D3
:1003A000414B98421BD06FE0404B98424AD0404BA3
:1003B000984258D03F4B984266D132E0012906D08E
:1003C000002963D0022906D0032906D001E03A486B
:1003D00067E0002065E0394863E0394861E00129C1
:1003E00006D0002954D0022906D0032906D001E006
:1003F000344856E0002054E0334852E0334850E09F
:10040000012906D0002945D0022906D0032906D0AB
:1004100001E02F4845E0002043E02E4841E02E480F
:100420003FE0012906D0002936D0022906D0032951
:1004300006D001E0294834E0002032E0284830E0CE
:1004400028482EE0012906D0002927D0022906D00D
:10045000032906D001E0244823E0002021E02348BE
:100460001FE023481DE0012906D0002918D00229E9
:1004700006D0032906D001E01E4812E0002010E05B
:100480001D480EE01D480CE000200AE01C4808E072
:10049000032006E01B4804E01B4802E01B4800E084
:1004A0001B48704700080042000400420010004250
:1004B00000040043000C0042030005000300060096
:1004C000030007000300010003001E0003001F00DB
:1004D0000300090003000A0003000B0003001100E1
:1004E000030012000300130003000D0003000E00C0
:1004F00003000F0003001700030018000300190099
:1005000003000400030008000300100003000C00B7
:100510000300160030B587B00C4B6A4632CB32C2AE
:1005200032CB32C2009B834206D001239A00694637
:100530005258824203D100E00023D8B203E00133D5
:10054000062BF3D1002007B030BDC046843E00002A
:10055000F0B5474680B40C00904600280DD1002A23
:100560000EDD8F18084E094D306821002B68984722
:100570000134A742F8D1404603E00120404200E0A8
:10058000002004BC9046F0BDD03C0020C83C0020B8
:10059000F0B5474680B40E0015000138022811D886
:1005A000002A12D000240C4B98460C4F4346186882
:1005B000315D3B689847002809DB0134A542F5D13D
:1005C000200006E00120404203E0002001E001207D
:1005D000404204BC9046F0BDD03C0020CC3C002002
:1005E000F0B55F4656464D464446F0B491B005001E
:1005F0000C00160029600800C44B9847021E052A0B
:1006000003D007001237030001E0182701232168F7
:100610000520C90700D571E121681730890700D589
:100620006CE1052A07D1BA48026A012199400B0002
:100630001343036206E0B648C269012199400B00EA
:100640001343C3610FA92D239846F35C0B70FFB2CF
:100650003800B04B98473800AF4B98474346F05CA2
:100660000021AE4B9847F37A6B712423F35CAB7196
:100670002523F35CEB71F37E2B72337F6B722B6857
:1006800099461800A14B9847123000220E2306A964
:100690008C4663441A80328A02928023DB019A429C
:1006A0001AD004D880239B019A420BD007E1C023C3
:1006B000DB01029A9A420AD080231B029A4200D19F
:1006C00002E1FCE0102306930F3B079300E10823AF
:1006D0000693073B0793FBE033680493F3689B465C
:1006E00073690393337E98462623F35C05937368FE
:1006F0009A46002B16D080235B059A4539D12723D3
:10070000F35C002B39D1336A1F00C0B2844B984789
:1007100001000E2206AB9C4662443800814B98478C
:10072000030027E008230693002307932723F35CA5
:10073000002B0CD0069B0093079B0E2206A98C462B
:100740006244B16A306A784FB847030012E0336AF6
:100750001F00C0B2724B98470100069B0093079B95
:100760000E2206A88446624438006F4FB847030043
:1007700000E00023181E00D0C0E0737E002B02D0E2
:10078000B37E4A4693732A68029FD369002BFCD13B
:100790000E3306AA944663441B884A469381049B01
:1007A0005A461343039A1343524613433B4342466C
:1007B00012021343059A57071F432723F35C002BAC
:1007C00001D104331F43717E8902337F5B021943D9
:1007D000737F1B0219432423F35C5B041943252315
:1007E000F25C12041143F37A19433389FF2B04D0CE
:1007F000802252041743194305E0F37E002B02D0F8
:100800008023DB041F432C23F35C002B03D1474BD5
:100810009B789B0701D580231F432A68D369002B4F
:10082000FCD14B4659602A68D369002BFCD14B465A
:100830001F600EAB80221A7000225A70DA709A7014
:10084000336B0A93736B0B93B36B0C93F36B029341
:100850000D9300270EAEF9B2BB000AAA98580028E3
:1008600002D12000324B9847431C05D03070000C59
:10087000C0B231002F4B98470137042FEBD1002332
:10088000EB602B616B61AB61EB612B62AB626B6206
:100890000022EB85AB853033EA540133EA5401334F
:1008A000EA540133EA542868184B98470400224957
:1008B000224B9847A400224BE55000201EE0102355
:1008C00006930023079303E0032306930023079373
:1008D00033680493F3689B4673690393337E9846A9
:1008E0002623F35C059373689A46002B00D11DE71D
:1008F00080235B059A4500D101E73EE711B03CBC7F
:1009000090469946A246AB46F0BDC046150500008C
:10091000000400409D1700002D1700004503000053
:10092000C1170000550100007D01000000200041BA
:100930009103000099180000990A0000290C00009A
:10094000D43C0020C2791C23002A0ED0C28D92B262
:10095000173B002A09D10368DA69002AFCD11985FE
:1009600002211A7E0A42FCD0002318007047C046BC
:1009700082791C23002A30D0828D92B2173B002A44
:100980002BD10268107E400727D5D369002BFCD1FC
:10099000538BDBB298061DD0980703D502235383EF
:1009A00018331AE0580703D5042353831A3314E08D
:1009B000D80703D50123538312330EE0D80603D59D
:1009C00010235383323308E09B0603D5202353833F
:1009D000213302E0138D0B80002318007047C046BE
:1009E000F0B54F4680B482B0040001911720002A70
:1009F00049D0E3790530002B45D02768FB69002BEF
:100A0000FCD191460025012620E03A7E324204D1F5
:100A1000012B2AD0013B002BF7D16A1C92B2019B1B
:100A20005B5D6179012902D099B2150005E0A91C2E
:100A30008DB20199895C090219432000144B984733
:100A40004A46013A93B29946002B16D03B7E334278
:100A5000E3D1104BD9E73A7E0A4208D1012B08D0E6
:100A6000013B002BF7D100200DE012200BE000200D
:100A700009E0122007E0002005E03B7E9B07FAD446
:100A8000044B0221E7E702B004BC9146F0BDC0462A
:100A900045090000FFFF0000F8B58000604BC55815
:100AA0002C68E369002BFCD1237EA67D1E403023F9
:100AB000EB5C3122AF5C1F40F30722D5EB8D9BB27C
:100AC000002B1CD0AA6A1378DBB2511CA962697989
:100AD000012901D09BB204E0517809020B43023294
:100AE000AA62DB05DB0D2385EB8D013B9BB2EB8519
:100AF000002B06D1013323750133A37501E00123D7
:100B00002375B30709D50223237500223133EA5434
:100B1000FB0702D52800EB689847730760D5AB8DBB
:100B20009BB2002B5AD0638BDBB21A0702D43F2250
:100B3000134001E037221340002B2DD09A0705D532
:100B40001A223223EA54303B63831FE05A0705D54B
:100B50001E223223EA542E3B638317E0DA0705D5C1
:100B600013223223EA54313B63830FE0DA0605D5C2
:100B700042223223EA54223B638307E020221A42B6
:100B800004D021323223EA54123B63837B0727D5FA
:100B900028006B69984723E0238DDB05DB0DDAB273
:100BA000696A0A706A6A511C69626979012904D10B
:100BB0001B0A53706B6A01336B62AB8D013B9BB2B6
:100BC000AB85002B0CD10433237500222E33EA545D
:100BD000BB0705D528002B69984701E0042323753E
:100BE000F30607D5102323752376FB0602D52800CC
:100BF000EB699847B30607D52023237523763B0777
:100C000002D52800AB699847330707D50823237519
:100C10002376BB0602D52B6A28009847F8BDC0464C
:100C2000D43C00207047C046F0B50A4B1B78002B1F
:100C30000CD1094F094E0A4D0024DE515A19146097
:100C40000433182BF9D10122024B1A708000024B99
:100C5000C150F0BD9A0000209C000020250C00002F
:100C6000D43C002010B582B0040006220549684635
:100C7000054B98472000054B98476B46185602B025
:100C800010BDC0469C3E0000CD360000150500009A
:100C900010B5024B1B680020984710BD9C00002037
:100CA00010B5024B5B680120984710BD9C000020E6
:100CB00010B5024B9B680220984710BD9C00002095
:100CC00010B5024BDB680320984710BD9C00002044
:100CD00010B5024B1B690420984710BD9C000020F2
:100CE00010B5024B5B690520984710BD9C000020A1
:100CF0000C4B1B68002B10D1EFF31083002B09D194
:100D000072B6BFF35F8F0022074B1A700132074B98
:100D10001A7002E00022054B1A70024A1368013370
:100D200013607047B400002008000020B8000020C5
:100D3000084B1A68013A1A601B68002B09D1064B50
:100D40001B78002B05D00122044B1A70BFF35F8F74
:100D500062B67047B4000020B800002008000020F0
:100D6000F0B583B001AC012565700027A770257030
:100D700021002A20064EB0478022D200054B9A61FE
:100D80002770657021000220B04703B0F0BDC04657
:100D9000F9130000802800400020704710B50023A0
:100DA0000022037043708370C370002103830362C9
:100DB000C36101240471C0246401C48001724272C1
:100DC0008272C27202732A24025542738273C27302
:100DD00003610275063C0255C3840385417510BD4D
:100DE000F0B54F4680B49AB005000C00160008001C
:100DF000A94B98472C60A94A116A08230B43136238
:100E000022780523D20700D5C9E12A68138C9BB24A
:100E1000002BFBD122781C33920700D5BFE17378F9
:100E20002B71002B04D19E4AD16904330B43D3614B
:100E30000023AB60EB602B61AB76EB762B832B77DB
:100E40008000984BC5502A23F35C002B05D1337BDF
:100E5000002B02D101336B7701E000236B772F6801
:100E600033786A46137069461E208F4B98471E20C0
:100E70008E4B9847347960228D4902A88D4B984754
:100E8000132C0CD8A40002ABE05801A900234B702E
:100E9000CB708B7001330B70C0B2874B9847F488CE
:100EA0006022834902A8834B9847132C0CD8A400D6
:100EB00002ABE05801A900234B70CB708B7001335B
:100EC0000B70C0B27C4B984700247A4B99460123A3
:100ED000A34032691A4212D06022754902A8C8475D
:100EE000132C0CD8A30002AA985801A900234B7018
:100EF000CB708B7001330B70C0B26F4B98470134CD
:100F0000142CE4D1737B9A01B37BDB011343DBB276
:100F10003B70337DDB0172781343DBB2BB70F37837
:100F2000342B00D93AE19B00644AD3589F460420F1
:100F3000102102221AE0727A307A102116E006207F
:100F40001021012212E00820102100220EE00020D2
:100F5000302100220AE000202021002206E00020AB
:100F60000021002202E00220102101221201702340
:100F7000134003433B732A68138C9BB2002BFBD1B5
:100F8000727D17333F2A00D909E1F37BDB011A4355
:100F9000D2B27A732A68138C9BB2002BFBD1B37840
:100FA0007B702423F25CD200337B9B001343F27AE4
:100FB0001A43B37A5B0013430B437B812A68138C7B
:100FC0009BB2002BFBD1328B002A00D198E0102974
:100FD0007AD002D800293ED092E020291AD03029B8
:100FE00000D08DE0F37A002B0AD0F169803117230D
:100FF000FF2900D9D3E0316A8031FF2900D9CEE042
:101000001723F169FF2900DDC9E0316AFF2900DDFE
:10101000C5E075E0F37A002B12D0F36980208000E0
:1010200084466344190017232548814200D9B6E05D
:10103000336A6344190017232148814200D9AEE086
:1010400017231F49F069884200DDA8E0306A884212
:1010500000DDA4E054E0F37A002B12D0F369802085
:10106000000184466344190017231648814200D9C1
:1010700095E0336A6344190017231248814200D96E
:101080008DE017230F49F069884200DD87E0306A60
:10109000884200DD83E033E0990D00000004004049
:1010A00000140040EC3C00209D1700002D170000AC
:1010B000783F0000CD36000099180000A43E0000E3
:1010C000FF030000FF0F0000F37A002B10D0F3693C
:1010D000802000028446634419001723324881426D
:1010E0005DD8336A6344190017232F48814256D8CC
:1010F00017232D49F069884251DC306A88424EDC62
:101100007B891A437A812A68138C9BB2002BFBD10E
:10111000B38BFB812A68138C9BB2002BFBD1338CE1
:101120003B822A68138C9BB2002BFBD13279F38867
:1011300013433B812A68138C9BB2002BFBD12A33CB
:10114000F35CFB7007233B711D33F35C002B19D05C
:10115000F28C172315498A4221D87A822A68138C87
:101160009BB2002BFBD1318D80231B01CA1892B298
:1011700017230E48824212D8B9822A68138C9BB278
:10118000002BFBD10A4B1B681902E022D2000A4057
:101190009B065B0F1343BB85002300E01723180059
:1011A0001AB004BC9146F0BDFFFF0000FF0F000025
:1011B0002060800070B52D4B1C6823689D79EDB2CE
:1011C000EA0735D5E27ED20732D5A27ED2072FD5E7
:1011D00001229A716269931C636123689B8C9BB2A4
:1011E0001380238B013B9BB22383002B15D0637F9D
:1011F000002B1DD02268D3795BB2002B18DB138C37
:101200009BB2002BFBD1117E02330B431376226875
:10121000138C9BB2002BFBD10AE0237F052B07D157
:10122000002323770133226813712000A3689847B5
:101230006B070BD5042322689371E37E9B0705D5CA
:10124000A37E9B0702D52000E3689847AB070BD528
:10125000022322689371E37E5B0705D5A37E5B07BB
:1012600002D523692000984770BDC046EC3C0020A1
:10127000931C9B00195001239340827E1343837675
:101280007047C04610B50400038B9BB20520002BAD
:101290001DD1237FD8B2052819D0052323772283B7
:1012A0006161043B22685371637F0020002B0ED0E4
:1012B0002268138C9BB2002BFBD1117E02330B43AF
:1012C00013762268138C9BB2002BFBD1002010BD3B
:1012D00000B583B001A800230370094B9847094A61
:1012E000116A40230B431362074B197801220A430A
:1012F0001A70197802220A431A7003B000BDC04662
:10130000B114000000040040001800438023DB01FA
:1013100043810023037343738373C3730374437460
:1013200083748022920302604360C0235B010381C7
:101330007047C046037B5A1E93419B02427B002AA2
:1013400002D0802292001343827B002A02D08022A6
:1013500052001343C27B002A01D080221343027C37
:10136000002A01D040221343827C002A01D00422AB
:10137000134301684268114342890A43417C0A438E
:1013800001890A431343014AD360704700180043A0
:10139000002805D10A4A516802230B4353600EE02E
:1013A000012805D1064A916802230B43936006E0A9
:1013B000022804D1024AD16802230B43D36070474C
:1013C00000180043031E05D10A4B9878C007C00FD0
:1013D000C0B20DE0012804D1064B98788007C00FF9
:1013E00006E00020022B03D1024B98784007C00F83
:1013F0007047C0460018004300B583B001AB80229F
:101400001A700A785A704A789A708A78DA701900D5
:10141000014B984703B000BD9918000010B508288B
:1014200003D880001C4B1B589F46002032E01B4B0A
:1014300018692FE01A4B187D0007800F0130194BF7
:10144000584327E0154B586924E0144B1B680220D1
:1014500018401FD0124980225200CB681342FCD0A2
:101460000E4B1B685B0714D500200F4B98470B4BA6
:101470009B681B041B0C58430CE02823084AD35CD0
:1014800000209B0706D5054BD86803E080200002AA
:1014900000E0064810BDC046D83F0000BC00002058
:1014A000000C004000093D00C1170000006CDC0288
:1014B00010B50549CC69027801231A40D203034BC9
:1014C00023401343CB6110BD00100040FF7FFFFF9E
:1014D00010B584B0802252002B4B9A60FD3A2B4B02
:1014E0009A602B4A53681E218B4353608023DB058F
:1014F0009B78022B09D08023DB0501229A710132EF
:101500009A701A009379002BFCD01F4B1A7D802112
:1015100049420A431A751A7DC0318A431A751D4B18
:1015200098471D4C0123A371637123712278042114
:101530008A43227001A94B6000234B7006220A7077
:101540000B724B720020154B98470020144B9847A4
:101550000020144B98472179C9B2134B9847134B7D
:1015600098420ED88023DB059B78002B09D080237E
:10157000DB0501229A7100229A701A009379002BE0
:10158000FCD004B010BDC046000C00400014004068
:1015900000400041B115000000040040D5150000D6
:1015A00081160000C116000011350000001BB700B5
:1015B000064A516940230B4353610122044B1A70C0
:1015C00019000B781342FCD17047C046000400405C
:1015D0000018004070B505000C784B78002B02D045
:1015E0008023DB001C434B7A002B02D080231B019D
:1015F0001C434A68012A17D9531E1A420FD1022AE6
:1016000006D90223002001305B009A42FBD800E09B
:10161000002080235B011C430004044304E0120407
:1016200080239B001A4314430B7A002B02D08023A3
:101630009B011C430426AE400D490E4A4B681340E3
:101640001E42FBD10C4B9847AD00094B9C466544AC
:10165000286A80235B001840204328626146054ABF
:101660004B6813401E42FBD1044B984770BDC046E7
:1016700000180040FC070000F10C0000310D0000D4
:1016800010B504000422824009480A4943680B400F
:101690001A42FBD1084B9847A400054B9C46644472
:1016A000236A8022520013432362044B984710BDE3
:1016B00000180040FC070000F10C0000310D000094
:1016C000F8B50400042282401248134943680B40D5
:1016D0001A42FBD1114B98470E4F0834A400E05931
:1016E000C006C00E0E4B98470600E559ED04ED0FFD
:1016F000E459240C0B4B9847002D07D1012C07D936
:1017000021003000084B9847060001E00134E64014
:101710003000F8BD00180040FC070000F10C00008C
:101720001D140000310D00001135000010B504003B
:10173000094B9847A000094B9C4660448022815881
:1017400040230B4383508021403A43581A42FCD037
:10175000034B984710BDC046F10C00000018004034
:10176000310D000010B50400094B9847A000094B4B
:101770009C4660448022835840218B4383504031F3
:10178000403A43581A42FCD1034B984710BDC0461B
:10179000F10C000000180040310D000070B504008D
:1017A0000D00054B98472B780F2213402034A400DE
:1017B000024AA35070BDC0466517000000180040E3
:1017C00010B50400064B98472034A400054BE4589C
:1017D0002407240F044B98472000044B984710BD62
:1017E000F10C000000180040310D0000C11600008F
:1017F00030B5D378002B1ED11378802B04D01B0674
:1018000080246402234300E0002354780225AC4383
:101810000AD19478002C03D18024A402234302E04F
:10182000C024E402234341605478013C012C12D8C7
:10183000184C23400FE041600B041B0CA024E4056E
:10184000234383620B0CD024240623438362D37882
:10185000002B18D01CE00C04240CA025ED052C4313
:101860001C4384620C0CD0252D062C431C4384623F
:10187000D478002C0CD15B0305D59378012B01D1D2
:10188000816100E041615378013B012B00D8816008
:1018900030BDC046FFFFFBFF10B503000A00C109C1
:1018A0000020002904D15809C00105498C46604434
:1018B0001F210B401E399940024B984710BDC0466E
:1018C00000280040F11700007047C04610B5054BD6
:1018D0009847054B9847054B9847054B9847054B4C
:1018E000984710BDD1140000610D0000C918000018
:1018F000C9180000C9180000FEE7C04610B51D4B0E
:101900001D4A9A4203D01D4B1A4A9A4204D31C4BDB
:101910001C4A9A4210D31EE01B4A184B03339B1AF1
:101920009B0801339B000022124813498C588450B5
:1019300004329A42FAD1EAE7144A114B03339B1A54
:101940009B0801339B0000220E48002114182160DF
:1019500004329A42FAD10E4AFF210E4B8B43936018
:101960000D4A516880230B4353600C4B98470C4B36
:101970009847FEE700000020CC4000007C000020DB
:10198000803F00207C000020040000208000002018
:1019900000ED00E000000000004000418136000042
:1019A000A53200000300064A1268002A02D1054948
:1019B000034A1160024A1068C31813607047C0469A
:1019C000D4000020805F0020012040427047C046C4
:1019D00080239B014B6000207047C0460020704769
:1019E000030008334360012252428260C3600361F6
:1019F000002303607047C046002303617047C04660
:101A000043684B609A688A609A685160996008617F
:101A1000036801330360704730B50C680200083278
:101A2000631C02D1026904E01A0053681D68AC42CD
:101A3000FAD253684B6099608A605160086103680C
:101A40000133036030BDC04603694268816891601C
:101A50008268416851605A68904201D182685A6038
:101A6000002202611A68501E18607047034B1B6801
:101A7000013301D072B6FEE772B6FEE70C0000201B
:101A8000064A13681868203080F30988022080F322
:101A900014883FBCAE4662B600BDC0462C3C002058
:101AA00010B5031F802464041C60043B1960043BD0
:101AB00002491960143B1A60403810BD6D1A0000CD
:101AC0007047C04680225205034B1A60BFF34F8F08
:101AD000BFF36F8F7047C04604ED00E072B6044A52
:101AE000136801331360BFF34F8FBFF36F8F7047DD
:101AF0000C000020064B1B68002B01D172B6FEE7DC
:101B0000013B034A1360002B00D162B67047C04608
:101B10000C000020EFF3108072B670470020C04622
:101B200080F310887047C046EFF309800E4B1A68A7
:101B300020381060F0C044464D4656465F46F0C01F
:101B400008B572B600F0DAFE62B60CBC116808681F
:101B50001030F0C8A046A946B246BB4680F30988BB
:101B60002038F0C81847C0462C3C002010B5074B61
:101B700098470400064B9847002803D0802252055E
:101B8000044B1A602000044B984710BD151B000041
:101B9000F925000004ED00E0211B00000022044BA9
:101BA0001A60044A044B1A600722044B1A607047FB
:101BB00018E000E03F1F000014E000E010E000E04B
:101BC00010B50A4B1A68FF2109040A431A601A6803
:101BD000FF2109060A431A60054B98470022054B6E
:101BE0001A60054B9847054B9847C04620ED00E02A
:101BF0009D1B00000C000020811A00006D1A0000DF
:101C000070B50400430702D007239C430834104BEF
:101C10009847104B1B68002B05D107220E4B083349
:101C200093430C4A13600D4B1B68E4180C4A944212
:101C300007D8A34207D2074A1568ED18074B1C6066
:101C400002E0002500E00025064B9847280070BD03
:101C5000C9250000743B0020DC000020D8000020D3
:101C60008F3A00001D270000002801D072B6FEE761
:101C70007047C04670B504001500026C002A08D1F8
:101C80000368002B2CD14068174B984700236360F2
:101C900026E0002D0DD18068144B9847A368226C74
:101CA00094466344A3606268934219D32368A36097
:101CB00016E0C0680D4B9847236C5B42E268D2186F
:101CC000E26021688A4203D2626894466344E3601A
:101CD000022D05D1A36B002B02D0A36B013BA363A4
:101CE000A36B0133A36370BD112C0000CD3600003F
:101CF00010B582B001900A00C46C002C01D172B6FC
:101D0000FEE7A16BE36B994201D372B6FEE7A16BCC
:101D100000208B420DD901A92000074B98470020D5
:101D2000636A002B05D020002430044B9847431EE3
:101D3000984102B010BDC046751C0000412A000049
:101D400070B50C00016800290BD0026CC3689B18A9
:101D5000C3604568AB4200D3C160C1682000014B3D
:101D6000984770BDCD360000F8B50400244B984765
:101D7000A36C002B1CDD234D234EE36C002B07D0FE
:101D800000212000A84701280CD1204B984709E0EA
:101D9000636A002B0CD020002430B047002801D00B
:101DA0001A4B9847A36C013BA364A36C002BE4DCA3
:101DB00001235B42A364164B9847114B9847636C11
:101DC000002B16DD2369002B04D112E02369002BC0
:101DD00004D10EE0250010350B4F0C4E2800B847FB
:101DE000002800D0B047636C013B6364636C002B38
:101DF000ECDC01235B426364054B9847F8BDC046A9
:101E0000DD1A0000F11C0000412A0000592B0000DF
:101E1000F51A000070B504000D00002801D172B65B
:101E2000FEE7154B98472268216CE36B4B43D018B3
:101E300060600020A063A2605B1AD318E3600123F6
:101E40005B426364A364002D0BD12369002B0FD088
:101E500020001030094B9847012809D1084B9847BA
:101E600006E020001030074DA84720002430A84786
:101E7000054B9847012070BDDD1A0000412A000083
:101E8000C51A0000E1190000F51A000070B5050040
:101E90000E00002811D050200E4B9847041E0CD085
:101EA0003000684301300B4B98472060002806D172
:101EB0002000094B984700E0FEE772B6FCE7E563B7
:101EC000266401212000054B98470023E36420008D
:101ED00070BDC046011C0000691C0000151E0000FA
:101EE000F0B557464E464546E0B484B004000F00B6
:101EF00001921D00002801D172B6FEE7002904D12D
:101F0000036C002B01D072B6FEE7022D04D1E36B07
:101F1000012B01D072B6FEE7424B9847002804D14E
:101F2000019B002B03D072B6FEE7002600E00026DE
:101F30003D4B9846C047A36BE26B934201D3022D01
:101F40001FD12A0039002000384B9847E36C002B42
:101F500008D029002000364B984701280DD1354B79
:101F600098470AE0636A002B07D020002430324BE8
:101F70009847012801D12F4B9847304B98470120B3
:101F800049E0019B002B03D12C4B9847002042E0F5
:101F9000002E03D102A82A4B98470136274B9847B9
:101FA000284B9847204B9847636C013301D100239D
:101FB0006364A36C013301D10023A3641F4B9847D2
:101FC00001A902A8204B984700281ED1164B98471C
:101FD000A36B9A46E36B9946184B9847CA450ED1B6
:101FE000200010300199194B98472000184B984752
:101FF000184B984700289DD10E4B98479AE7200030
:10200000134B9847134B984794E72000104B984781
:10201000104B9847002004B01CBC90469946A2463D
:10202000F0BDC046712B0000DD1A0000751C0000D9
:10203000F11C0000C51A0000412A0000F51A00003A
:10204000C92A0000C9250000E92A0000A9290000CA
:10205000691D00001D270000F0B583B004000F00CB
:1020600016001D00002801D172B6FEE7002904D138
:10207000036C002B01D072B6FEE7022D38D1E36B62
:10208000012B30D072B6FEE72A00390020001F4B2A
:102090009847A36C01331DD1E36C002B0BD02900B2
:1020A00020001B4B98470125012829D1002E16D06E
:1020B0000123336024E00125636A002B20D0200037
:1020C0002430144B984700281AD0002E09D0012341
:1020D000336015E0A36C0133A364012510E00125F2
:1020E0000EE001250CE00C4B98470190A36BCBE769
:1020F000094B98470190A36BE26B9A42C4D8002524
:102100000198064B9847280003B0F0BD751C0000ED
:10211000F11C0000412A0000151B0000211B0000DB
:10212000F0B54F464646C0B485B004000E0001929B
:102130001F00002801D172B6FEE7002904D1036C0C
:10214000002B01D072B6FEE74A4B9847002804D115
:10215000019B002B03D072B6FEE7002500E00025AE
:10216000454B9846C047A36B002B2BD0E568310048
:102170002000424B9847002F14D1A36B013BA3636F
:102180002368002B02D13E4B984760602369002BE7
:1021900014D0200010303B4B984701280ED13A4B09
:1021A00098470BE0E560636A002B07D020002430DD
:1021B000344B9847002801D0334B9847334B98470E
:1021C000012052E0019B002B03D1304B98470020A7
:1021D0004BE0002D03D102A82D4B984701352B4B26
:1021E00098472C4B9847244B9847636C013301D197
:1021F00000236364A36C013301D10023A364234B48
:10220000984701A902A8244B9847002827D11A4BC8
:102210009847A36B99461D4B98474B46002B18D106
:102220002368002B06D1144B984760681B4B9847D6
:10223000164B9847200024300199194B98472000ED
:10224000184B9847184B984700288BD10E4B98474E
:1022500088E72000134B9847134B984782E72000EC
:10226000104B9847104B9847002005B00CBC904687
:102270009946F0BD712B0000DD1A0000411D0000E1
:10228000652B0000412A0000C51A0000F51A000065
:10229000C92A0000C9250000E92A0000912B00008E
:1022A000A9290000691D00001D27000070B5040069
:1022B0000D000D4B9847636C013301D1002363641B
:1022C000A36C013301D10023A364084B9847A36B8F
:1022D000002B04D1200024302900054B9847200012
:1022E000044B984770BDC046DD1A0000F51A000087
:1022F000012A0000691D0000084B1B681B68002BA9
:1023000004D101225242064B1A6006E0034B1B68BF
:10231000DB68DB685A68024B1A6070477C3B002020
:102320001000002010B5041E0E4B1B6858600E4BA9
:102330001B689C4207D20D4B18680A4B1968043180
:102340000B4B98470CE00B4B1868064B196804318F
:10235000074B9847084B1B689C4201D2064B1C60F8
:1023600010BDC0462C3C0020483C00204C3C0020C6
:10237000191A00007C3B002010000020F0B54F46E9
:102380004646C0B485B002900F00160003930C9C23
:10239000002801D172B6FEE7042C01D972B6FEE71F
:1023A00040205A4B9847051E00D1A8E00E9B002BF9
:1023B00000D0A1E0B000554B98472863002803D116
:1023C0002800534B98479AE0524BF3189B002A6B16
:1023D000944663440722934398463A783423EA5458
:1023E0003B78002B0DD07A1C2B00353329003C3173
:1023F000107818701078002803D001320133994208
:10240000F6D100223B23EA54271E042F00D90427CB
:10241000EF62EF632B1D019318003F4EB047280079
:102420001830B0472D610523DB1BAB616D62039A49
:1024300002994046394B984728600D9B002B00D0ED
:102440001D60374B9847374A136801331360364B8A
:102450001B68002B22D1344B1D601368012B28D13F
:10246000324E63339946B144314F3000B847143689
:102470004E45FAD12F4B994618002D4EB0472E4F9E
:102480003800B0472D48B0472D48B0472D48B047D9
:102490002D4B4A461A602D4B1F600AE02C4B1B68DF
:1024A000002B06D1204B1B68DB6A9C4201D31E4BDC
:1024B0001D60284A136801331360EB6A264A1268CC
:1024C000934201D9244A13609800C3189B0017480F
:1024D000C0180199214B9847214B98471C4B1B680A
:1024E0000120002B0DD0104B1B68DB6A9C4208D9E1
:1024F0001C4B9847012004E00E9B036364E7012016
:10250000404205B00CBC90469946F0BD011C00004D
:10251000691C0000FFFFFF3FF9190000A11A00002D
:10252000DD1A0000543C00202C3C0020B43B00206D
:10253000E1190000883B00209C3B0020303C00203B
:10254000183C0020583C00207C3B00204C3C0020E4
:10255000803B0020503C00206C3C0020011A000011
:10256000F51A0000C51A000010B584B000230393CB
:1025700002930193009364220C490D480D4CA0472F
:1025800001280DD10C4B9847012809D172B60122C0
:102590000A4B1A6000220A4B1A600A4B984703E064
:1025A000002801D172B6FEE704B010BDFC3F000068
:1025B000712800007D230000152D0000803B0020C5
:1025C000483C0020C11B0000024A1368013313601D
:1025D0007047C046443C002010B5044B9847044B5C
:1025E0001C68044B9847200010BDC046DD1A00004F
:1025F000483C0020F51A0000F0B583B0394B1B6849
:10260000002B62D1384B1A6801321A601C68002C0A
:1026100012D1364B1B681B68002B01D072B6FEE747
:10262000324A1168324B186810601960314A1368D9
:1026300001331360304B9847304B1B6800269C4297
:1026400037D30026294D2B681B68002B04D10122AB
:1026500052422A4B1A602CE0244B1B68DB68DF686F
:102660007B689C4202D2254A136022E03B1D019305
:102670001800234B9847BB6A002B03D03800183052
:102680001F4B9847FB6A1F4A1268934201D91D4AA3
:1026900013609800C3189B001B48C01801991B4B7E
:1026A00098471B4B1B68FA6ADB6A9A42CBD3012618
:1026B000C9E7174B1B68DB6A9A00D3189B00124AC4
:1026C0009B58012B06D9012604E0124A13680133F6
:1026D00013600026104B1B68002B00D00126300031
:1026E00003B0F0BD443C0020483C00207C3B00206F
:1026F0004C3C0020783B0020F92200001000002014
:10270000491A00006C3C0020B43B0020011A000074
:102710002C3C0020B03B0020703C0020F8B52F4B33
:102720001B68002B01D172B6FEE72D4B98472B4B4F
:102730001A68013A1A601B680024002B4AD1294B01
:102740001B68002B23D145E0FB68DE6830001830A1
:10275000254B9847351D2800234B9847F36A234A99
:102760001268934201D9214A13609800C3189B0054
:102770001F48C01829001F4B98471F4B1B68F26A5F
:10278000DB6A9A4205D301221C4B1A6001E01C4C03
:1027900027002368002BD7D11A4B1B68002B11D0C0
:1027A000184B1B68002B0DD0174E144D154CB0471D
:1027B000002801D001232B602368013B236023689C
:1027C000002BF4D10D4B1B680024012B02D10F4BC1
:1027D000984701340E4B98472000F8BD443C002038
:1027E000DD1A0000543C0020491A00006C3C002017
:1027F000B43B0020011A00002C3C0020703C00205B
:10280000303C0020B03B0020F9250000C51A000034
:10281000F51A000010B5041E16D00D4B1B68002BD6
:1028200001D072B6FEE70B4B98470B4B1B68E418C0
:102830000A4B186804300A4B98472000094B984708
:10284000094B9847002801D1084B984710BDC04656
:10285000443C0020C9250000483C00202C3C0020BE
:10286000491A0000252300001D270000C51A00009A
:10287000F0B5474680B4164D164F174E1DE0B847C9
:102880003468164B9847002C17D0154B9847124BBD
:10289000DB68DC68201D134B9847134A1368013B23
:1028A00013600B4A1368013B1360104B9847206B71
:1028B0000F4B984698472000C0472B68002BDED16D
:1028C0000C4B1B68012BF8D90B4B9847F5E7C0461A
:1028D000843B0020C9250000183C00201D27000073
:1028E000DD1A0000491A0000543C0020F51A0000CF
:1028F000691C0000B43B0020C51A000010B5254B30
:102900001B68002B03D00122234B1A6041E00022F8
:10291000214B1A60214B1B689A00D3189B00204A58
:102920009B58002B16D11D4B1B68002B06D01B4A51
:102930001B4C100004E00368002B01D172B6FEE7C7
:102940001368013B136013689900CB189B001B5957
:10295000002BF0D0114B1B68114C9A00D118890044
:102960006118486840684860D21892000832A2187E
:10297000904205D141689A00D2189200A218516085
:102980009A00D3189B00064AD3185B68DA68054B97
:102990001A6010BD443C0020703C00206C3C0020BC
:1029A000B43B00202C3C002070B50C00002801D165
:1029B00072B6FEE70B4D296818310B4B9847286813
:1029C00004300A4B9847631C06D1064B1968043142
:1029D0000748084B984704E0074B18682018074B36
:1029E000984770BD2C3C0020191A0000491A0000BD
:1029F000583C0020011A0000483C0020252300001C
:102A000070B50C00002801D172B6FEE7074D2968A9
:102A10001831074B984728680430064B9847064BF7
:102A200018680019054B984770BDC0462C3C002023
:102A3000011A0000491A0000483C0020252300002C
:102A400070B5C368DD68002D01D172B6FEE72C00B9
:102A500018342000144B9847144B1B68002B13D1DB
:102A60002C1D2000104B9847EB6A114A12689342C4
:102A700001D90F4A13609800C3189B000D48C01875
:102A800021000D4B984703E021000C480A4B984762
:102A90000B4B1B68EA6ADB6A00209A4203D90122C9
:102AA000084B1A60013070BD491A0000443C0020F8
:102AB0006C3C0020B43B0020011A0000303C002098
:102AC0002C3C0020703C0020002801D172B6FEE7AB
:102AD000034B1B680360034B1B6843607047C04691
:102AE000783B0020483C002070B504000E00002810
:102AF00001D172B6FEE7002901D172B6FEE7114B93
:102B00009847114B196833685A1C15D00F4A126840
:102B10002068904203D00125626891420DD262681C
:102B2000881A0125834208D9521AD318336020002D
:102B3000074B9847002500E00025064B98472800E2
:102B400070BDC046DD1A0000483C0020783B0020E4
:102B5000C92A0000F51A00000122014B1A607047D3
:102B6000703C0020014B18687047C0462C3C002088
:102B7000054B1B680120002B04D0044B186843420E
:102B8000584140007047C046803B0020443C002034
:102B900070B5041E31D0C36A184A1268D26A9342D3
:102BA0002BD28269002A05DB144A1268D16A0522F9
:102BB000521A82619A00D3189B00114AD318626995
:102BC0009A4216D1251D28000E4B98470B4B1B68C7
:102BD000DB6AE3620C4A1268934201D90A4A136025
:102BE0009800C3189B000648C0182900074B984757
:102BF00003E0024B1B68DB6AE36270BD2C3C0020E3
:102C0000B43B0020491A00006C3C0020011A00006F
:102C100070B5051E1DD0C36AC26B934219D0041D46
:102C200020000C4B9847E86BE862AB69002B02DB95
:102C300005231B1AAB61084B1B68984201D9064B50
:102C40001860830018188000044B18182100044BEA
:102C5000984770BD491A00006C3C0020B43B00202E
:102C6000011A000010B54160006191420BD8D21AE0
:102C7000012483699A4211D2011D094B1868094B3E
:102C8000984700240AE09A4202D20124994205D2D0
:102C9000011D054B1868034B98470024200010BD08
:102CA000A83C0020191A0000743C002070B5104B9D
:102CB0009847104B1B68002B16D10F4D28000F4E64
:102CC000B0470F4C2000B0470E4B1D600E4B1C60F0
:102CD00000220C2102200D4B9847002802D0054B02
:102CE000186001E072B6FEE7094B984770BDC04618
:102CF000DD1A0000A43C0020783C0020E11900000F
:102D00008C3C0020743C0020A83C00208D1E00005C
:102D1000F51A000010B584B00B4B98470B4B1B689D
:102D2000002B0DD0002303930293019302330093F1
:102D30000023502206490748074CA047002801D12C
:102D400072B6FEE704B010BDAD2C0000A43C00201C
:102D50002C4000007D2E00007D23000030B585B0A2
:102D60001D00134B1C68002C1FD001910292039090
:102D7000052913DC0F4B9847022807D10C4B186824
:102D80000023089A01A90C4CA0470FE0084B1868D3
:102D90000023002201A9084CA04707E000232A00D5
:102DA00001A92000054CA04700E0002005B030BD7F
:102DB000A43C0020712B0000E11E000059200000FF
:102DC000F0B557464E464546E0B482B08146244BA6
:102DD00098478046234B1B68984233D223E0DB6838
:102DE0001A689246DC68251D2800B8472000636AEF
:102DF0009847E369012B18D1A36953449A4507D238
:102E000063602461184B18682900184B98470CE040
:102E100000230093524600212000154CA0470028B3
:102E200003D172B6FEE7104E124F33681A68002ABB
:102E3000D5D1114A0C4910680860136001234A4635
:102E4000136002E000234A461360064B42461A60B4
:102E5000404602B01CBC90469946A246F0BDC04612
:102E6000D9250000A03C0020743C0020191A000065
:102E70005D2D0000491A0000A83C0020F0B55F4617
:102E800056464D464446F0B489B0524B9B46524B91
:102E90009946524B98465B461B681A68002A00D137
:102EA0008FE0DB681D684C4B984705A84B4B984753
:102EB0000400059B002B31D1854223D8484B98470D
:102EC000444B1B68DB68DE68301D464B9847F3694E
:102ED000012B13D1B369E9182B0022003000424CBA
:102EE000A04701280AD1002300932A0000213000C6
:102EF0003E4CA047002801D172B6FEE7736A30004D
:102F000098470DE0291B3A4B18683A4B9847344BC9
:102F10009847002804D1384B984701E0304B984738
:102F2000334D364C45E0059B0393002B41DB079E58
:102F30007369002B02D0301D2A4B984704A8274BF9
:102F40009847059B092B34D89B002D4AD3589F46A0
:102F5000069BB269944663441900069B0200300048
:102F6000214FB847012824D13000736A9847F3698C
:102F7000012B1ED1069BB1698C4663441A000023C5
:102F8000009300213000194EB047002811D172B6CD
:102F9000FEE70699B161002901D172B6FEE741183A
:102FA000030002003000104EB04702E03000154B25
:102FB00098470023002205A92868A0470028B2D11D
:102FC00069E7C84705A8C04704000025059B002BFA
:102FD00098D0A3E7743C0020C9250000C12D000053
:102FE0001D270000491A0000652C00005D2D00001F
:102FF000A43C0020AD220000C51A000021210000E1
:1030000004400000691C00000122014B1A70704747
:10301000AC3C0020F0B5474680B492B0232200219A
:1030200068462B4B984700242A4E2B4D2B4B984635
:1030300043E047236B441B78402B35D16A46135538
:103040001378232B29D1013BD35C402B25D1537816
:10305000522B02D0572B17D01FE009A96B460A004C
:1030600091CB91C291CB91C211CB11C21888108023
:103070009B7893701A4B1B888B701B0ACB70232292
:103080001848194B984708E0D3781B026A46927893
:103090001343164A1380164A136023220021684600
:1030A0000B4B9847002404E0222C02D86A461355A3
:1030B0000134002247236B441A7000230022472169
:1030C00069443068A8470028B3D10A30C047F4E704
:1030D000DF360000BC3C0020212100001528000044
:1030E000B83C0020F43C0020E1090000AE3C002088
:1030F0001400002010B5154AD369002BFCD1134BE6
:103100001B7EDBB2124A13805B071ED50F4B5A8B16
:10311000D2B23F2313400F490B7006D0062313424F
:1031200013D00622094B5A830FE0084B1B8D0A4926
:10313000DB05DB0D0B80094A136801331360084B74
:10314000186800230022074CA04710BD000400426D
:10315000F03C00204E3F00204C3F0020B03C0020BF
:10316000BC3C00205920000070B582B005000E0064
:1031700000226B46DA80064C6B46991D2800A0475A
:103180000028F9D16B4606331B88337002B070BD3E
:103190007109000070B505008CB2034E21002800B3
:1031A000B0470028FAD170BD4509000010B586B0BF
:1031B000144B984701AC2000134B984780235B03C6
:1031C000019300236360C022520122816381013395
:1031D0002373A373A374002269464A708B70002284
:1031E000CA700B700520094B98472000084B984780
:1031F0000220084B9847084C0220A0470028FBD02B
:1032000006B010BDD11200000D1300009918000087
:103210003513000091130000C513000030B58DB0C8
:1032200001AC2000114B98470223A3701D3323717A
:103230000F4D22000F4928000F4B98472A68138C26
:103240009BB2002BFBD18021C9030C4B19600723D3
:10325000137193711178053B0B431370044B1A687B
:10326000138C9BB2002BFBD10DB030BD9D0D000027
:10327000503F0020000C0043E10D000000E100E0A1
:1032800010B5054C002205492000054B9847E27E09
:1032900001231343E37610BD503F002009300000A6
:1032A00071120000F0B595B0564B9847564B9847B1
:1032B00004AA8023DB05049300235360FF211181BE
:1032C00000219372D3720124242014540130145429
:1032D00001301354013013549362053013540130FC
:1032E000135453611382D3761176117751761323D9
:1032F00093765177E1235B021362C4239B03D3606F
:1033000001235B4213635363404B9363404BD3638E
:10331000404D414B1D604149414B19604149424B71
:10332000196042492800424B9847424E33689868DA
:103330000021414FB847336858680021B8473B48DF
:103340003E4B98473E493F4B98472E6830003E4BD6
:1033500098471F23184084403C4B1C602B68DA6957
:10336000002AFCD13268022313433360294B1B68C7
:10337000DA69002AFCD15A68802149020A435A605E
:103380000121244AD171DA69002AFCD1DA69002AC4
:10339000FCD15A68802189020A435A6001211D4AE2
:1033A0009171DA69002AFCD10432204B9A75284BBE
:1033B0009847284B9847284B9847002201214020E6
:1033C000264B9847264B18600024039402940194DE
:1033D000022300930023642222492348234DA84757
:1033E0000394029401940134009400236422204940
:1033F0002048A847204B1C70BFF35F8F62B61F4B5D
:103400009847FEE7CD1800001501000002001200E9
:1034100002001300F43C0020D03C00209531000055
:10342000CC3C002069310000C83C00200004004270
:10343000E105000078000020EF36000015050000CF
:10344000F5300000290C0000650C000000E100E0F0
:10345000AD3100001D320000813200008D1E0000E1
:10346000BC3C002034400000B93400007D23000043
:103470003C400000153000000800002069250000D5
:1034800070B500220A4B1A6000290CD003004D00D1
:1034900045190020064E1C880019013232600233A3
:1034A000AB42F8D100E00020024B984780B270BDDB
:1034B000B43C00201135000070B50D4E0D4D0E4C82
:1034C0003288290020000D4B98470D4B1B78002BAC
:1034D00009D000220A4B1A70054B19680548094BA0
:1034E0009847094B18803220084B9847E8E7C046B8
:1034F000140000204C3D0020503F002085120000A9
:10350000AC3C002081340000B83C002015280000AD
:10351000002243088B4274D303098B425FD3030A12
:103520008B4244D3030B8B4228D3030C8B420DD325
:10353000FF22090212BA030C8B4202D312120902B3
:1035400065D0030B8B4219D300E0090AC30B8B42F1
:1035500001D3CB03C01A5241830B8B4201D38B039F
:10356000C01A5241430B8B4201D34B03C01A524144
:10357000030B8B4201D30B03C01A5241C30A8B4287
:1035800001D3CB02C01A5241830A8B4201D38B0272
:10359000C01A5241430A8B4201D34B02C01A524116
:1035A000030A8B4201D30B02C01A5241CDD2C30988
:1035B0008B4201D3CB01C01A524183098B4201D304
:1035C0008B01C01A524143098B4201D34B01C01AEF
:1035D000524103098B4201D30B01C01A5241C30867
:1035E0008B4201D3CB00C01A524183088B4201D3D6
:1035F0008B00C01A524143088B4201D34B00C01AC2
:103600005241411A00D20146524110467047FFE72D
:1036100001B5002000F006F802BDC0460029F7D031
:1036200076E770477047C046F0B54F464646C0B48F
:103630001604360C9946330005042C0C070C150CA7
:1036400063437E436F4365431C0CAD1964199C466C
:10365000A64203D980235B02984647446346250C63
:10366000EF191D044B464A4343432D0C24046419AF
:103670009918C91920000CBC90469946F0BDC04667
:103680000E4B70B500251E000D4CE41AA410A54287
:1036900004D0AB00F35898470135F8E700F006FD79
:1036A000084B00251E00084CE41AA410A54204D0C3
:1036B000AB00F35898470135F8E770BDB8400000FB
:1036C000B8400000B8400000BC400000002310B526
:1036D0009A4203D0CC5CC4540133F9E710BD030017
:1036E0008218934202D019700133FAE770474A42B8
:1036F0004A41802310B55200DB0000F001F810BDF4
:10370000F0B51D00514B85B01E6804000F000092FB
:10371000002E05D0B369002B02D1300000F094F9DF
:103720004B4B9C4201D1746808E04A4B9C4201D14A
:10373000B46803E0484B9C4200D1F468009B022B24
:1037400005D0012B00D97CE0002D00DA79E02100C2
:10375000300000F00BF9616B002908D023004433DE
:10376000994202D0300000F033FA00236363002353
:10377000A3616360A3891B0603D52169300000F0B3
:1037800027FAA289354B1340A381009B022B21D03D
:1037900003AB02AA2100300000F0EAF9A389184324
:1037A000A081002D01D1029D01E0002F25D128002C
:1037B00000F004FA0195071E1AD1029B0193AB4257
:1037C00002D10120404206E0019800F0F7F9071EFF
:1037D0000ED1F6E700200222A3891343A381002320
:1037E000A3602300473323602361012363612AE040
:1037F0008022A389019D1343A381B369002B02D1C9
:10380000300000F021F9009B012B03D1A389009A1D
:103810001A43A2810823A2892760134027616561AA
:10382000181E0CD001231A400023101E984204D009
:103830006D42A360A561180005E0A56003E0A360E8
:1038400001E00120404205B0F0BDC04678000020F4
:103850004C4000006C4000008C4000005CF3FFFF17
:10386000F7B58A8905000C0013075AD44B68002B62
:1038700002DC0B6C002B19DDE76A002F16D0002349
:103880002E682B6080235B011A4001D0606D14E02C
:103890000123216A2800B847431C0ED12B68002B56
:1038A0000BD01D2B01D0162B02D12E6000205AE028
:1038B0004022A3891343A38155E0A3895B0706D562
:1038C0006368C01A636B002B01D0236CC01A0023FD
:1038D0000200216A2800E76AB847A389421C06D182
:1038E00029681D293AD8204ACA40D20736D5002275
:1038F000626022692260DB0405D5431C02D12B687B
:10390000002B00D16065616B2E600029CED02300B2
:103910004433994202D0280000F05AF90020606335
:1039200021E00F69002FC1D00B680F60DB1B0193F2
:103930000023920700D14B69A36003E0019B3F186D
:103940001B1A0193019B002BB0DD019B3A00216AF9
:103950002800A66AB0470028F0DCA3894022012095
:103960001343A3814042FEBD010040200B6970B5A6
:1039700005000C00002B01D100201CE0002804D021
:103980008369002B01D100F05FF80B4B9C4201D101
:103990006C6808E0094B9C4201D1AC6803E0084B1D
:1039A0009C4200D1EC680C22A35E002BE4D02100E5
:1039B0002800FFF755FF70BD4C4000006C40000030
:1039C0008C40000010B5024900F0B0F810BDC046B0
:1039D0006D390000002310B504000360436083606C
:1039E00081814366C28103614361836119000822BA
:1039F0005C30FFF774FE054B24626362044BA362E4
:103A0000044BE362044B236310BDC0462D3D000010
:103A1000553D00008D3D0000B93D000070B56825A2
:103A20004B1E5D430E002900743100F017F9041E8F
:103A300008D000212A00016046600C30A060683286
:103A4000FFF74DFE200070BD836913B50400002B05
:103A500028D18364C3640365134B144A1B688262D4
:103A60000193984201D101238361200000F020F8E6
:103A70006060200000F01CF8A060200000F018F842
:103A80000022E06004216068FFF7A4FF0122092101
:103A9000A068FFF79FFF02221221E068FFF79AFF5C
:103AA0000123A36113BDC04648400000C539000092
:103AB000F8B51D4B06001D68AB69002B02D128002C
:103AC000FFF7C2FF4835AC686B68013B05D40C2298
:103AD000A75E002F10D06834F7E72B68002B01D0C9
:103AE0002D68F0E704213000FFF798FF28600028D8
:103AF000F6D10C23336016E0012320005B42E38102
:103B00000233A38167662760A760676027616761EA
:103B1000A7615C3008223900FFF7E1FD20006763F0
:103B2000A763A764E764F8BD48400000F7B5040048
:103B30000700002601914834002C16D06368A56860
:103B40000093009B013B00930DD4AB89012B08D956
:103B50000E22AB5E013304D029003800019B984748
:103B600006436835EDE72468E6E73000FEBD000057
:103B700070B50E001D000E23C95E90B01400002920
:103B800006DA00232B60B3891B060FD540230FE014
:103B900001AA00F03DF90028F3DBF023029A1B0292
:103BA0001340054A9B185A4253412B608023DB0087
:103BB0000020236010B070BD00E0FFFF10B5034B84
:103BC0000100186800F04AF810BDC04678000020D7
:103BD00030B500293ED004390B68002B00DAC91833
:103BE0001D4A13681400002B02D14B60116031E0B4
:103BF0008B420DD90A688818834203D118685B6824
:103C000082180A604B60216024E08A4203D81300C6
:103C10005A68002AF9D11D685C198C420BD10968D9
:103C2000691858181960824214D1106852684118F6
:103C300019605A600EE08C4202D90C23036009E03F
:103C400008680C18A24203D1146852682018086052
:103C50004A60596030BDC046C43C0020032370B5A3
:103C6000CD1C9D43083506000C2D01D20C2505E026
:103C7000002D03DA0C230020336040E0A942F9D87C
:103C80001F4B1C681A002100002913D00B685B1B16
:103C90000DD40B2B02D90B60CC181EE08C4202D144
:103CA000636813601AE04B6863600C0016E00C0058
:103CB0004968E9E7134C2368002B03D1300000F07A
:103CC00023F820602900300000F01EF8431CD1D0FA
:103CD0000323C41C9C43A0420AD125602000072274
:103CE0000B30231D9043C31A09D05A42E25006E01C
:103CF000211A300000F008F8431CEED1BAE770BD7D
:103D0000C43C0020C03C0020002370B5064C0500D8
:103D100008002360FDF746FE431C03D12368002BF7
:103D200000D02B6070BDC0467C3F002070B50C00F9
:103D30000E25495F00F092F8002803DB636D1B1825
:103D4000636503E0A289024B1340A38170BDC046A6
:103D5000FFEFFFFFF8B51F008B8905000C00160070
:103D6000DB0505D50E23C95E0022022300F062F8B0
:103D7000A289054B28001340A38132000E23E15E87
:103D80003B0000F01FF8F8BDFFEFFFFF70B50C001F
:103D90000E25495F00F04EF8A389421C03D1054A65
:103DA0001340A38104E0802252011343A381606584
:103DB00070BDC046FFEFFFFF10B50E23C95E00F0D7
:103DC00015F810BD70B50500080011000022064C62
:103DD00022601A00FCF7DCFB431C03D12368002B94
:103DE00000D02B6070BDC0467C3F0020002370B522
:103DF000064C050008002360FDF7E6FD431C03D1D7
:103E00002368002B00D02B6070BDC0467C3F002093
:103E1000002370B5064C0500080011002360FDF773
:103E2000D7FD431C03D12368002B00D02B6070BD4D
:103E30007C3F002070B50500080011000022064CF0
:103E400022601A00FDF7CAFD431C03D12368002B32
:103E500000D02B6070BDC0467C3F002070B50500CF
:103E6000080011000022064C22601A00FCF770FBCB
:103E7000431C03D12368002B00D02B6070BDC046CB
:103E80007C3F002000000042000400420008004285
:103E9000000C0042001000420004004308090A0B15
:103EA0000C0D00005E0F00009C1100009C11000032
:103EB0009C1100009C1100009C1100009C1100004E
:103EC0009C1100009C1100009C1100009C1100003E
:103ED0009C1100009C1100009C1100009C1100002E
:103EE0009C110000460F00009C1100009C11000076
:103EF0009C1100009C1100009C1100009C1100000E
:103F00009C1100009C1100009C1100009C110000FD
:103F10009C1100009C1100009C1100009C110000ED
:103F20009C110000560F00009C1100009C11000025
:103F30009C1100009C1100009C1100009C110000CD
:103F40009C1100009C1100009C1100009C110000BD
:103F50009C1100009C1100009C1100009C110000AD
:103F60009C1100004E0F0000660F00002E0F000095
:103F70003E0F0000360F00000200000003000000AA
:103F800028000000290000000400000005000000D7
:103F900006000000070000002000000021000000D3
:103FA0002200000023000000240000002500000083
:103FB00026000000270000000800000009000000A3
:103FC0000A0000000B000000FFFF0000FFFF0000E0
:103FD000FFFF0000FFFF00002E1400002A14000065
:103FE0002A1400008C1400008C14000044140000FB
:103FF000341400004A1400007A14000049444C456F
:1040000000000000502F0000502F0000502F000033
:10401000B22F0000922F0000AC2F0000502F0000A4
:10402000502F0000B22F0000922F0000546D72201C
:10403000537663004D61696E000000005541525493
:1040400000000000430000001800002000000000F5
:104050000000000000000000000000000000000060
:104060000000000000000000000000000000000050
:104070000000000000000000000000000000000040
:104080000000000000000000000000000000000030
:104090000000000000000000000000000000000020
:1040A000000000000000000000000000F8B5C0465D
:1040B000F8BC08BC9E467047DD000000F8B5C0465D
:0C40C000F8BC08BC9E467047B50000002C
:1040CC0008000000401F000001000000AAAAAAAAD4
:1040DC00FFFFFFFF00010000000000004C4000004B
:1040EC006C4000008C40000000000000000000004C
:1040FC000000000000000000444000000000000030
:10410C0000000000000000000000000000000000A3
:10411C000000000000000000000000000000000093
:10412C000000000000000000000000000000000083
:0C413C000000000000000000180000203F
:04000003000018FDE4
:00000001FF
