S01500005069657A6F426F6172645F46572E7372656324
S1130000386E0020811D00007D1D00007D1D000054
S113001000000000000000000000000000000000DC
S1130020000000000000000000000000451F000068
S11300300000000000000000AD1F0000F11F0000E0
S11300407D1D00007D1D00007D1D00007D1D000044
S11300507D1D00007D1D00007D1D00007D1D000034
S11300601511000025110000351100004511000094
S113007055110000651100007D1D00007D1D00006C
S11300807D1D00007D1D00007D1D00007D1D000004
S11300907D1D00007D1D0000391600007D1D00003F
S11300A07D1D00007D1D00007D1D00007D1D0000E4
S11300B00000000010B5064C2378002B07D1054B37
S11300C0002B02D0044800E000BF0123237010BDC0
S11300D0B00000200000000008690000084B10B5C3
S11300E0002B03D00749084800E000BF0748036815
S11300F0002B00D110BD064B002BFBD09847F9E72D
S113010000000000B4000020086900000869000035
S11301100000000003689868431E9841C0B270470D
S113012000230370062242708370704730B583B099
S1130130050014000160124AD36980204001034382
S1130140D3610B781C209B0717D40B781738DB0777
S113015013D401A9A3780B701B300A4B98472020B5
S1130160094B984700236B71AB7162782378134372
S11301702A68537063782B71002003B030BDC046E9
S113018000040040211C0000B11B000070B50400F5
S11301900568104E2000B0470028FBD12A780223BE
S11301A013432B702379062B04D10B4AD169023BEC
S11301B00B43D361AB899B0704D50122EB7913422E
S11301C0FCD006E0EB899B0703D50222EB791342AE
S11301D0FCD070BD15010000001400400023037022
S11301E043708370C37002330371704770B582B07B
S11301F006000C00150001AB00225A70DA709A70E8
S1130200002906D1190001230B700220124B9847D4
S113021007E0012905D101A901230B7005200E4B2C
S1130220984730686A782B781343AA78002A01D05B
S113023040221343EA78002A01D0802213432A790A
S11302401202F02109010A4013439BB204346400F2
S11302500419A38002B070BD1D1D0000490003688D
S113026059188A89022313438B817047F0B5474696
S113027080B404000E00904607680B4D2000A84788
S11302800028FBD1A4196379002B05D00836760029
S1130290BF194346BB8003E0083676004346F35358
S11302A0002004BC9046F0BD15010000F0B55F4687
S11302B056464546E0B48AB007000D001600396082
S11302C00800954B9847052800D105E10400123435
S11302D09249CA69012383401343CB6109A9337B43
S11302E00B70E4B220008E4B984720008D4B98474A
S11302F0307B00218C4B98472B681C209B0700D532
S113030004E12B681738DB0700D5FFE014232B60CA
S11303103B6898461800804B98470400802308AA3D
S1130320137000235370012208A98A70CB70F069FE
S1130330356A002803D1002140467C4B984708AB1E
S11303401870022308AA5370000CC0B21100784B35
S11303509847002D04D101214046744B984705006D
S113036008AB1D70022308AA5370280CC0B21100F8
S11303706F4B9847B38AFB80F38A3B81327E80239C
S1130380002A04D16B4B9B789B07DB0FDB01B16820
S113039032690A4313432422B25C002A02D0802229
S11303A0D2051343B26A13432C22B25C002A03D150
S11303B080229204914202D18022120513432D22FD
S11303C0B25C002A02D08022120413432E22B25CB3
S11303D0002A02D08022D2031343424612681343F8
S11303E04246136080235B0053601234E0B2524BE8
S11303F0984705000790FA27BF0033685F43736886
S11304009A464E4CA047029003917800A047009072
S11304100191308E6843A047494B9B46494A4A4B59
S1130420D8474A4D00224A4BA8470490059138000A
S1130430A04702000B0004980599D84702000B005E
S1130440444C02980399A047009A019BA8470022B4
S1130450414BA047009A019B404CA047404B984712
S11304600400B26880239B049A4249D1FA2189008E
S113047057464F430298039902000B00A847009087
S1130480019138002D4B98470022364BD847020083
S11304900B0000980199314EB04700222E4B2D4E8F
S11304A0B0472F4B9847061E06D0390007982E4BAD
S11304B098470238831B07E07900481E079B9C4637
S11304C06044294B9847431EFF2C03D8FF2B0AD9BD
S11304D040201BE0402019E0104A116A02230B431C
S11304E013621824FAE6FF221440360634431B0430
S11304F0FF22120413401C434346DC60002005E045
S11305004020FF2C02D800260023ECE70AB01CBCD4
S113051090469A46A346F0BD9909000000040040A5
S1130520211C0000B11B0000C907000015080000D1
S11305301D1D000000200041451C00006D5D0000F1
S11305406551000095D626E80B2E113EE1440000CB
S113055000002440595600000000F03F394B0000D1
S1130560015D0000000008407143000070B50020E8
S1130570084B98470500084CFA218900A047074B0F
S1130580186007492800A047064B18600522064B4F
S11305901A6070BD451B0000714300000400002078
S11305A040420F000000002010E000E030B5084B8E
S11305B01C68084A00258021490206E0002C04D06A
S11305C05460956013680B42FCD00138F6D230BDFC
S11305D00400002010E000E010B549084023002486
S11305E0814201D20AE01C00091A631C9BB28842B2
S11305F0F9D94023FF2C01D814800023180010BD22
S1130600F0B55F4656464D464446F0B489B00C00FA
S1130610059212AA117802004A434025A24200D949
S1130620C6E0002B51D1020008000021644DA84708
S1130630834626000027002300240093019400220F
S113064000233F2020218C461F3902960397202443
S11306506442041903D40D00A540A84604E064468E
S1130660241A0D00E540A8460C008440A14614005D
S11306701D00A4185D4122002B0046465F463E4201
S113068003D00E00264332002B00029C039D9D42A2
S11306900FD801D194420CD8029C039D121BAB418C
S11306A04D46009E019F35433C0046463443009529
S11306B001940138CBD20022012300980199121A27
S11306C08B41120C1B041A436FE00022012B6CD1E6
S11306D0630F0493E30098460A0000230021384C7A
S11306E0A04704000D0000239C46069320339B463C
S11306F001266346079300230293002200233F212F
S1130700009401950F0020214942791803D4300048
S11307108840844604E05946C91B3000C8408446DA
S11307203100B9408946100019008018594102006F
S11307300B0044464D462C40A2466446049D2C4082
S1130740A446544665462C4303D034000443220097
S11307500B000098019999420AD801D1904207D818
S113076000980199121A8B4102994846014302915B
S1130770013FC8D2009C019D0299079A8B1ADB089D
S113078010498B420BD9069B0133DBB21900069347
S11307901300013307930829ADD1402508E0402513
S11307A0069A082A04D052031A43059B1A8000258E
S11307B0280009B03CBC90469946A246AB46F0BD21
S11307C089440000FF1F000010B582B004000E4BE6
S11307D01B78002B01D000290DD001A90C70112029
S11307E00A4B984711200A4B9847074B5C7001222B
S11307F01A70002006E0044B5B78834201D01D2070
S113080000E0002002B010BDCC000020211C00003C
S1130810B11B0000444B984234D007D88423DB0535
S113082098420DD0414B98421BD06FE0404B984208
S11308304AD0404B984258D03F4B984266D132E060
S1130840012906D0002963D0022906D0032906D045
S113085001E03A4867E0002065E0394863E0394840
S113086061E0012906D0002954D0022906D00329C9
S113087006D001E0344856E0002054E0334852E00A
S1130880334850E0012906D0002945D0022906D07A
S1130890032906D001E02F4845E0002043E02E481C
S11308A041E02E483FE0012906D0002936D0022934
S11308B006D0032906D001E0294834E0002032E0C4
S11308C0284830E028482EE0012906D0002927D006
S11308D0022906D0032906D001E0244823E00020A1
S11308E021E023481FE023481DE0012906D0002908
S11308F018D0022906D0032906D001E01E4812E0D0
S1130900002010E01D480EE01D480CE000200AE025
S11309101C4808E0032006E01B4804E01B4802E0F2
S11309201B4800E01B4870470008004200040042D6
S11309300010004200040043000C004203000500C4
S113094003000600030007000300010003001E006B
S113095003001F000300090003000A0003000B004A
S113096003001100030012000300130003000D0034
S113097003000E0003000F0003001700030018001B
S11309800300190003000400030008000300100022
S113099003000C000300160030B587B00C4B6A4608
S11309A032CB32C232CB32C2009B834206D0012307
S11309B09A0069465258824203D100E00023D8B21B
S11309C003E00133062BF3D1002007B030BDC0464D
S11309D01C660000F0B5474680B40C009046002821
S11309E00DD1002A0EDD8F18084E094D3068210004
S11309F02B6898470134A742F8D1404603E0012010
S1130A00404200E0002004BC9046F0BD0C3D0020B4
S1130A10043D0020F0B5474680B40E0015000138AF
S1130A20022811D8002A12D000240C4B98460C4FEF
S1130A3043461868315D3B689847002809DB013458
S1130A40A542F5D1200006E00120404203E0002049
S1130A5001E00120404204BC9046F0BD0C3D002062
S1130A60083D0020F0B55F4656464D464446F0B476
S1130A7091B005000C00160029600800C44B98478B
S1130A80021E052A03D007001237030001E01827CD
S1130A90012321680520C90700D571E121681730B9
S1130AA0890700D56CE1052A07D1BA48026A0121F9
S1130AB099400B001343036206E0B648C269012162
S1130AC099400B001343C3610FA92D239846F35C8F
S1130AD00B70FFB23800B04B98473800AF4B9847C3
S1130AE04346F05C0021AE4B9847F37A6B712423A4
S1130AF0F35CAB712523F35CEB71F37E2B72337FD4
S1130B006B722B6899461800A14B9847123000224B
S1130B100E2306A98C4663441A80328A02928023EB
S1130B20DB019A421AD004D880239B019A420BD04D
S1130B3007E1C023DB01029A9A420AD080231B02F8
S1130B409A4200D102E1FCE0102306930F3B079385
S1130B5000E108230693073B0793FBE03368049303
S1130B60F3689B4673690393337E98462623F35CAC
S1130B70059373689A46002B16D080235B059A452B
S1130B8039D12723F35C002B39D1336A1F00C0B25B
S1130B90844B984701000E2206AB9C466244380001
S1130BA0814B9847030027E008230693002307930B
S1130BB02723F35C002B0CD0069B0093079B0E228B
S1130BC006A98C466244B16A306A784FB84703007C
S1130BD012E0336A1F00C0B2724B98470100069BB3
S1130BE00093079B0E2206A88446624438006F4F88
S1130BF0B847030000E00023181E00D0C0E0737E55
S1130C00002B02D0B37E4A4693732A68029FD369AD
S1130C10002BFCD10E3306AA944663441B884A4633
S1130C209381049B5A461343039A13435246134336
S1130C303B43424612021343059A57071F43272397
S1130C40F35C002B01D104331F43717E8902337F8F
S1130C505B021943737F1B0219432423F35C5B0477
S1130C6019432523F25C12041143F37A194333899F
S1130C70FF2B04D0802252041743194305E0F37E6E
S1130C80002B02D08023DB041F432C23F35C002BB6
S1130C9003D1474B9B789B0701D580231F432A68C8
S1130CA0D369002BFCD14B4659602A68D369002BC9
S1130CB0FCD14B461F600EAB80221A7000225A7082
S1130CC0DA709A70336B0A93736B0B93B36B0C9358
S1130CD0F36B02930D9300270EAEF9B2BB000AAA80
S1130CE09858002802D12000324B9847431C05D065
S1130CF03070000CC0B231002F4B98470137042FDD
S1130D00EBD10023EB602B616B61AB61EB612B6278
S1130D10AB626B620022EB85AB853033EA5401335E
S1130D20EA540133EA540133EA542868184B9847CB
S1130D3004002249224B9847A400224BE55000208E
S1130D401EE0102306930023079303E00323069376
S1130D500023079333680493F3689B4673690393F2
S1130D60337E98462623F35C059373689A46002BDA
S1130D7000D11DE780235B059A4500D101E73EE7DA
S1130D8011B03CBC90469946A246AB46F0BDC04665
S1130D909909000000040040211C0000B11B000060
S1130DA0C9070000451C0000D90500000106000029
S1130DB000200041150800001D1D00001D0F00004B
S1130DC0AD100000103D0020C2791C23002A0ED073
S1130DD0C28D92B2173B002A09D10368DA69002A4E
S1130DE0FCD1198502211A7E0A42FCD00023180086
S1130DF07047C04682791C23002A30D0828D92B27B
S1130E00173B002A2BD10268107E400727D5D369EF
S1130E10002BFCD1538BDBB298061DD0980703D569
S1130E200223538318331AE0580703D5042353834A
S1130E301A3314E0D80703D50123538312330EE089
S1130E40D80603D510235383323308E09B0603D519
S1130E5020235383213302E0138D0B8000231800D9
S1130E607047C046F0B54F4680B482B0040001918B
S1130E701720002A49D0E3790530002B45D0276894
S1130E80FB69002BFCD191460025012620E03A7E27
S1130E90324204D1012B2AD0013B002BF7D16A1C2A
S1130EA092B2019B5B5D6179012902D099B2150070
S1130EB005E0A91C8DB20199895C0902194320003F
S1130EC0144B98474A46013A93B29946002B16D0E0
S1130ED03B7E3342E3D1104BD9E73A7E0A4208D134
S1130EE0012B08D0013B002BF7D100200DE012208C
S1130EF00BE0002009E0122007E0002005E03B7E23
S1130F009B07FAD4044B0221E7E702B004BC9146E4
S1130F10F0BDC046C90D0000FFFF0000F8B5800019
S1130F20604BC5582C68E369002BFCD1237EA67D59
S1130F301E403023EB5C3122AF5C1F40F30722D507
S1130F40EB8D9BB2002B1CD0AA6A1378DBB2511C28
S1130F50A9626979012901D09BB204E051780902A0
S1130F600B430232AA62DB05DB0D2385EB8D013BCB
S1130F709BB2EB85002B06D1013323750133A37596
S1130F8001E001232375B30709D502232375002249
S1130F903133EA54FB0702D52800EB6898477307FE
S1130FA060D5AB8D9BB2002B5AD0638BDBB21A0792
S1130FB002D43F22134001E037221340002B2DD0EE
S1130FC09A0705D51A223223EA54303B63831FE083
S1130FD05A0705D51E223223EA542E3B638317E0B9
S1130FE0DA0705D513223223EA54313B63830FE039
S1130FF0DA0605D542223223EA54223B638307E012
S113100020221A4204D021323223EA54123B638351
S11310107B0727D528006B69984723E0238DDB05E0
S1131020DB0DDAB2696A0A706A6A511C696269790D
S1131030012904D11B0A53706B6A01336B62AB8DB7
S1131040013B9BB2AB85002B0CD1043323750022EA
S11310502E33EA54BB0705D528002B69984701E0D5
S113106004232375F30607D5102323752376FB0683
S113107002D52800EB699847B30607D520232375CA
S113108023763B0702D52800AB699847330707D579
S1131090082323752376BB0602D52B6A28009847BC
S11310A0F8BDC046103D00207047C046F0B50A4B5D
S11310B01B78002B0CD1094F094E0A4D0024DE5138
S11310C05A1914600433182BF9D10122024B1A70F7
S11310D08000024BC150F0BDCE000020D0000020A3
S11310E0A9100000103D002010B582B004000622B3
S11310F005496846054B98472000054B98476B46C1
S1131100185602B010BDC04634660000655E00008B
S11311109909000010B5024B1B680020984710BDC8
S1131120D000002010B5024B5B680120984710BD29
S1131130D000002010B5024B9B680220984710BDD8
S1131140D000002010B5024BDB680320984710BD87
S1131150D000002010B5024B1B690420984710BD35
S1131160D000002010B5024B5B690520984710BDE4
S1131170D00000200C4B1B68002B10D1EFF3108320
S1131180002B09D172B6BFF35F8F0022074B1A7090
S11311900132074B1A7002E00022054B1A70024A12
S11311A01368013313607047E80000200800002032
S11311B0EC000020084B1A68013A1A601B68002BE7
S11311C009D1064B1B78002B05D00122044B1A7061
S11311D0BFF35F8F62B67047E8000020EC00002088
S11311E008000020F0B583B001AC0125657000272C
S11311F0A770257021002A20064EB0478022D20015
S1131200054B9A612770657021000220B04703B036
S1131210F0BDC0467D1800008028004000207047C3
S113122010B500230022037043708370C370002143
S113123003830362C36101240471C0246401C48074
S1131240017242728272C27202732A24025542737C
S11312508273C27303610275063C0255C38403851D
S1131260417510BDF0B54F4680B49AB005000C002E
S113127016000800A94B98472C60A94A116A082354
S11312800B43136222780523D20700D5C9E12A68EB
S1131290138C9BB2002BFBD122781C33920700D510
S11312A0BFE173782B71002B04D19E4AD1690433BA
S11312B00B43D3610023AB60EB602B61AB76EB7621
S11312C02B832B778000984BC5502A23F35C002B8B
S11312D005D1337B002B02D101336B7701E000236E
S11312E06B772F6833786A46137069461E208F4BDC
S11312F098471E208E4B9847347960228D4902A866
S11313008D4B9847132C0CD8A40002ABE05801A9CC
S113131000234B70CB708B7001330B70C0B2874BC2
S11313209847F4886022834902A8834B9847132C7A
S11313300CD8A40002ABE05801A900234B70CB7079
S11313408B7001330B70C0B27C4B984700247A4BEE
S113135099460123A34032691A4212D0602275498A
S113136002A8C847132C0CD8A30002AA985801A9B4
S113137000234B70CB708B7001330B70C0B26F4B7A
S113138098470134142CE4D1737B9A01B37BDB01BD
S11313901343DBB23B70337DDB0172781343DBB262
S11313A0BB70F378342B00D93AE19B00644AD358DC
S11313B09F460420102102221AE0727A307A10210A
S11313C016E006201021012212E00820102100223C
S11313D00EE00020302100220AE00020202100221B
S11313E006E000200021002202E002201021012258
S11313F012017023134003433B732A68138C9BB27E
S1131400002BFBD1727D17333F2A00D909E1F37B0E
S1131410DB011A43D2B27A732A68138C9BB2002B75
S1131420FBD1B3787B702423F25CD200337B9B0026
S11314301343F27A1A43B37A5B0013430B437B8161
S11314402A68138C9BB2002BFBD1328B002A00D16B
S113145098E010297AD002D800293ED092E02029C1
S11314601AD0302900D08DE0F37A002B0AD0F1692C
S113147080311723FF2900D9D3E0316A8031FF2955
S113148000D9CEE01723F169FF2900DDC9E0316AF4
S1131490FF2900DDC5E075E0F37A002B12D0F36973
S11314A08020800084466344190017232548814224
S11314B000D9B6E0336A63441900172321488142F6
S11314C000D9AEE017231F49F069884200DDA8E087
S11314D0306A884200DDA4E054E0F37A002B12D095
S11314E0F3698020000184466344190017231648D9
S11314F0814200D995E0336A6344190017231248E6
S1131500814200D98DE017230F49F069884200DD3C
S113151087E0306A884200DD83E033E01D1200007A
S11315200004004000140040283D0020211C00005D
S1131530B11B000010670000655E00001D1D000067
S11315403C660000FF030000FF0F0000F37A002B4D
S113155010D0F369802000028446634419001723E5
S1131560324881425DD8336A6344190017232F48F7
S1131570814256D817232D49F069884251DC306ADC
S113158088424EDC7B891A437A812A68138C9BB289
S1131590002BFBD1B38BFB812A68138C9BB2002BED
S11315A0FBD1338C3B822A68138C9BB2002BFBD17A
S11315B03279F38813433B812A68138C9BB2002B46
S11315C0FBD12A33F35CFB7007233B711D33F35CBF
S11315D0002B19D0F28C172315498A4221D87A821C
S11315E02A68138C9BB2002BFBD1318D80231B0105
S11315F0CA1892B217230E48824212D8B9822A68B6
S1131600138C9BB2002BFBD10A4B1B681902E022FE
S1131610D2000A409B065B0F1343BB85002300E006
S1131620172318001AB004BC9146F0BDFFFF000058
S1131630FF0F00002060800070B52D4B1C682368EC
S11316409D79EDB2EA0735D5E27ED20732D5A27E86
S1131650D2072FD501229A716269931C63612368B2
S11316609B8C9BB21380238B013B9BB22383002B67
S113167015D0637F002B1DD02268D3795BB2002B79
S113168018DB138C9BB2002BFBD1117E02330B436E
S113169013762268138C9BB2002BFBD10AE0237FC4
S11316A0052B07D10023237701332268137120000F
S11316B0A36898476B070BD5042322689371E37ED4
S11316C09B0705D5A37E9B0702D52000E3689847B6
S11316D0AB070BD5022322689371E37E5B0705D524
S11316E0A37E5B0702D523692000984770BDC046DE
S11316F0283D0020931C9B00195001239340827EB7
S1131700134383767047C04610B50400038B9BB225
S11317100520002B1DD1237FD8B2052819D005231D
S1131720237722836161043B22685371637F002025
S1131730002B0ED02268138C9BB2002BFBD1117EA0
S113174002330B4313762268138C9BB2002BFBD11C
S1131750002010BD00B583B001A800230370094B1D
S11317609847094A116A40230B431362074B1978BF
S113177001220A431A70197802220A431A7003B02C
S113178000BDC046351900000004004000180043A5
S11317908023DB0143810023037343738373C37387
S11317A00374437483748022920302604360C023F1
S11317B05B0103817047C046037B5A1E93419B0221
S11317C0427B002A02D0802292001343827B002AAB
S11317D002D0802252001343C27B002A01D080220F
S11317E01343027C002A01D040221343827C002A46
S11317F001D00422134301684268114342890A4319
S1131800417C0A4301890A431343014AD360704768
S113181000180043002805D10A4A516802230B43EB
S113182053600EE0012805D1064A916802230B4358
S1131830936006E0022804D1024AD16802230B43D4
S1131840D360704700180043031E05D10A4B9878F3
S1131850C007C00FC0B20DE0012804D1064B987830
S11318608007C00F06E00020022B03D1024B9878BA
S11318704007C00F7047C0460018004300B583B04E
S113188001AB80221A700A785A704A789A708A7862
S1131890DA701900014B984703B000BD1D1D00000C
S11318A010B5082803D880001C4B1B589F46002005
S11318B032E01B4B18692FE01A4B187D0007800F8C
S11318C00130194B584327E0154B586924E0144B59
S11318D01B68022018401FD0124980225200CB6896
S11318E01342FCD00E4B1B685B0714D500200F4B32
S11318F098470B4B9B681B041B0C58430CE0282394
S1131900084AD35C00209B0706D5054BD86803E042
S11319108020000200E0064810BDC0467067000049
S1131920F0000020000C004000093D00451C0000B0
S1131930006CDC0210B50549CC69027801231A4019
S1131940D203034B23401343CB6110BD001000406E
S1131950FF7FFFFF10B584B0802252002B4B9A60AA
S1131960FD3A2B4B9A602B4A53681E218B435360DC
S11319708023DB059B78022B09D08023DB05012221
S11319809A7101329A701A009379002BFCD01F4B84
S11319901A7D802149420A431A751A7DC0318A434F
S11319A01A751D4B98471D4C0123A3716371237154
S11319B0227804218A43227001A94B6000234B70D2
S11319C006220A700B724B720020154B98470020B8
S11319D0144B98470020144B98472179C9B2134BF4
S11319E09847134B98420ED88023DB059B78002B35
S11319F009D08023DB0501229A7100229A701A0013
S1131A009379002BFCD004B010BDC046000C0040FC
S1131A100014004000400041351A0000000400405A
S1131A20591A0000051B0000451B0000714300000B
S1131A30001BB700064A516940230B43536101223E
S1131A40044B1A7019000B781342FCD17047C0463E
S1131A50000400400018004070B505000C784B7875
S1131A60002B02D08023DB001C434B7A002B02D0D6
S1131A7080231B011C434A68012A17D9531E1A42AA
S1131A800FD1022A06D90223002001305B009A42BA
S1131A90FBD800E0002080235B011C4300040443C6
S1131AA004E0120480239B001A4314430B7A002B96
S1131AB002D080239B011C430426AE400D490E4AEC
S1131AC04B6813401E42FBD10C4B9847AD00094BA9
S1131AD09C466544286A80235B00184020432862A2
S1131AE06146054A4B6813401E42FBD1044B98479C
S1131AF070BDC04600180040FC07000075110000CE
S1131B00B511000010B504000422824009480A49B6
S1131B1043680B401A42FBD1084B9847A400054B7D
S1131B209C466444236A8022520013432362044B7C
S1131B30984710BD00180040FC0700007511000014
S1131B40B5110000F8B5040004228240124813497C
S1131B5043680B401A42FBD1114B98470E4F08348F
S1131B60A400E059C006C00E0E4B98470600E55984
S1131B70ED04ED0FE459240C0B4B9847002D07D1CD
S1131B80012C07D921003000084B9847060001E0DA
S1131B900134E6403000F8BD00180040FC070000A6
S1131BA075110000A1180000B51100007143000078
S1131BB010B50400094B9847A000094B9C466044AB
S1131BC08022815840230B4383508021403A43585C
S1131BD01A42FCD0034B984710BDC0467511000053
S1131BE000180040B511000010B50400094B9847D7
S1131BF0A000094B9C4660448022835840218B43BB
S1131C0083504031403A43581A42FCD1034B984721
S1131C1010BDC0467511000000180040B511000049
S1131C2070B504000D00054B98472B780F22134024
S1131C302034A400024AA35070BDC046E91B000032
S1131C400018004010B50400064B98472034A40047
S1131C50054BE4582407240F044B98472000044BF9
S1131C60984710BD7511000000180040B511000020
S1131C70451B000030B5D378002B1ED11378802B80
S1131C8004D01B0680246402234300E0002354781C
S1131C900225AC430AD19478002C03D18024A402F9
S1131CA0234302E0C024E402234341605478013C0E
S1131CB0012C12D8184C23400FE041600B041B0C7C
S1131CC0A024E405234383620B0CD024240623437D
S1131CD08362D378002B18D01CE00C04240CA025BC
S1131CE0ED052C431C4384620C0CD0252D062C439B
S1131CF01C438462D478002C0CD15B0305D5937803
S1131D00012B01D1816100E041615378013B012B3A
S1131D1000D8816030BDC046FFFFFBFF10B5030053
S1131D200A00C1090020002904D15809C00105494D
S1131D308C4660441F210B401E399940024B984742
S1131D4010BDC04600280040751C00007047C04606
S1131D5010B5054B9847054B9847054B9847054BDD
S1131D609847054B984710BD55190000E511000030
S1131D704D1D00004D1D00004D1D0000FEE7C04636
S1131D8010B51D4B1D4A9A4203D01D4B1A4A9A4264
S1131D9004D31C4B1C4A9A4210D31EE01B4A184B16
S1131DA003339B1A9B0801339B00002212481349FA
S1131DB08C58845004329A42FAD1EAE7144A114BFF
S1131DC003339B1A9B0801339B0000220E48002119
S1131DD01418216004329A42FAD10E4AFF210E4BA4
S1131DE08B4393600D4A516880230B4353600C4B23
S1131DF098470C4B9847FEE7000000200869000054
S1131E00B0000020384E0020B00000200400002064
S1131E10B400002000ED00E000000000004000419C
S1131E20195E0000053A00000300064A1268002A01
S1131E3002D10549034A1160024A1068C3181360AD
S1131E407047C04608010020386E0020012040423F
S1131E507047C04680239B014B6000207047C046FA
S1131E60002070470300083343600122524282601D
S1131E70C3600361002303607047C046002303610D
S1131E807047C04643684B609A688A609A6851609C
S1131E9099600861036801330360704730B50C68CA
S1131EA002000832631C02D1026904E01A0053687C
S1131EB01D68AC42FAD253684B6099608A605160E5
S1131EC0086103680133036030BDC046036942689A
S1131ED0816891608268416851605A68904201D17A
S1131EE082685A60002202611A68501E18607047A6
S1131EF0034B1B68013301D072B6FEE772B6FEE7EE
S1131F000C000020064A13681868203080F3098802
S1131F10022080F314883FBCAE4662B600BDC046C2
S1131F20603C002010B5031F802464041C60043B43
S1131F301960043B02491960143B1A60403810BD13
S1131F40F11E00007047C04680225205034B1A6000
S1131F50BFF34F8FBFF36F8F7047C04604ED00E0AF
S1131F6072B6044A136801331360BFF34F8FBFF393
S1131F706F8F70470C000020064B1B68002B01D1AB
S1131F8072B6FEE7013B034A1360002B00D162B630
S1131F907047C0460C000020EFF3108072B6704703
S1131FA00020C04680F310887047C046EFF30980D4
S1131FB00E4B1A6820381060F0C044464D46564611
S1131FC05F46F0C008B572B600F0DAFE62B60CBC2B
S1131FD0116808681030F0C8A046A946B246BB464E
S1131FE080F309882038F0C81847C046603C0020B8
S1131FF010B5074B98470400064B9847002803D0B8
S113200080225205044B1A602000044B984710BDEF
S1132010991F00007D2A000004ED00E0A51F0000C8
S11320200022044B1A60044A044B1A600722044B32
S11320301A60704718E000E03F1F000014E000E061
S113204010E000E010B50A4B1A68FF2109040A43A6
S11320501A601A68FF2109060A431A60054B98475B
S11320600022054B1A60054B9847054B9847C0461C
S113207020ED00E0212000000C000020051F0000DE
S1132080F11E000070B50400430702D007239C43EF
S11320900834104B9847104B1B68002B05D10722BE
S11320A00E4B083393430C4A13600D4B1B68E41822
S11320B00C4A944207D8A34207D2074A1568ED1880
S11320C0074B1C6002E0002500E00025064B984702
S11320D0280070BD4D2A0000A83B002010010020FC
S11320E00C0100208F3A0000A12B0000002801D031
S11320F072B6FEE77047C04670B504001500026C66
S1132100002A08D10368002B2CD14068174B98474C
S11321100023636026E0002D0DD18068144B98479E
S1132120A368226C94466344A3606268934219D303
S11321302368A36016E0C0680D4B9847236C5B428C
S1132140E268D218E26021688A4203D26268944647
S11321506344E360022D05D1A36B002B02D0A36B73
S1132160013BA363A36B0133A36370BD95300000EF
S1132170655E000010B582B001900A00C46C002CAA
S113218001D172B6FEE7A16BE36B994201D372B63B
S1132190FEE7A16B00208B420DD901A92000074B5B
S11321A098470020636A002B05D020002430044B9C
S11321B09847431E984102B010BDC046F920000064
S11321C0C52E000070B50C00016800290BD0026C0C
S11321D0C3689B18C3604568AB4200D3C160C16843
S11321E02000014B984770BD655E0000F8B50400FF
S11321F0244B9847A36C002B1CDD234D234EE36C2A
S1132200002B07D000212000A84701280CD1204B27
S1132210984709E0636A002B0CD020002430B047B3
S1132220002801D01A4B9847A36C013BA364A36C0C
S1132230002BE4DC01235B42A364164B9847114B4B
S11322409847636C002B16DD2369002B04D112E040
S11322502369002B04D10EE0250010350B4F0C4EE2
S11322602800B847002800D0B047636C013B636482
S1132270636C002BECDC01235B426364054B9847E1
S1132280F8BDC046611F000075210000C52E000086
S1132290DD2F0000791F000070B504000D00002838
S11322A001D172B6FEE7154B98472268216CE36BA7
S11322B04B43D01860600020A063A2605B1AD3185F
S11322C0E36001235B426364A364002D0BD12369A3
S11322D0002B0FD020001030094B9847012809D15A
S11322E0084B984706E020001030074DA84720000F
S11322F02430A847054B9847012070BD611F00009A
S1132300C52E0000491F0000651E0000791F000053
S113231070B505000E00002811D050200E4B9847D0
S1132320041E0CD03000684301300B4B98472060EA
S1132330002806D12000094B984700E0FEE772B65A
S1132340FCE7E563266401212000054B9847002340
S1132350E364200070BDC04685200000ED2000002D
S113236099220000F0B557464E464546E0B484B085
S113237004000F0001921D00002801D172B6FEE78F
S1132380002904D1036C002B01D072B6FEE7022DA4
S113239004D1E36B012B01D072B6FEE7424B9847A0
S11323A0002804D1019B002B03D072B6FEE700265F
S11323B000E000263D4B9846C047A36BE26B934276
S11323C001D3022D1FD12A0039002000384B984731
S11323D0E36C002B08D029002000364B98470128D5
S11323E00DD1354B98470AE0636A002B07D02000D3
S11323F02430324B9847012801D12F4B9847304B5A
S11324009847012049E0019B002B03D12C4B9847AE
S1132410002042E0002E03D102A82A4B984701363F
S1132420274B9847284B9847204B9847636C0133B8
S113243001D100236364A36C013301D10023A3649D
S11324401F4B984701A902A8204B984700281ED18A
S1132450164B9847A36B9A46E36B9946184B9847DB
S1132460CA450ED1200010300199194B984720001D
S1132470184B9847184B984700289DD10E4B984706
S11324809AE72000134B9847134B984794E7200092
S1132490104B9847104B9847002004B01CBC904642
S11324A09946A246F0BDC046F52F0000611F00000A
S11324B0F920000075210000491F0000C52E00000E
S11324C0791F00004D2F00004D2A00006D2F0000E1
S11324D02D2E0000ED210000A12B0000F0B583B0EB
S11324E004000F0016001D00002801D172B6FEE79B
S11324F0002904D1036C002B01D072B6FEE7022D33
S113250038D1E36B012B30D072B6FEE72A003900D4
S113251020001F4B9847A36C01331DD1E36C002BA3
S11325200BD0290020001B4B98470125012829D1F5
S1132530002E16D00123336024E00125636A002BAA
S113254020D020002430144B984700281AD0002EA5
S113255009D00123336015E0A36C0133A364012582
S113256010E001250EE001250CE00C4B984701908A
S1132570A36BCBE7094B98470190A36BE26B9A429C
S1132580C4D800250198064B9847280003B0F0BD35
S1132590F920000075210000C52E0000991F0000DD
S11325A0A51F0000F0B54F464646C0B485B00400F0
S11325B00E0001921F00002801D172B6FEE7002927
S11325C004D1036C002B01D072B6FEE74A4B984746
S11325D0002804D1019B002B03D072B6FEE700252E
S11325E000E00025454B9846C047A36B002B2BD039
S11325F0E56831002000424B9847002F14D1A36BAB
S1132600013BA3632368002B02D13E4B98476060D3
S11326102369002B14D0200010303B4B984701282D
S11326200ED13A4B98470BE0E560636A002B07D064
S113263020002430344B9847002801D0334B98476E
S1132640334B9847012052E0019B002B03D1304BC0
S1132650984700204BE0002D03D102A82D4B98474A
S113266001352B4B98472C4B9847244B9847636C68
S1132670013301D100236364A36C013301D100232E
S1132680A364234B984701A902A8244B9847002828
S113269027D11A4B9847A36B99461D4B98474B4635
S11326A0002B18D12368002B06D1144B984760687F
S11326B01B4B9847164B9847200024300199194B1F
S11326C098472000184B9847184B984700288BD1FF
S11326D00E4B984788E72000134B9847134B9847B5
S11326E082E72000104B9847104B9847002005B014
S11326F00CBC90469946F0BDF52F0000611F000008
S1132700C5210000E92F0000C52E0000491F00006C
S1132710791F00004D2F00004D2A00006D2F00008E
S1132720153000002D2E0000ED210000A12B00002B
S113273070B504000D000D4B9847636C013301D153
S113274000236364A36C013301D10023A364084B09
S11327509847A36B002B04D1200024302900054B9B
S113276098472000044B984770BDC046611F000085
S1132770791F0000852E0000ED210000084B1B6826
S11327801B68002B04D101225242064B1A6006E05A
S1132790034B1B68DB68DB685A68024B1A6070479E
S11327A0B03B00201000002010B5041E0E4B1B6827
S11327B058600E4B1B689C4207D20D4B18680A4B9D
S11327C0196804310B4B98470CE00B4B1868064B07
S11327D019680431074B9847084B1B689C4201D287
S11327E0064B1C6010BDC046603C00207C3C0020B1
S11327F0803C00209D1E0000B03B00201000002003
S1132800F0B54F464646C0B485B002900F0016009E
S113281003930C9C002801D172B6FEE7042C01D965
S113282072B6FEE740205A4B9847051E00D1A8E037
S11328300E9B002B00D0A1E0B000554B98472863B5
S1132840002803D12800534B98479AE0524BF318C1
S11328509B002A6B944663440722934398463A7834
S11328603423EA543B78002B0DD07A1C2B003533EB
S113287029003C31107818701078002803D00132F8
S113288001339942F6D100223B23EA54271E042F38
S113289000D90427EF62EF632B1D019318003F4E0C
S11328A0B04728001830B0472D610523DB1BAB610E
S11328B06D62039A02994046394B984728600D9BF4
S11328C0002B00D01D60374B9847374A13680133FB
S11328D01360364B1B68002B22D1344B1D601368E8
S11328E0012B28D1324E63339946B144314F300025
S11328F0B84714364E45FAD12F4B994618002D4E41
S1132900B0472E4F3800B0472D48B0472D48B04748
S11329102D48B0472D4B4A461A602D4B1F600AE0E4
S11329202C4B1B68002B06D1204B1B68DB6A9C4296
S113293001D31E4B1D60284A136801331360EB6AF0
S1132940264A1268934201D9244A13609800C31896
S11329509B001748C0180199214B9847214B984771
S11329601C4B1B680120002B0DD0104B1B68DB6A2D
S11329709C4208D91C4B9847012004E00E9B03633A
S113298064E70120404205B00CBC90469946F0BD76
S113299085200000ED200000FFFFFF3F7D1E0000AA
S11329A0251F0000611F0000883C0020603C0020BF
S11329B0E83B0020651E0000BC3B0020D03B00200B
S11329C0643C00204C3C00208C3C0020B03B0020A8
S11329D0803C0020B43B0020843C0020A03C00202C
S11329E0851E0000791F0000491F000010B584B047
S11329F00023039302930193009364220C490D482E
S1132A000D4CA04701280DD10C4B9847012809D142
S1132A1072B601220A4B1A6000220A4B1A600A4B52
S1132A20984703E0002801D172B6FEE704B010BD58
S1132A3094670000F52C0000012800009931000083
S1132A40B43B00207C3C002045200000024A13686F
S1132A50013313607047C046783C002010B5044B26
S1132A609847044B1C68044B9847200010BDC0468F
S1132A70611F00007C3C0020791F0000F0B583B08A
S1132A80394B1B68002B62D1384B1A6801321A602B
S1132A901C68002C12D1364B1B681B68002B01D01C
S1132AA072B6FEE7324A1168324B1868106019603A
S1132AB0314A136801331360304B9847304B1B681D
S1132AC000269C4237D30026294D2B681B68002B17
S1132AD004D1012252422A4B1A602CE0244B1B6879
S1132AE0DB68DF687B689C4202D2254A136022E0DF
S1132AF03B1D01931800234B9847BB6A002B03D05E
S1132B00380018301F4B9847FB6A1F4A12689342DB
S1132B1001D91D4A13609800C3189B001B48C018B4
S1132B2001991B4B98471B4B1B68FA6ADB6A9A4254
S1132B30CBD30126C9E7174B1B68DB6A9A00D3186D
S1132B409B00124A9B58012B06D9012604E0124A25
S1132B501368013313600026104B1B68002B00D050
S1132B600126300003B0F0BD783C00207C3C0020FE
S1132B70B03B0020803C0020AC3B00207D270000BF
S1132B8010000020CD1E0000A03C0020E83B0020E7
S1132B90851E0000603C0020E43B0020A43C002093
S1132BA0F8B52F4B1B68002B01D172B6FEE72D4BF5
S1132BB098472B4B1A68013A1A601B680024002BB3
S1132BC04AD1294B1B68002B23D145E0FB68DE6802
S1132BD030001830254B9847351D2800234B984763
S1132BE0F36A234A1268934201D9214A1360980078
S1132BF0C3189B001F48C01829001F4B98471F4B40
S1132C001B68F26ADB6A9A4205D301221C4B1A60E4
S1132C1001E01C4C27002368002BD7D11A4B1B68FA
S1132C20002B11D0184B1B68002B0DD0174E144DE0
S1132C30154CB047002801D001232B602368013BC9
S1132C4023602368002BF4D10D4B1B680024012B57
S1132C5002D10F4B984701340E4B98472000F8BD22
S1132C60783C0020611F0000883C0020CD1E00003D
S1132C70A03C0020E83B0020851E0000603C0020B2
S1132C80A43C0020643C0020E43B00207D2A00009A
S1132C90491F0000791F000010B5041E16D00D4B0B
S1132CA01B68002B01D072B6FEE70B4B98470B4B09
S1132CB01B68E4180A4B186804300A4B9847200034
S1132CC0094B9847094B9847002801D1084B98476E
S1132CD010BDC046783C00204D2A00007C3C0020FA
S1132CE0603C0020CD1E0000A9270000A12B00009D
S1132CF0491F0000F0B5474680B4164D164F174ED5
S1132D001DE0B8473468164B9847002C17D0154B74
S1132D109847124BDB68DC68201D134B9847134A15
S1132D201368013B13600B4A1368013B1360104B9B
S1132D309847206B0F4B984698472000C0472B6854
S1132D40002BDED10C4B1B68012BF8D90B4B984799
S1132D50F5E7C046B83B00204D2A00004C3C00205B
S1132D60A12B0000611F0000CD1E0000883C002044
S1132D70791F0000ED200000E83B0020491F0000FF
S1132D8010B5254B1B68002B03D00122234B1A607E
S1132D9041E00022214B1A60214B1B689A00D31892
S1132DA09B00204A9B58002B16D11D4B1B68002BFF
S1132DB006D01B4A1B4C100004E00368002B01D111
S1132DC072B6FEE71368013B136013689900CB18D1
S1132DD09B001B59002BF0D0114B1B68114C9A001F
S1132DE0D11889006118486840684860D218920078
S1132DF00832A218904205D141689A00D218920074
S1132E00A21851609A00D3189B00064AD3185B6835
S1132E10DA68054B1A6010BD783C0020A43C002001
S1132E20A03C0020E83B0020603C002070B50C0072
S1132E30002801D172B6FEE70B4D296818310B4BFF
S1132E409847286804300A4B9847631C06D1064B00
S1132E50196804310748084B984704E0074B186881
S1132E602018074B984770BD603C00209D1E000051
S1132E70CD1E00008C3C0020851E00007C3C002000
S1132E80A927000070B50C00002801D172B6FEE736
S1132E90074D29681831074B984728680430064BBA
S1132EA09847064B18680019054B984770BDC046F3
S1132EB0603C0020851E0000CD1E00007C3C0020EC
S1132EC0A927000070B5C368DD68002D01D172B672
S1132ED0FEE72C0018342000144B9847144B1B6851
S1132EE0002B13D12C1D2000104B9847EB6A114A7C
S1132EF01268934201D90F4A13609800C3189B00CB
S1132F000D48C01821000D4B984703E021000C48E0
S1132F100A4B98470B4B1B68EA6ADB6A00209A420B
S1132F2003D90122084B1A60013070BDCD1E000088
S1132F30783C0020A03C0020E83B0020851E0000D7
S1132F40643C0020603C0020A43C0020002801D107
S1132F5072B6FEE7034B1B680360034B1B684360B8
S1132F607047C046AC3B00207C3C002070B5040098
S1132F700E00002801D172B6FEE7002901D172B615
S1132F80FEE7114B9847114B196833685A1C15D04A
S1132F900F4A12682068904203D00125626891426A
S1132FA00DD26268881A0125834208D9521AD318AF
S1132FB033602000074B9847002500E00025064BAE
S1132FC09847280070BDC046611F00007C3C00206B
S1132FD0AC3B00204D2F0000791F00000122014B63
S1132FE01A607047A43C0020014B18687047C04623
S1132FF0603C0020054B1B680120002B04D0044BCF
S113300018684342584140007047C046B43B002012
S1133010783C002070B5041E31D0C36A184A126887
S1133020D26A93422BD28269002A05DB144A1268C1
S1133030D16A0522521A82619A00D3189B00114A60
S1133040D31862699A4216D1251D28000E4B984761
S11330500B4B1B68DB6AE3620C4A1268934201D98A
S11330600A4A13609800C3189B000648C018290038
S1133070074B984703E0024B1B68DB6AE36270BDB1
S1133080603C0020E83B0020CD1E0000A03C002056
S1133090851E000070B5051E1DD0C36AC26B934225
S11330A019D0041D20000C4B9847E86BE862AB690B
S11330B0002B02DB05231B1AAB61084B1B689842EB
S11330C001D9064B1860830018188000044B1818A7
S11330D02100044B984770BDCD1E0000A03C002089
S11330E0E83B0020851E000010B54160006191425C
S11330F00BD8D21A012483699A4211D2011D094BBB
S11331001868094B984700240AE09A4202D2012425
S1133110994205D2011D054B1868034B98470024BA
S1133120200010BDDC3C00209D1E0000A83C0020B7
S113313070B5104B9847104B1B68002B16D10F4DE0
S113314028000F4EB0470F4C2000B0470E4B1D60B7
S11331500E4B1C6000220C2102200D4B98470028C6
S113316002D0054B186001E072B6FEE7094B9847A0
S113317070BDC046611F0000D83C0020AC3C00205C
S1133180651E0000C03C0020A83C0020DC3C002060
S113319011230000791F000010B584B00B4B984731
S11331A00B4B1B68002B0DD0002303930293019358
S11331B0023300930023502206490748074CA047D6
S11331C0002801D172B6FEE704B010BD3131000011
S11331D0D83C0020C467000001330000012800002F
S11331E030B585B01D00134B1C68002C1FD0019115
S11331F002920390052913DC0F4B9847022807D14C
S11332000C4B18680023089A01A90C4CA0470FE046
S1133210084B18680023002201A9084CA04707E0C6
S113322000232A0001A92000054CA04700E000204B
S113323005B030BDD83C0020F52F00006523000008
S1133240DD240000F0B557464E464546E0B482B052
S11332508146244B98478046234B1B68984233D2BF
S113326023E0DB681A689246DC68251D2800B8470D
S11332702000636A9847E369012B18D1A36953447A
S11332809A4507D263602461184B18682900184BCB
S113329098470CE000230093524600212000154C6F
S11332A0A047002803D172B6FEE7104E124F3368D0
S11332B01A68002AD5D1114A0C49106808601360B5
S11332C001234A46136002E000234A461360064B7A
S11332D042461A60404602B01CBC90469946A2463B
S11332E0F0BDC0465D2A0000D43C0020A83C00206C
S11332F09D1E0000E1310000CD1E0000DC3C0020DA
S1133300F0B55F4656464D464446F0B489B0524B3C
S11333109B46524B9946524B98465B461B681A682B
S1133320002A00D18FE0DB681D684C4B984705A844
S11333304B4B98470400059B002B31D1854223D881
S1133340484B9847444B1B68DB68DE68301D464B8E
S11333509847F369012B13D1B369E9182B002200B4
S11333603000424CA04701280AD1002300932A00D0
S1133370002130003E4CA047002801D172B6FEE780
S1133380736A300098470DE0291B3A4B18683A4B92
S11333909847344B9847002804D1384B984701E0AC
S11333A0304B9847334D364C45E0059B0393002B37
S11333B041DB079E7369002B02D0301D2A4B9847CE
S11333C004A8274B9847059B092B34D89B002D4A0A
S11333D0D3589F46069BB269944663441900069BE2
S11333E002003000214FB847012824D13000736A0D
S11333F09847F369012B1ED1069BB1698C4663443F
S11334001A000023009300213000194EB047002811
S113341011D172B6FEE70699B161002901D172B6E5
S1133420FEE74118030002003000104EB04702E0EE
S11334303000154B98470023002205A92868A047AF
S11334400028B2D169E7C84705A8C0470400002591
S1133450059B002B98D0A3E7A83C00204D2A000030
S113346045320000A12B0000CD1E0000E930000011
S1133470E1310000D83C002031270000491F000042
S1133480A52500009C670000ED2000000122014BEF
S11334901A707047FA3C00203B4A13008033022123
S11334A059618021090251618021090159618021FA
S11334B009055161802149025161802292025A61B9
S11334C08022D2035A61802212045A61FF2802D951
S11334D002229A6102E002222C4B5A612C4B984240
S11334E004D980221202284B9A6103E0802212023E
S11334F0254B5A61274B984204D980221201234B51
S11335009A6103E080221201204B5A61224B9842B7
S113351004D9802212051C4B9A6103E08022120513
S1133520194B5A611D4B984204D980225202164B02
S11335309A6103E080225202134B5A61184B98425D
S113354004D980229202114B9A6103E080229202F4
S11335500E4B5A61134B984204D98022D2030B4B71
S11335609A6103E08022D203084B5A610E4B9842C1
S113357004D980221204054B9A6103E080221204CC
S1133580024B5A617047C046002800408028004022
S1133590FF010000FF020000FF030000FF04000021
S11335A0FF050000FF060000FF070000F0B54746D6
S11335B080B484B00822002101A8594B9847002404
S11335C0584F594E594B98469DE00F236B441B7836
S11335D0402B00D08EE001AD2B5508222900544821
S11335E0544B98472B78232B7DD101ABDB79402BAF
S11335F079D18022D200504BDA6101AB5B78522B37
S113360002D0572B2CD06EE001AB9B784B4A12783A
S11336109A420DD146498B70AA23CB7011330B719A
S113362008224748474B98471920474B98475AE088
S1133630424A52789A4256D13D498B70434B1B887B
S1133640CB701B0A0B7100234B71414B1B788B71A0
S113365008223B483B4B984719203B4B984742E094
S113366001AB9B78354A92789A4211D101AA137919
S11336701B02D2781343374A1380374A1360082257
S11336802B492F482F4B984719202F4B98472AE056
S11336902A4AD2789A420FD101AA13791B02D2780E
S11336A013432E4A1380082221492548254B984765
S11336B01920254B984716E0204A12799A4212D1D4
S11336C001ABDB78264A12789A4204D0244A13705C
S11336D00122244B1A70082215491948194B98479E
S11336E01920194B98470822002101A80C4B984730
S11336F0002404E0072C02D801AA13550134002247
S11337000F236B441A70002300220F216944386888
S1133710B047002800D058E70A30C047F3E7C04656
S1133720775E0000EC3C0020A5250000992C0000E9
S1133730783D0020655E00008028004044000020A1
S1133740443D0020650E0000AD050000F83C00205B
S1133750FB3C0020E03C002040000020EA3C00202C
S113376014000020F03C002010B5154AD369002B4A
S1133770FCD1134B1B7EDBB2124A13805B071ED5B0
S11337800F4B5A8BD2B23F2313400F490B7006D014
S11337900623134213D00622094B5A830FE0084B29
S11337A01B8D0A49DB05DB0D0B80094A13680133C5
S11337B01360084B186800230022074CA04710BD73
S11337C000040042423D0020FC450020F04500205A
S11337D0E43C0020EC3C0020DD24000070B582B005
S11337E005000E0000226B46DA80064C6B46991DDC
S11337F02800A0470028F9D16B4606331B88337094
S113380002B070BDF50D000070B505008CB2034E1A
S113381021002800B0470028FAD170BDC90D00006E
S113382030B587B00500144B984701AC2000134B0A
S1133830984780235B03019300226260C0235B01ED
S11338402381658101232373A373A37469464A709A
S11338508B70CA700B700520094B98472000094BE8
S113386098470220084B9847084C0220A04700289C
S1133870FBD007B030BDC0465517000091170000BB
S11338801D1D0000B917000015180000491800009C
S113389030B58DB001AC2000114B98470723A370BD
S11338A0183323710F4D22000F4928000F4B9847FE
S11338B02A68138C9BB2002BFBD18021C9030C4BCB
S11338C019600723137193711178053B0B4313702F
S11338D0044B1A68138C9BB2002BFBD10DB030BD86
S11338E02112000004460020000C00436512000071
S11338F000E100E010B5054C002205492000054B0D
S11339009847E27E01231343E37610BD044600206A
S11339108D340000F516000000B583B001A8044BF7
S1133920984701AA03490448044B984703B000BDD3
S11339302101000000300042A84100202D010000B8
S113394010B582B06846074B9847074C6A46002179
S11339502000064B984700212000054B984702B0F1
S113396010BDC046DD010000A8410020ED010000AB
S11339705D02000010B58EB001AA642301931C4BB4
S113398053600023936013731376802189031161BC
S1133990012149429182D3611362253153549362C8
S11339A0083153540131535401315354D7331386DE
S11339B0104BD382104C11492000114B98472268B8
S11339C00721D3691942FCD1116802230B43136008
S11339D0094BDC880023102005E00133A34202D305
S11339E01023538302E0518B0142F6D00EB010BD78
S11339F0480D000010270000E445002000080042A4
S1133A00AD020000F0B55F4656464D464446F0B45C
S1133A1095B0B64B984780200002B54B9847B54BFC
S1133A209847B54B9847B54B9847B54B9847B54C15
S1133A302000B54B9847BF2200212000B34B984784
S1133A40B34B984704AA8023DB05049300235360F7
S1133A50FF21118100219372D37201242420145474
S1133A60013014540130135401301354936205305F
S1133A7013540130135453611382D37611761177A2
S1133A805176132393765177E1235B021362C423A7
S1133A909B03D36001235B42136353639D4B936386
S1133AA09D4BD3639D4D9E4B1D609E499E4B19605B
S1133AB09E499F4B19609F4928009F4B98479F4EF2
S1133AC03368986800219E4FB847336858680021CE
S1133AD0B84798489B4B98479B499C4B98472E68FE
S1133AE030009B4B98471F2318408440994B1C601F
S1133AF02B68DA69002AFCD132680223134333604D
S1133B00864B1B68DA69002AFCD15A688021490275
S1133B100A435A600121814AD171DA69002AFCD131
S1133B20DA69002AFCD15A68802189020A435A6062
S1133B3001217A4A9171DA69002AFCD104327D4B61
S1133B409A75854B9847854D2E0080368023DB007F
S1133B509846F361824C01239A4663700023994688
S1133B60A37053462370210021207E4FB8472100C3
S1133B700F20B84721002B20B84721001B20B8474D
S1133B8021001020B84721003120B84721003620F9
S1133B90B84721003720B8470223B36180231B02B2
S1133BA0AB6180231B01B36180231B05AB618023C0
S1133BB05B02AB6180239B02B3618023DB03B361AF
S1133BC080231B04B36180204000674DA847642014
S1133BD0664CA04780208000A8476420A047C020EE
S1133BE08000A8476420A0474046A8476420A04717
S1133BF0A020C000A8476420A047C020C000A84758
S1133C006420A047E020C000A8476420A04780208B
S1133C100001A8476420A0474346F36180235B006A
S1133C200093534B534A14215348544FB847544BB1
S1133C30187080200001A8476420A047E020C0003D
S1133C40A8476420A047C020C000A8476420A0471C
S1133C50A020C000A8476420A0474046A84764208D
S1133C60A047C0208000A8476420A047802080008F
S1133C70A8476420A04780204000A8476420A047AC
S1133C804346F3616420A0474346F3616420A047A0
S1133C904346F3616420A0474346F36100220121B7
S1133CA04020384B9847384B18604B460393029397
S1133CB00193023300930023642234493448354C81
S1133CC0A0474B460393029301935346009300236A
S1133CD0642231493148A047314B52461A70BFF330
S1133CE05F8F62B62F4B9847FEE7C046511D000018
S1133CF02138000091380000F5380000193900001F
S1133D0041390000A84100208D0100006D0200002F
S1133D10753900000200120002001300443D002027
S1133D200C3D002009380000083D0020DD3700006C
S1133D30043D002000040042650A0000AC0000209D
S1133D40875E00009909000069370000AD1000008B
S1133D50E910000000E100E06D05000000280040CB
S1133D60004600207D18000099340000AD050000D5
S1133D70B041002018000020D8430020D93E0000A4
S1133D80244E002011230000EC3C0020F0670000CA
S1133D90E13D000001280000F8670000AD35000097
S1133DA008000020ED29000070B500220A4B1A60BB
S1133DB000290CD003004D0045190020064E1C8834
S1133DC00019013232600233AB42F8D100E0002026
S1133DD0024B984780B270BDF43C00207143000050
S1133DE0F8B52A4E32882A492A482B4B98472B4B40
S1133DF01B78002B1FD00022284B1A70234C284F0D
S1133E0023683A0022492748274DA84721683800EB
S1133E10264B9847264B1880264B9847264B1A88E2
S1133E20264B1B889A4203D90122254B1A7002E0C3
S1133E300022234B1A70234B1B78002B22D0224BD9
S1133E401A78082A18D89300204AD3589F4680200D
S1133E50800112E08020C0010FE0C020C0010CE00E
S1133E608020000209E0A020000206E0C020000239
S1133E7003E0E020000200E00020154B98470022F8
S1133E80104B1A703220134B9847ABE740000020C8
S1133E90E44300200446002009170000FA3C0020F7
S1133EA0983F0020D8430020013F0000A93D0000B6
S1133EB0F83C002099340000E83C0020EA3C002053
S1133EC0FB3C0020F03C002014000020CC670000E4
S1133ED021380000992C000038B51D1C041C0180F9
S1133EE08260064B0498C21851184A00281C00210D
S1133EF001F0C1FF6560002038BDC046FFFFFF7FB1
S1133F00F0B55F464D4644465646F0B49FB01A900D
S1133F101A9CE44D24881D9315911A9940686319DD
S1133F201D9F89685B00C318BF081B9212901191F2
S1133F30199414931C9700D14CE11A1C0323A00874
S1133F401C400D1CC3001390169415991B9C1298C9
S1133F50ED1808330B910C920E9417950F970D9052
S1133F6018930B990C9A0B880D9C13804B88139D06
S1133F7053808B889380CB880D99D38008686368BD
S1133F800831804610918C469B46002D00D1D1E12A
S1133F900020434600211B1408904046060C0027CD
S1133FA000229A46119C03950991454659460A9761
S1133FB007922FB2321C0D0450465B466646B94642
S1133FC00490AB46271C94463D68049C2AB2019297
S1133FD0291402910A1C0199484662434143079DF2
S1133FE06446AA1852185D46191492461AB28946B4
S1133FF09046290C22040A43944632681B0C11048F
S1134000090C1B040B4318140590786819B2069127
S11340104B4601144B4300B2444644439A4454442F
S1134020029D07944C466C43A146089C4546A14416
S1134030019C73686543A846151414B204954D4356
S1134040C844A1464443AB46A246D844D04445465E
S113405064460895019D24146C43A046099C65465A
S1134060A044029C2DB26543AC46059D069C454385
S11340704C43AA46C444D444A046C4446546140CE4
S113408009951D04A446AB4624042D0C2C43A046DC
S1134090059D019C083665430A9C08376419A246AD
S11340A0029D069C6C434546A2442C1460432DB2E9
S11340B04D43504445190A95039D013D0395002D38
S11340C082D10D9F9B46BC46189F179B9046BC44CB
S11340D0169D002D30D01B68474619143E141BB2A0
S11340E03AB24E435A430798089C8619B21807926D
S11340F05A4616144E4312B25A43A619B218380C33
S11341005F4608923A040004120C02431014584308
S1134110099C12B265462018161C3C0C2A882404FB
S113412014432214534324B24E434C430A9F86192A
S1134130FB181C1909960A940798C613002E00DC74
S1134140F2E059498E4200DD0E1C099C33041B0C1D
S1134150E613002E00DCC7E0534DAE4200DD2E1CFA
S113416036040E9808991E430660CE13002E00DC18
S1134170C8E04D4A964200DD161C0A9C3604360CF3
S1134180E013002800DCC9E0474DA84200DD281CEC
S1134190000406430F9A0E980B9B0C9C10994660E2
S11341A0013A0833083408300D910F920B930C94A4
S11341B00E90002A00D0D4E61C9D149F15981B99DC
S11341C0129AEB00FF18C018C918D218149715904A
S11341D01B9112921D9C03231C40A04638D0199DAC
S11341E0324F6D0830481B99AA46D346261C002539
S11341F0B94684468A46159C1298635B149F119AAB
S11342007B5359464319039500200025575F002529
S11342105C5F01397C4320180227DC5F0225575F6D
S113422004337C43043220180029EED1039DC013CB
S1134230002855DD604500DD1B485746013E785394
S11342400235002ED7D1129940464300C918129165
S1134250199E1A9C013E6268B5082ED0129900235B
S113426008311F1C101C129C8A425F410830022135
S113427084425B41A94289413B434942194263D08C
S1134280231C13439F075FD100230021201CC41863
S11342906768C4580131D450D41867600833A94200
S11342A0F5D105E0FFFFFF7FFF7F00000080FFFFE7
S11342B01298ED0040195219129003213140002345
S11342C0002906D0129CE05A0139D0520233002949
S11342D0F9D11FB03CBC90469946A246AB46F0BD0E
S11342E04845AADA2148A8E7204FBE4200DB37E759
S11342F03E1C36040E9808991E430660CE13002E09
S113430000DD36E7194B9E4200DB36E71E1C0A9C93
S11343103604360CE013002800DD35E7134FB842AD
S113432000DB35E7381C33E7104A964200DB0CE724
S1134330161C0AE70020002100220024119B0A9089
S1134340089109920794C3E6129B111C281C1C882F
S113435001380C805C884C809C888C80DC88083315
S1134360CC8008310028F2D1A2E7C0460080FFFFCC
S1134370002243088B4274D303098B425FD3030AA0
S11343808B4244D3030B8B4228D3030C8B420DD3B3
S1134390FF22090212BA030C8B4202D31212090241
S11343A065D0030B8B4219D300E0090AC30B8B427F
S11343B001D3CB03C01A5241830B8B4201D38B032D
S11343C0C01A5241430B8B4201D34B03C01A5241D2
S11343D0030B8B4201D30B03C01A5241C30A8B4215
S11343E001D3CB02C01A5241830A8B4201D38B0200
S11343F0C01A5241430A8B4201D34B02C01A5241A4
S1134400030A8B4201D30B02C01A5241CDD2C30915
S11344108B4201D3CB01C01A524183098B4201D391
S11344208B01C01A524143098B4201D34B01C01A7C
S1134430524103098B4201D30B01C01A5241C308F4
S11344408B4201D3CB00C01A524183088B4201D363
S11344508B00C01A524143088B4201D34B00C01A4F
S11344605241411A00D20146524110467047FFE7BB
S113447001B5002000F006F802BDC0460029F7D0BF
S113448076E770477047C046F0B54F464646C0B41D
S11344901604360C9946330005042C0C070C150C35
S11344A063437E436F4365431C0CAD1964199C46FA
S11344B0A64203D980235B02984647446346250CF1
S11344C0EF191D044B464A4343432D0C240464193D
S11344D09918C91920000CBC90469946F0BDC046F5
S11344E0F8B556465F464D464446F0B40F00FD0FFE
S11344F0AA4609037C002E005F00450F490A7F0D80
S11345002943C5001803BC46400A570F640DDB0F4E
S11345103843D2009A4500D1AAE06646A61B002E75
S113452000DCFFE06346002B39D10300134300D0C5
S1134530D9E06B0709D00F232B40042B05D02B1D8A
S1134540AB42AD416D4249191D000B0200D482E01B
S1134550CA4B01349C4200D1FEE00A005646C84BC7
S1134560ED081A405007640552020543120B640D0E
S1134570002112030B0D1B056405120B1A4363087B
S1134580C04CF60714401C436400640834432800FC
S113459021003CBC90469946A246AB46F8BDB74BB9
S11345A09C42C6D080231B041843382E00DDEBE068
S11345B01F2E00DD1EE120239B1B9C460300674643
S11345C0BB40984613004746F3403B436746BA4016
S11345D0571EBA4113430200F240EB1A9D42B64102
S11345E01D008A1A7642911B0B0231D54A02560AE3
S11345F0002E00D1B4E0300001F0F0FB0300083BD2
S11346001F2B00DDB5E020222900D21AD1409E40A4
S11346100A009D4032439C4200DDB1E01C1B631C38
S11346201F2B00DDD5E0202114002800C91A8C407E
S1134630D8408D400443DA40681E8541110025436B
S1134640002476E74146314300D134E23100454647
S11346506B0700D06FE756464807ED08C9080543C5
S1134660864B9C4235D00A036405120B640D7FE728
S11346706346E31A9B46002B00DC8BE06746002F61
S11346803CD07E4FBC4200D153E780273F043843DF
S11346905B46382B00DCF7E00243501E82410020C9
S11346A0D2B253194218AB4289411D0049428918BC
S11346B00B02CDD5714B01349C4200D13DE1012068
S11346C06F4A6B080A4028401843D5070543510830
S11346D02FE72B000B4300D1CBE180231B030B43BB
S11346E01A03120B44E7013E002E6DD1AE1AB542F7
S11346F09B41091A5B42C91A350075E70700174345
S113470000D116E701235B429C46E3445B46002B41
S113471000D0E0E0AA18AA429B4109185B4259184C
S11347201500C5E7002E75D1661C7605760D012EA1
S113473000DCF3E0AE1AB0464545BF410E1A7F4295
S1134740F61B370200D48FE0551BAA42B641411A2A
S113475076428E1B9A464BE756460022002507E711
S1134760280001F03BFB20300300083B1F2B00DC3A
S113477049E72A002838824000259C4200DC4DE7A6
S11347803F49E41A1140D4E60243501E8241D3B299
S1134790002222E7002B00D0F3E0631C9C465B055B
S11347A05B0D012B00DC9FE0344B9C4500D1C3E042
S11347B0AA180918AA42804140424118CD0752085C
S11347C0154349086446B4E62C4B9C4200D0ECE601
S11347D0AFE611001F3CE1400C00202B00D17FE02C
S11347E04021CB1A9A4015436A1E95410021254366
S11347F000242DE733000700203BDF403B00202E40
S113480070D04027BE1BB0400243501E8241134368
S11348100022E2E6002C4FD0184CA44500D1ABE0B6
S11348208024240476422143382E00DDDFE01F2E4D
S113483000DD43E12027BC1BA1460C004F46BC40D1
S1134840A0462C004746F4403C434F46BD406F1EF3
S1134850BD41F1402C43151BAA429241411A5242D8
S1134860891A64469A46BFE641464546314300D01C
S1134870BEE6002600240025F2E6C046FF0700003D
S1134880FFFF7FFFFFFF0F801F2B59DC2027FF1A3C
S1134890BC46070063469F405B46B9461700DF40AD
S11348A0B8464F4643461F4363469A40531E9A41B7
S11348B05B463A43D840F4E60C002C435CD0F64304
S11348C0002E55D1551BAA42A441411A6442091B2A
S11348D09A46644688E6964FBC4200D0D8E628E65D
S11348E0002280E700208FE70B002B43002C00D030
S11348F0C2E0002B00D101E10300134300D118E60C
S1134900AB18AB42B6410918764271180A0200D4BA
S113491009E1884A1D00114064460AE6002C5BD177
S11349200E002E4300D08AE00100114300D1C2E002
S1134930010015009A46FCE56446002100258FE637
S113494020235B429C46DC4463460700DF405B4611
S1134950BC46202B00D1ACE040235F46DB1B9840D3
S11349600243501E8241634613431A00002098E616
S11349706F4CA44500D057E70100150064469A46E1
S1134980D7E5002C39D10C002C436ED0DB43002B2F
S11349901AD0674CA44568D0382B00DDA4E01F2B47
S11349A000DDAEE020240F00E41AA740B9462F0032
S11349B0DF40B846A3464F46444627435C46A540DD
S11349C06C1EA541D9403D43AD1895429B41091841
S11349D05B42591864466BE60C002C4315D1010068
S11349E011437BD0010015009A46514CA1E50D43BB
S11349F0691E8D410021ECB22DE74D4CA44534D005
S1134A00802424045B422143C6E7040014434ED0AF
S1134A10ED084C072C438025C9082D03294208D0F2
S1134A20C6082E4205D1D208410711430C009A460C
S1134A303100620FC900E50011433D4C79E50600E1
S1134A40164300D175E5AE1AB0464545BF410E1A6E
S1134A507F42F61B370200D4F4E5551BAA42B64147
S1134A60411A7642891B9A4663E5010015006446A3
S1134A705FE5002200257BE5002B3BD003001343B8
S1134A8015D0ED084B072B438025C9082D03294277
S1134A9007D0C4082C4204D141070B002100D208DE
S1134AA01343C9005A0F1143DD00214C41E5204C4A
S1134AB03FE5002054E700260025D1E534000F002F
S1134AC0203CE7403C00202E2BD04027BE1BB140A9
S1134AD00D43691E8D4100212C43BCE68021002634
S1134AE00903134C0025BBE50D43691E8D410021CC
S1134AF0EDB269E7010015000D4C1AE5010015003F
S1134B0017E51C000F00203CE7403C00202B0CD094
S1134B104027FB1A99400D43691E8D41002125430E
S1134B2052E70021D4E71D0092E50021F3E7C046D7
S1134B30FF070000FFFF7FFFF0B556464D46444691
S1134B405F46F0B41D000E034C00CB0F87B0070086
S1134B5092468146360B640D98466AD06D4B9C4252
S1134B6035D08022430F12041343F6001E43C300C2
S1134B709946694B00279C460023644402932B0307
S1134B8068001B0BED0F51469B46400D009500D16C
S1134B9078E0604B98426CD05B46DA004B0F802182
S1134BA009040B4313439B465346D9005A4B9C4676
S1134BB0002360444246201A6A40924601901F43F3
S1134BC00F2F00D9B0E05548BF00C059874637437E
S1134BD000D088E000239946023308270026029378
S1134BE0CDE74346B34649460093029B009A92465A
S1134BF0022B00D0BFE10021534601220026894642
S1134C001A40444B002136030C0D2405360B264371
S1134C10434C1B0526401E437600D20776081643F4
S1134C204846310007B03CBC90469946A246AB4684
S1134C30F0BD330003434FD0002E00D1BCE130005F
S1134C4001F0CCF803000B3B1C2B00DDADE11D2271
S1134C500100D31A08393A008F408E40DA40B94631
S1134C601643304B00279C46002360444442029381
S1134C7085E753465A4613432CD1002300219B4613
S1134C80023397E70B4320D05B46002B00D19EE113
S1134C90584601F0A3F803000B3B1C2B00DD8FE109
S1134CA002005946083A91408B461D21CB1A5146C1
S1134CB0D9400B0059460B4351469B469140194B32
S1134CC09C4660444042002374E7002300219B4635
S1134CD001336FE703236DE700239946013304276B
S1134CE0002602934BE703230C27029347E7012294
S1134CF0D51A382D00DCB0E153461A4000210023B8
S1134D00002689467EE70023802699460022360342
S1134D10004B77E7FF07000001FCFFFF006800007D
S1134D20FFFF0F80F30300005E4500D972E100D15C
S1134D306DE1019B4D46013B019300233400029336
S1134D405B461E020B0E1E430B020393330C994663
S1134D5033041B0C494620000093FFF709FB009B1A
S1134D60370043430600494620009846FFF786FB78
S1134D702C0C09040C43A04509D9E419731EA7425D
S1134D8000D95CE1A04500D859E1023EE41943464C
S1134D90E41A49462000FFF7EBFA0300009A804624
S1134DA05343494620009B46FFF768FB2A04090445
S1134DB0120C0A4393450DD94346D219013B97423D
S1134DC000D93AE1934500D837E102235B429C467F
S1134DD0D219E0445B46D21A4346360433439B4619
S1134DE00399180C0B0C1D00059309045B46090C70
S1134DF00C001B041B0C4443049159436B4368434C
S1134E001B190D0CEB189C4203D980246402A446A0
S1134E1060441C0C09041B04090C20185D18824210
S1134E2000D2DEE000D1D7E0161A029B9C465D1B3F
S1134E30AC459B415B42F61AB74200D106E14946B4
S1134E403000FFF795FA009B0400434349463000C5
S1134E509846FFF713FB2E0C09040E43B04509D9FD
S1134E60F619631EB74200D9F3E0B04500D8F0E06C
S1134E70023CF6194346F31A494618000293FFF719
S1134E8077FA009B06004343494602989846FFF789
S1134E90F5FA2D0409042D0C0D43A84509D9ED1983
S1134EA0731EAF4200D9D6E0A84500D8D3E0023E35
S1134EB0ED192404210043463143049E059A300031
S1134EC0ED1A0B040C0C1B0C584366435343544318
S1134ED09A19030C9B189E4203D9802252029446CD
S1134EE064441A0C00041B04000C14191B18A5427A
S1134EF050D34DD001231943964A019B94466344F1
S1134F00002B00DCF3E64A0709D00F220A40042AEA
S1134F1005D00A1D8A42894149428B4411005A46F0
S1134F20D20108D55A468C4B1A4093468022D200AF
S1134F309446019B6344894A934200DD5BE65A46EA
S1134F40C908500708435602514601225B058146B1
S1134F50360B5B0D0A4055E680231B031E4211D01D
S1134F605A461A420ED15E461E433603360B2A00B9
S1134F7089467B4B46E6032B00D1E1E0012BBBD1F4
S1134F801A40BBE61E433603360B4246744B39E6E1
S1134F90002BB1D07D194A1EAF4252D91100A5424F
S1134FA0A8D1039A9A42A5D1A6E703003E00283B64
S1134FB09E400023994654E600F010FF203041E65D
S1134FC003005246283B9A400021934677E6504618
S1134FD000F004FF20305EE6029B0026AB4200D3C3
S1134FE023E7039E0299B44661448846B045B6411E
S1134FF05B467642F619B218013B0291974213D2EE
S113500090424FD800D18EE0161A9B460DE7894591
S113501000D28EE674084B46F60735005B081D4344
S11350204B46DB0702938BE69742EDD10399029C32
S1135030A142E5D93E1A9B46F7E69846CAE61E0009
S1135040A5E6AC423ED874D0110053E70121494291
S113505052E71C000EE71E002BE71F2D3CDC20232B
S11350600A0058465B1B9840EA4099400243481E98
S113507081415E461143EE404B0709D00F230B409C
S1135080042B05D00B00191D99429B415B42F61875
S113509033023CD55346012200211A400026012345
S11350A08946AFE502235B429C46039CE344A44645
S11350B0029B63449846A045B6417642F619029392
S11350C0B218B1E603988A1E41008142B641764285
S11350D0F619AD19039161E71F225242D31A5A46B9
S11350E0DA401300202D29D040225846551BA840F1
S11350F00143481E814107200B4318400026002825
S113510009D00F2200261A401900042ABBD10B0033
S113511070077602360BDB08034399460122534697
S11351201A4000236EE502998D42BBD89B460026A7
S11351307BE603989842C5D3110032E70020D7E7F5
S113514080265B4636031E433603360B009A894697
S1135150034B57E5FF030000FFFFFFFEFE070000BF
S1135160FF070000F0B55F4656464D464446F0B48E
S11351700D0399464E002B0B87B0070092468046DC
S11351809B46760DCC0F002E69D06D4B9E4235D0D8
S11351905B468022DD001204430F13432B439B46DE
S11351A0C3009846674B00279C460023664401933E
S11351B04A4615035000D20F53462D0B400D91461D
S11351C000D176E05E4A90426CD080225B0F1204DC
S11351D013435C4AED0094461D4353460022DB0012
S11351E0604449463618701C6140029017430F2FE3
S11351F000D9AFE05448BF00C759BF465B461F43C0
S113520000D088E000239B46984602330827019388
S1135210CEE74946022A6AD0032A00D109E2012ACC
S113522000D0BBE111400022002300259046CCB2FF
S113523000212D030A0D12052D0B1543434A1B05AE
S113524015401D436D00E4076D08254340462900C1
S113525007B03CBC90469946A246AB46F0BD03431A
S113526052D05B46002B00D18AE1584600F0B6FDCF
S113527003000B3B1C2B00DD7BE11D22D31A3A00FB
S113528001005D46DA4008398D4013008F402B43FE
S11352909B46B8462E4B00279C460023604446425A
S11352A0019385E752462A432CD10025002302228C
S11352B097E752462A4321D0002D00D154E128001B
S11352C000F08CFD03000B3B1C2B00DD46E11D218F
S11352D0CB1A51460200D9405346083A95409340B0
S11352E00D431B4A944660444042002279E701245E
S11352F000220C40124B0025904699E7002500231C
S113530001226EE703226CE700239B469846013393
S1135310042701934CE703230C27019348E7002358
S11353208025984600242D03054B81E75D464346BE
S1135330019A6FE75D4643462100019A6AE7C04639
S1135340FF07000001FCFFFF40680000FFFF0F8023
S1135350F30300004246120C91461A0C944642464E
S113536017044A461B041B0C5A43604690464A469F
S113537042431000039262461C003F0C7A437C4374
S113538042440192220C9246019A5244904506D915
S11353908246802040028046C24450460390100C4E
S11353A0049048462404240C1204121905922A0C71
S11353B02D042D0C68432C00824648467C43504300
S11353C08146200C8046574357444744BA4503D985
S11353D0802040028046C144380C3F04B84648440B
S11353E02404240C01900498A0444044049058469A
S11353F0000C814658460404200C824607004846A7
S11354005F434C464343604660436446834650468C
S11354104443380C8446E4186444A34203D98023EB
S11354205B029C46E34448463F04230C3F0C24049F
S1135430E419574668436F4384464D4650465543E6
S11354404243380C814662444A445B44944503D940
S1135450802040028446654403983F0483460498B0
S11354603F0C8446E344C3458041404282461004D5
S113547084460198674484466744A344BC46A345D4
S1135480A4419946D44464428742BF41D4458041F3
S1135490E144A04699459B417F424042C8440743AA
S11354A0120CBA18A045A4415F423B006442234356
S11354B0D71843467D19DB0D6D021D435B465A0226
S11354C0059B1A43531E9A415B46DB0D1A43434620
S11354D05B021343EA0107D501225C08134023430E
S11354E0EA07029E13436D08574AB218002A4BDD9F
S11354F0580709D00F201840042805D0181D9842D9
S11355009B415B42ED180300E80104D54F4A154066
S11355108022D200B2184E48824200DDE7E6012420
S1135520DB08680718436D02530580462D0B5B0D9D
S11355300C407DE6802259461203114208D01542E0
S113554006D115432D0398462D0B4C46414B6FE66F
S11355505D4615432D032D0B3E4B69E6030055466E
S1135560283B9D400023BCE6504600F037FC203029
S1135570A8E60300283B9F400023BB46984689E6E3
S113558000F02CFC203073E60124A61A382E07DD27
S113559000220C4000230025904649E6029EA3E722
S11355A01F2E20DC20222C001800921BF040944077
S11355B093400443581E83411C43F540630709D0BC
S11355C00F232340042B05D023001C1D9C42924131
S11355D05242AD182B021FD5012400220C40012396
S11355E00025904624E61F202C004042821AD44015
S11355F0202E1CD04022961BB5402B43581E8341BD
S11356000720234318400025002809D00F22002535
S11356101A401C00042AD8D1230068076D022D0B00
S11356200124DB08034398460C40002300E60025D0
S1135630E3E780220124120315432D0398462D0B22
S11356400C40044BF4E5C046FF030000FFFFFFFEDF
S1135650FE070000FF070000F0B557464E464546DA
S1135660E0B40E001100F20F9246C500420F180379
S113567037037400400A4E0F7F0A3043CF4E17435E
S11356805A00640D520DDB0FC900B24200D1E5E0AF
S113569001267340A61AB446534500D1AFE0002E4C
S11356A000DC0DE1002A3AD103000B4300D0E4E012
S11356B06B0709D00F232B40042B05D02B1DAB42C5
S11356C0AD416D427F191D003B0200D488E0BB4B05
S11356D001349C4200D110E13A00B94B51461A40C2
S11356E001235007ED08520264050543120B640DB3
S11356F00B400021280012030D0D120B64052D052B
S113570015436208AF4CDB072C4014436400640863
S11357101C4321001CBC90469946A246F0BDA74BF1
S11357209C42C5D080231B0418436346382B00DDFC
S1135730FDE01F2B00DD30E1624620239B1A0200AE
S11357409A40664690460A009940F24046464B1EEF
S113575099413243114363460200DA40691A8D428B
S11357609B410D00BA1A5B42D71A3B0235D57A0227
S1135770530A98464346002B00D1C4E0404600F04B
S11357802DFB0300083B1F2B00DDC5E02022290070
S1135790D21A4746D1409F400A009D403A439C425A
S11357A000DDC0E01C1B631C1F2B00DDE4E0202196
S11357B014002800C91AD8408C408D400443DA40B4
S11357C0681E854117002543002471E7424663465D
S11357D01A4300D14CE2674645466B0700D069E79F
S11357E0012351467807ED08FA080B400543734935
S11357F08C4238D012036405120B640D79E7002E35
S113580000DC9AE0002A47D06C4A944200D14FE76A
S11358108022120410436246382A00DC08E1014366
S1135820481E81410022C9B24919D219A942BF4177
S11358300D007F42BF183A0200D442E15F4A0134AE
S1135840944200D14EE101205D4A69083A40284063
S11358500843D507054357089A4629E706000E432F
S113586000D017E714E72900114300D1F9E18021A2
S113587009030A431203120B3BE701235B429846D8
S1135880C4446346002B72D1691A8D429B413F1A6E
S11358905B42FF1A0D0068E702000A4300D107E7E4
S11358A0012252429046C4446246002A00D0E6E0F7
S11358B06918A942B6413F187642F7190D00BAE7B4
S11358C0002E00D080E0621C5205520D012A00DC3B
S11358D0F9E06A1A91464D45B6413A1A7642921B4E
S11358E09046120200D499E04D1BA9428941C71B7E
S11358F049427A1A90469A463CE7524601230025CB
S113590013400022F5E6280000F068FA2030030076
S1135910083B1F2B00DC39E72A0028388240002589
S11359209C4200DC3EE7264FE41A1740C0E60143E0
S1135930481E81410022C9B210E7002E00D0F1E0D8
S1135940621C94465205520D012A00DCA0E01B4A59
S1135950944500D1C5E06918A94292413F185242CA
S1135960D2194908D5070D4357086446A0E6134BDE
S11359709C4200D0D9E69BE611001F3CE1400C009C
S1135980202B00D180E04021CB1A9A4015436A1E97
S113599095410027254300241FE763460200203B6E
S11359A0DA406346202B71D0402366469B1B984007
S11359B00143481E814111430022CFE6FF07000046
S11359C0FFFF7FFFFFFF0F80002C48D0CA4CA2428C
S11359D000D1A2E07442A1468024240427434C460B
S11359E0382C00DDDBE01F2C00DD44E14E46202492
S11359F0A41B3E00A640A246B0464C462E00E640FC
S1135A00B4464646644626435446A5406C1EA5410A
S1135A1034002C434D46EF400D1B28E04A464346D4
S1135A204D461A4300D0A5E6002300240025DEE6F7
S1135A301F2A5ADC66462022921B06009640914695
S1135A40B04662460E00D640424616434A4691404E
S1135A504A1E9141020060463143C240E4E63C00E4
S1135A602C435AD0F443A146002C52D14D1BA942D9
S1135A708941C71B49427F1A14009A4675E69E4A1B
S1135A80944200D0C7E613E600227FE700208FE7A8
S1135A90002C00D0C8E03B002B4300D10FE10300F1
S1135AA00B4300D104E66918A9429B413F185B42AD
S1135AB0DF193B0200D41AE1904B0D001F406446ED
S1135AC0F6E59A4689E63A002A43002C5CD1002A7E
S1135AD075D102000A4300D1CAE007000D009A46BE
S1135AE0E6E564460022002581E662460600203A87
S1135AF0D6406246B046202A00D1B7E0402266462E
S1135B00921B904001434246481E814111430022AA
S1135B108AE6794CA24200D061E707000D00140028
S1135B209A46C5E5002C41D13C002C4378D0F4437F
S1135B30A146002C20D0704CA24271D04C46382C87
S1135B4000DDB2E01F2C00DDBCE02026341BA246A1
S1135B503C005646B4404E46A0462C00F440A446B1
S1135B60444666463443A4465446A54064466E1EE5
S1135B70B54125434C46E7406D188D4289413F1895
S1135B804942CF19140056E6002A2FD102000A43D5
S1135B9000D184E007000D009A46574C88E53D4348
S1135BA06F1EBD41ECB200270D1B60E7524CA242B0
S1135BB036D0744280263604A1463743BEE702003D
S1135BC00A4300D174E56A1A90464545B6413A1A2B
S1135BD07642921B9446120200D4F7E54D1BA9426B
S1135BE08941C71B49427F1A9A4661E502000A436C
S1135BF03AD0ED087C072C438025FA082D032A426D
S1135C0008D0C7082F4205D145072C003A009A4610
S1135C10C9080C43670FD200E5001743364C47E52B
S1135C2007000D00140043E53A002A4343D0020064
S1135C300A4319D0ED087C072C438025FA082D036C
S1135C402A4207D0C6082E4204D147073C0032003E
S1135C50C9080C43D700620FE50017439A46264C47
S1135C6026E50022002544E5234C21E5002049E7F0
S1135C7000230025BBE54C463E00203CE6404C4654
S1135C80B446202C31D040244E46A61BB7403D4399
S1135C906C1EA54164462C4300270D1BE7E68022B9
S1135CA000231203144C0025A1E53D436F1EBD41A2
S1135CB00027EDB260E707000D000F4CF8E4070081
S1135CC00D00F5E44E463C00203EF440A0464C4610
S1135CD0202C0ED040244E46A41BA7403D436F1EEB
S1135CE0BD4144460027254346E70027CFE70D0082
