:1000000080070020A51B0000A11B0000A11B000011
:1000100000000000000000000000000000000000E0
:10002000000000000000000000000000A11B000014
:100030000000000000000000A11B0000A11B000048
:10004000A11B0000A11B0000A11B0000BD010000BE
:10005000A11B0000A11B000001160000A11B000055
:1000600055070000650700007507000085070000C0
:1000700095070000A5070000A11B0000A11B0000C0
:10008000A11B0000A11B0000A11B0000A11B000080
:10009000A11B0000A11B0000A11B0000A11B000070
:1000A000A11B0000A11B0000A11B0000A11B000060
:1000B0000000000010B5064C2378002B07D1054B3B
:1000C000002B02D0044800E000BF0123237010BDC4
:1000D000040000200000000078290000084B10B543
:1000E000002B03D00749084800E000BF0748036819
:1000F000002B00D110BD064B002BFBD09847F9E731
:100100000000000008000020782900007829000085
:10011000000000000C4B1B68002B10D1EFF3108384
:10012000002B09D172B6BFF35F8F0022074B1A7004
:100130000132074B1A7002E00022054B1A70024A86
:100140001368013313607047200000200000002076
:1001500024000020084B1A68013A1A601B68002B23
:1001600009D1064B1B78002B05D00122044B1A70D5
:10017000BFF35F8F62B6704720000020240000208C
:1001800000000020F0B583B001AC012565700027A8
:10019000A770257021002A20064EB0478022D20089
:1001A000054B9A612770657021000220B04703B0AB
:1001B000F0BDC046C90200008028004070B5002292
:1001C000154B1A7000231F25144E134C1F2B19D9E1
:1001D0000FE0002100E012494A619B009B59002B6F
:1001E00000D0984723780133DBB223700F2BEDD971
:1001F00011E02900194001228A4000214969114279
:10020000E7D1EFE72900194001228A4004494969F2
:100210001142E0D1E6E770BD790000207C000020AB
:1002200000240040064A117802230B431370022178
:10023000012053681942FCD153681842F9D1704724
:100240000024004000B583B0184A5369802189001A
:100250000B43536101A900230B700320144B9847F3
:100260000320144B9847144A117801230B43137051
:100270000221012053681942FCD15368184209D069
:10028000F8E704C38B42FCD108220C4B1A600C4BDC
:10029000984709E0084A137810218B431370094BE3
:1002A000190040310022ECE703B000BD000400401B
:1002B000A5140000351400000024004000E100E017
:1002C000250200007C00002000B583B001AB802235
:1002D0001A700A785A704A789A708A78DA70190017
:1002E000014B984703B000BDA115000010B54908A7
:1002F00040230024814201D20AE01C00091A631C39
:100300009BB28842F9D94023FF2C01D814800023E6
:10031000180010BDF0B55F4656464D464446F0B451
:1003200089B00C00059212AA117802004A434025B8
:10033000A24200D9C6E0002B51D1020008000021E2
:10034000644DA8478346260000270023002400931D
:100350000194002200233F2020218C461F39029661
:10036000039720246442041903D40D00A540A84635
:1003700004E06446241A0D00E540A8460C008440C1
:10038000A14614001D00A4185D4122002B00464622
:100390005F463E4203D00E00264332002B00029CF3
:1003A000039D9D420FD801D194420CD8029C039D1D
:1003B000121BAB414D46009E019F35433C00464613
:1003C0003443009501940138CBD2002201230098D8
:1003D0000199121A8B41120C1B041A436FE0002280
:1003E000012B6CD1630F0493E30098460A000023AD
:1003F0000021384CA04704000D0000239C460693C2
:1004000020339B4601266346079300230293002274
:1004100000233F21009401950F00202149427918C3
:1004200003D430008840844604E05946C91B30009C
:10043000C84084463100B940894610001900801830
:10044000594102000B0044464D462C40A2466446EA
:10045000049D2C40A446544665462C4303D03400EA
:10046000044322000B000098019999420AD801D157
:10047000904207D800980199121A8B410299484678
:1004800001430291013FC8D2009C019D0299079A45
:100490008B1ADB0810498B420BD9069B0133DBB268
:1004A000190006931300013307930829ADD14025A5
:1004B00008E04025069A082A04D052031A43059BF7
:1004C0001A800025280009B03CBC90469946A246F7
:1004D000AB46F0BDB9270000FF1F000010B582B089
:1004E00004000E4B1B78002B01D000290DD001A970
:1004F0000C7011200A4B984711200A4B9847074B64
:100500005C7001221A70002006E0044B5B78834285
:1005100001D01D2000E0002002B010BD2800002006
:10052000A514000035140000444B984234D007D87D
:100530008423DB0598420DD0414B98421BD06FE0DD
:10054000404B98424AD0404B984258D03F4B98423B
:1005500066D132E0012906D0002963D0022906D0F5
:10056000032906D001E03A4867E0002065E03948F9
:1005700063E0394861E0012906D0002954D00229FE
:1005800006D0032906D001E0344856E0002054E0AC
:10059000334852E0334850E0012906D0002945D0C5
:1005A000022906D0032906D001E02F4845E00020AB
:1005B00043E02E4841E02E483FE0012906D00029C3
:1005C00036D0022906D0032906D001E0294834E0BC
:1005D000002032E0284830E028482EE0012906D0EB
:1005E000002927D0022906D0032906D001E024489B
:1005F00023E0002021E023481FE023481DE00129DB
:1006000006D0002918D0022906D0032906D001E01F
:100610001E4812E0002010E01D480EE01D480CE0CE
:1006200000200AE01C4808E0032006E01B4804E024
:100630001B4802E01B4800E01B48704700080042CE
:10064000000400420010004200040043000C00427D
:10065000030005000300060003000700030001007B
:1006600003001E0003001F000300090003000A002E
:1006700003000B000300110003001200030013002D
:1006800003000D0003000E0003000F00030017001D
:100690000300180003001900030004000300080011
:1006A0000300100003000C000300160030B587B0F3
:1006B0000C4B6A4632CB32C232CB32C2009B8342F1
:1006C00006D001239A0069465258824203D100E0C5
:1006D0000023D8B203E00133062BF3D1002007B08A
:1006E00030BDC046702800007047C046F0B50A4BC8
:1006F0001B78002B0CD1094F094E0A4D0024DE5106
:100700005A1914600433182BF9D10122024B1A70C4
:100710008000024BC150F0BD2A0000202C000020B8
:10072000E9060000BC00002010B582B004000622DB
:1007300005496846054B98472000054B98476B468E
:10074000185602B010BDC046882800005D28000081
:10075000AD06000010B5024B1B680020984710BD85
:100760002C00002010B5024B5B680120984710BD9B
:100770002C00002010B5024B9B680220984710BD4A
:100780002C00002010B5024BDB680320984710BDF9
:100790002C00002010B5024B1B690420984710BDA7
:1007A0002C00002010B5024B5B690520984710BD56
:1007B0002C000020F0B55F4656464D464446F0B446
:1007C00091B005000C00160029600800C44B984742
:1007D000021E052A03D007001237030001E0182784
:1007E000012321680520C90700D571E12168173070
:1007F000890700D56CE1052A07D1BA48026A0121B0
:1008000099400B001343036206E0B648C269012118
:1008100099400B001343C3610FA92D239846F35C45
:100820000B70FFB23800B04B98473800AF4B984779
:100830004346F05C0021AE4B9847F37A6B7124235A
:10084000F35CAB712523F35CEB71F37E2B72337F8A
:100850006B722B6899461800A14B98471230002202
:100860000E2306A98C4663441A80328A02928023A2
:10087000DB019A421AD004D880239B019A420BD004
:1008800007E1C023DB01029A9A420AD080231B02AF
:100890009A4200D102E1FCE0102306930F3B07933C
:1008A00000E108230693073B0793FBE033680493BA
:1008B000F3689B4673690393337E98462623F35C63
:1008C000059373689A46002B16D080235B059A45E2
:1008D00039D12723F35C002B39D1336A1F00C0B212
:1008E000844B984701000E2206AB9C4662443800B8
:1008F000814B9847030027E00823069300230793C2
:100900002723F35C002B0CD0069B0093079B0E2241
:1009100006A98C466244B16A306A784FB847030032
:1009200012E0336A1F00C0B2724B98470100069B69
:100930000093079B0E2206A88446624438006F4F3E
:10094000B847030000E00023181E00D0C0E0737E0B
:10095000002B02D0B37E4A4693732A68029FD36964
:10096000002BFCD10E3306AA944663441B884A46EA
:100970009381049B5A461343039A134352461343ED
:100980003B43424612021343059A57071F4327234E
:10099000F35C002B01D104331F43717E8902337F46
:1009A0005B021943737F1B0219432423F35C5B042E
:1009B00019432523F25C12041143F37A1943338956
:1009C000FF2B04D0802252041743194305E0F37E25
:1009D000002B02D08023DB041F432C23F35C002B6D
:1009E00003D1474B9B789B0701D580231F432A687F
:1009F000D369002BFCD14B4659602A68D369002B80
:100A0000FCD14B461F600EAB80221A7000225A7038
:100A1000DA709A70336B0A93736B0B93B36B0C930E
:100A2000F36B02930D9300270EAEF9B2BB000AAA36
:100A30009858002802D12000324B9847431C05D01B
:100A40003070000CC0B231002F4B98470137042F93
:100A5000EBD10023EB602B616B61AB61EB612B622F
:100A6000AB626B620022EB85AB853033EA54013315
:100A7000EA540133EA540133EA542868184B984782
:100A800004002249224B9847A400224BE550002045
:100A90001EE0102306930023079303E0032306932D
:100AA0000023079333680493F3689B4673690393A9
:100AB000337E98462623F35C059373689A46002B91
:100AC00000D11DE780235B059A4500D101E73EE791
:100AD00011B03CBC90469946A246AB46F0BDC0461C
:100AE000AD06000000040040A5140000351400000D
:100AF000DD040000C9140000ED0200001503000031
:100B00000020004129050000A1150000B50B0000E0
:100B1000ED060000BC000020C2791C23002A0ED084
:100B2000C28D92B2173B002A09D10368DA69002A04
:100B3000FCD1198502211A7E0A42FCD0002318003C
:100B40007047C04682791C23002A30D0828D92B231
:100B5000173B002A2BD10268107E400727D5D369A6
:100B6000002BFCD1538BDBB298061DD0980703D520
:100B70000223538318331AE0580703D50423538301
:100B80001A3314E0D80703D50123538312330EE040
:100B9000D80603D510235383323308E09B0603D5D0
:100BA00020235383213302E0138D0B800023180090
:100BB0007047C046F8B58000604BC5582C68E369A3
:100BC000002BFCD1237EA67D1E403023EB5C31221E
:100BD000AF5C1F40F30722D5EB8D9BB2002B1CD0DE
:100BE000AA6A1378DBB2511CA9626979012901D084
:100BF0009BB204E0517809020B430232AA62DB0582
:100C0000DB0D2385EB8D013B9BB2EB85002B06D1E1
:100C1000013323750133A37501E001232375B30765
:100C200009D50223237500223133EA54FB0702D58C
:100C30002800EB689847730760D5AB8D9BB2002BFB
:100C40005AD0638BDBB21A0702D43F22134001E073
:100C500037221340002B2DD09A0705D51A223223B4
:100C6000EA54303B63831FE05A0705D51E22322326
:100C7000EA542E3B638317E0DA0705D513223223AB
:100C8000EA54313B63830FE0DA0605D54222322372
:100C9000EA54223B638307E020221A4204D0213227
:100CA0003223EA54123B63837B0727D528006B6904
:100CB000984723E0238DDB05DB0DDAB2696A0A7001
:100CC0006A6A511C69626979012904D11B0A53704F
:100CD0006B6A01336B62AB8D013B9BB2AB85002B22
:100CE0000CD10433237500222E33EA54BB0705D5FB
:100CF00028002B69984701E004232375F30607D5E4
:100D0000102323752376FB0602D52800EB6998474C
:100D1000B30607D52023237523763B0702D5280089
:100D2000AB699847330707D5082323752376BB069D
:100D300002D52B6A28009847F8BDC046BC000020A9
:100D400010B5082803D880001C4B1B589F46002074
:100D500032E01B4B18692FE01A4B187D0007800FFB
:100D60000130194B584327E0154B586924E0144BC8
:100D70001B68022018401FD0124980225200CB6805
:100D80001342FCD00E4B1B685B0714D500200F4BA1
:100D900098470B4B9B681B041B0C58430CE0282303
:100DA000084AD35C00209B0706D5054BD86803E0B2
:100DB0008020000200E0064810BDC04690280000D8
:100DC00044000020000C004000093D00C914000050
:100DD000006CDC0230B50C4C237D857841780078BE
:100DE0000322104080000932934303430B3A114021
:100DF00089013F3293430B431A00E9017F231340DB
:100E00000B43237530BDC046000C0040F0B55F4673
:100E100056464D464446F0B4254E73699C46457887
:100E200003785A425A41904683789A46C378477A63
:100E3000027A9346847A42681E4842610120424603
:100E40009200904604229146624649468A4394465F
:100E5000424661460A4394460340DB00082290461E
:100E6000624641468A43134351460140090110221C
:100E700093430B435A460240920140218B43134354
:100E80000740FF01802293433B43793A15402D02EE
:100E9000094F3B402B4304402003084C1C400443B3
:100EA00074613CBC90469946A246AB46F0BDC04634
:100EB0000010004044000020FFF8FFFFFFEFFFFF9D
:100EC00010B5837A9B061A0C83899B059B0D1343EF
:100ED0001A4C6360017A437A19438388C2881343AA
:100EE0000B434278D201134382789201134323606B
:100EF0000378042B0FD1837B9B06428A134319008E
:100F0000038A1B040E4A13400B43A3602168042389
:100F10000B43236011E0202B0FD1837B9B06428A79
:100F200013431900038A1B04054A13400B43034A69
:100F30009360136803490B43136010BD4400002005
:100F40000000FF0324040000082803D88000294B78
:100F50001B589F4617204BE0274A117D02230B4365
:100F60001375002044E0254A916902230B439361E5
:100F700000203DE0204A118A02230B431382002007
:100F800036E01E4A516902230B43536100202FE0D3
:100F90001B490B68022213430B60174B1A8319007D
:100FA000FE32CB681342FCD0154A9168124B19628D
:100FB0005268DA6100221A8319000132FF32CB68CD
:100FC0001342FCD00E4B1B689BB20B4A13830020CC
:100FD0000EE009492822885C022303438B54080051
:100FE0003821263A435C1342FCD1002000E0002067
:100FF0007047C046B4280000000C004000100040BC
:1010000044000020082832D880001A4B1B589F4605
:10101000194A137D02218B431375002028E0174ADB
:10102000936902218B439361002021E0124A138AC5
:1010300002218B43138200201AE0104A53690221D7
:101040008B435361002013E00D4B1A6802218A4341
:101050001A601B689BB2084A1383002008E0064907
:1010600028228B5C022083438B54002000E0172051
:101070007047C046D8280000000C00400010004017
:1010800044000020F0B5474680B48CB08022520066
:10109000764B9A60FD3A764B9A60764A53681E21E9
:1010A0008B4353608023DB059B78022B0FD080237A
:1010B000DB059B785BB2002B09DB8023DB0501227B
:1010C0009A7101329A701A009379002BFCD009A80A
:1010D0000023037080221202426083700122C270DA
:1010E00003728372033242704372634B9847052048
:1010F000624B984762490122CB681A42FCD0604A91
:10110000516980230B43536101A901234B600024E3
:101110004C700C724C7203250D700020594B98478F
:101120000620594B98476B465C701D709C70684652
:10113000564B98470620514B98474C491022CB6894
:101140001A42FCD001A901234B6000244C700533E6
:101150000B700C724C7200204A4B9847434A117D29
:1011600080230B43137504AB00229C80DC801A7231
:101170005A729A703F2199813B3919705A70444BC9
:101180001B689B0E3F2B00D1203B04A88372B72322
:10119000DB004382032383731C3303823D4B984758
:1011A0003D4B984701AC01260296002565702572DB
:1011B00065720523237021000120324B9846984721
:1011C0000120364FB8476660657025726572072347
:1011D000237021000320C0470320B8472670210058
:1011E00000202F4B984700202E4B98470720234B79
:1011F00098471E49D0221201CB6813409342FBD17D
:10120000294C0123A3716371237101A94B60002351
:101210004B7006220A700B724B720020194B9847D4
:1012200000201E4B98470020204B98472179C9B2D7
:101230001F4B98471F4B984214D88023DB059B789F
:10124000002B0FD08023DB059B785BB2002B09DBE2
:101250008023DB0501229A7100229A701A0093798B
:10126000002BFCD00CB004BC9046F0BD000C00403C
:1012700000140040004000410D0E0000490F000026
:1012800000100040DD12000005100000D50D000028
:1012900020608000C10E0000B91200008913000018
:1012A000A51400003514000000040040C91300001C
:1012B00061260000001BB700064A516940230B431A
:1012C00053610122044B1A7019000B781342FCD1B0
:1012D0007047C046000400400018004070B505008B
:1012E0000C784B78002B02D08023DB001C434B7A18
:1012F000002B02D080231B011C434A68012A17D906
:10130000531E1A420FD1022A06D9022300200130AF
:101310005B009A42FBD800E0002080235B011C4365
:101320000004044304E0120480239B001A43144386
:101330000B7A002B02D080239B011C430426AE4075
:101340000D490E4A4B6813401E42FBD10C4B984787
:10135000AD00094B9C466544286A80235B00184019
:10136000204328626146054A4B6813401E42FBD168
:10137000044B984770BDC04600180040FC070000B1
:10138000150100005501000010B504000422824040
:1013900009480A4943680B401A42FBD1084B984759
:1013A000A400054B9C466444236A802252001343E8
:1013B0002362044B984710BD00180040FC07000052
:1013C0001501000055010000F8B504000422824018
:1013D0001248134943680B401A42FBD1114B9847FE
:1013E0000E4F0834A400E0590007000F0E4B984739
:1013F0000600E559ED04ED0FE459240C0B4B98471A
:10140000002D07D1012C07D921003000084B984747
:10141000060001E00134E6403000F8BD001800404D
:10142000FC07000015010000410D000055010000FF
:101430006126000010B50400094B9847A000094B35
:101440009C4660448022815840230B438350802176
:10145000403A43581A42FCD0034B984710BDC0464F
:1014600015010000001800405501000010B50400EF
:10147000094B9847A000094B9C4660448022835842
:1014800040218B4383504031403A43581A42FCD1AB
:10149000034B984710BDC0461501000000180040DE
:1014A0005501000070B504000D00054B98472B78DE
:1014B0000F2213402034A400024AA35070BDC0463E
:1014C0006D1400000018004010B50400064B98474A
:1014D0002034A400054BE4582407240F044B9847FC
:1014E0002000044B984710BD150100000018004073
:1014F00055010000C913000030B5D378002B1ED170
:101500001378802B04D01B0680246402234300E060
:10151000002354780225AC430AD19478002C03D1DF
:101520008024A402234302E0C024E4022343416058
:101530005478013C012C12D8184C23400FE0416034
:101540000B041B0CA024E405234383620B0CD02462
:10155000240623438362D378002B18D01CE00C04AC
:10156000240CA025ED052C431C4384620C0CD025D3
:101570002D062C431C438462D478002C0CD15B03D1
:1015800005D59378012B01D1816100E04161537849
:10159000013B012B00D8816030BDC046FFFFFBFF3F
:1015A00010B503000A00C1090020002904D1580920
:1015B000C00105498C4660441F210B401E399940EB
:1015C000024B984710BDC04600280040F9140000A7
:1015D0007047C04610B5054B9847054B9847054BDB
:1015E0009847054B9847054B984710BD851000005C
:1015F00085010000D115000045020000D115000052
:10160000F0B55F4656464D464446F0B483B0CB4BEA
:101610001F683D682B78DB0900D15AE12B8C9BB207
:10162000002B00D1DBE0288C80B2C54B9847041E0C
:101630001F2C00D9D3E0030008335B01ED18ED79CE
:10164000EDB2AB0751D0BF4A0123834011689943E3
:101650001160030008335B013A6894466344032237
:10166000DA713B18AE331B78DB073ED5B64B1870EA
:101670003A68030008335B019B5C9B079B0F012BBF
:1016800010D14201B14B9B185A689204920CAE499A
:101690004A805A681201920C8A805A68920B92030F
:1016A0005A601AE04201A94B9B185A681201920C29
:1016B00090B2A5494A805A689204920C8A8059686F
:1016C000A34A0A405A60002807D163019F4AD318F1
:1016D0005B689B049B0C9C4A5380984B1868A31C26
:1016E0001B01C3185B68984998476B070ED5954A4C
:1016F0000123A340116899431160904B1B681A683D
:10170000230008335B01D3180422DA712B0721D59B
:101710008C4A0123A340116899431160874B1868D4
:10172000230008335B010268944663440822DA719F
:101730000319AE331B789B070CD583490C706301EA
:10174000824AD318DA891F2313404B702301C31830
:101750009B6A9847EB0622D57A4A0123A340116879
:1017600099431160754B1868230008335B010268C8
:10177000944663441022DA710319AE331B785B0779
:101780000DD5714A147063017049CB185B681B0159
:101790009B0C53802301C318DB6A00219847AB06DA
:1017A00000D4F2E1674A0123A34011689943116014
:1017B000624B1868230008335B0102689446634457
:1017C0002022DA710319AE331B781B0700D4DCE149
:1017D0005D490C7024010419236B9847D5E1AC8B4B
:1017E000A4B2630708D50423AB83A133FB5CDB07FA
:1017F00002D57B683800984723070DD50022514B4E
:101800001A604E4B18680823026893839D33C35CAB
:101810009B0701D58368984763060AD5474B18682C
:101820004023026893836533C35CDB0601D54369BB
:101830009847A3060AD5414B186820230268938372
:101840008533C35C1B0701D503699847E3060AD5B6
:101850003A4B18681023026893839533C35C5B0787
:1018600001D5C368984723060DD50022354B1A6071
:10187000324B18688023026893832533C35C9B0630
:1018800001D583699847E3050ED500222D4B1A60D8
:101890002A4B186880235B00026893835B3BC35C20
:1018A0005B0601D5C3699847A30500D46DE100220A
:1018B000244B1A60214B186880239B000268938395
:1018C0005C3BFF3BC35C7F2B00D85EE1036A98471B
:1018D0005BE12E8CB6B2002E40D1AE8BB6B2AB23FC
:1018E0005B00FD5A3540023BFB5A1D400024194F56
:1018F000124B994698466300DB5B334203D04A465D
:101900001268126893832B4213D0062C07D10F4B19
:101910001B891A0980235B0013400F4A13602300C0
:101920002E339B00424612689B580B494246106872
:1019300098470134072CDED127E1C046740000200F
:10194000792700006800002060000020D4000020FB
:10195000FF3F00F0FC2800005C0000203C005934F0
:10196000FF340023012294465F329146503A92465A
:101970000D3A9346B8462F00D8B2019332001A416F
:101980006146114200D1FBE01A0008325201BA1838
:10199000D279D2B2217A2578294011404D4615429C
:1019A0002AD03D0047465B01ED180823FF33EB5C6E
:1019B0005B0609D540220823FF33EA54883BFF3BEE
:1019C0000343754A93710AE00823FF33EB5C9B06DF
:1019D00005D520220823FF33EA546F4B987160230A
:1019E0000B4200D1D1E0019B1B01FB18E0331B68C7
:1019F000694938009847C8E0554615421FD03D0058
:101A00004746019A130008335B01ED181023EB7170
:101A1000BB186133FF331B78DB0600D4B5E0100040
:101A200053015E4AD3185B689B049B0C5A490B8098
:101A30000301FB18DC331B6840469847A5E05D4670
:101A400015423FD03D00474680465B01ED18082314
:101A5000FF33EB5C9B0712D502220823FF33EA54C5
:101A60004D4A883BFF3B03439371019B5B014B480D
:101A7000C31810335B689B049B0C538017E008234A
:101A8000FF33EB5CDB0712D501220823FF33EA5456
:101A9000414843468371019B5A01404B9B185A6849
:101AA0009204920C02805B681B019B0C83808B0765
:101AB0006BD0019B0D331B01FB185B683649380066
:101AC000984762E00C2515425AD03D0047468046B3
:101AD0005B01ED180823FF33EB5C1B0721D50822BF
:101AE0000823FF33EA54019843012C4AD3189B7E04
:101AF0009B0706D54201294B9B189A7E0220824300
:101B00009A7680235B4242461343234A9371019B9A
:101B100008335B013A6894466344DB799B0723D51D
:101B200033E00823FF33EB5C5B071DD50422082359
:101B3000FF33EA5401984301184AD3189B7A9B0754
:101B400006D54201154B9B189A7A022082439A725D
:101B5000114B42469A71019B08335B013A689446E7
:101B60006344DB79DB0710D40C230B420DD0019BBF
:101B70001B01FB18D8331B6807493800984704E05D
:101B800001330134082B00D0F6E603B03CBC90468C
:101B90009946A246AB46F0BD6C000020D400002060
:101BA000FEE7C04610B51D4B1D4A9A4203D01D4B9F
:101BB0001A4A9A4204D31C4B1C4A9A4210D31EE084
:101BC0001B4A184B03339B1A9B0801339B000022CE
:101BD000124813498C58845004329A42FAD1EAE7E9
:101BE000144A114B03339B1A9B0801339B000022BC
:101BF0000E4800211418216004329A42FAD10E4A8C
:101C0000FF210E4B8B4393600D4A516880230B4399
:101C100053600C4B98470C4B9847FEE700000020A0
:101C200078290000040000207C030020040000202C
:101C3000040000200800002000ED00E0000000008B
:101C400000400041112800004D1C000010B582B07A
:101C5000144B1A68531C16D0134B042159600624E8
:101C600042201C5499611B6A5B07DB0F6946CB71EC
:101C7000CB79002B07D0C023DB01196881F30888DA
:101C80000A498B6010470A4B98470A4B98470A4C01
:101C9000A0470028FCD00120084B9847084CA047DB
:101CA000FDE7C046046000000028004000ED00E0B1
:101CB000D5150000112100008D220000C51C000078
:101CC000911D0000012802D1014A024B1A607047A1
:101CD0000C2900002C020020F0B585B0204B1B78A9
:101CE000002B31D0042901D1006832E0022901D152
:101CF00000882EE000784D0004AB5A190B3A002DF5
:101D000010D000240F26302733000340092B02D8BF
:101D10003B43137001E0373313700009013A01347B
:101D2000AC42F1D301A83023037048334370013132
:101D300049006E3B435445190333EB700231094BA4
:101D40001B68DB68984709E0064B1B68DB6898470F
:101D500004E04D0004AB5A190B3AD2E705B0F0BDD0
:101D6000780000202C02002072B6BFF35F8F0022A3
:101D7000054B1A70EFF30883044A1360036883F37A
:101D80000888436818477047000000203002002090
:101D9000F8B55F4656464D464446F0B40022C44B63
:101DA0001A607A32C34B1A70C34B9A46C34B98469B
:101DB000C34B9B4643461B681B69402150469847CE
:101DC0005B461860BF4B52461A600022BE4B1A6039
:101DD0000028EFD0BB4D2C002B681B78FF2B00D1C7
:101DE0005CE1232B00D027E1B84B1B78002B05D0FA
:101DF000B24B1B68DB680221B5489847AD4B1B7896
:101E0000532B4BD1AE4B1B68AF4A126893422ED96D
:101E1000AC480168013101600132AB490A60AD494B
:101E200009689B1A8B4200D90B00AB4A1360002152
:101E3000AA4A1170002B1AD09D49A24AA24FA74866
:101E4000A54B9C4613681B780E6833700B680133F2
:101E50000B601368013313603B6801333B60037808
:101E60000133DBB2037066463668B342EAD3964A62
:101E70001368013B1360934A1368013B1360974B4F
:101E80001978944B1B68994206D2591A884B1868E6
:101E90008A4B1B689B699847C046BCE0522B08D10F
:101EA0008C4B1968824B1868844B1B685B69984798
:101EB000B1E04F2B05D17E4B1B68864A12681A7021
:101EC000A9E0482B05D17A4B1B68824A12681A8018
:101ED000A1E0572B05D1764B1B687E4A12681A6029
:101EE00099E06F2B05D1724B186801217C4B984704
:101EF00091E0682B08D177486D4B1B681B88036005
:101F00000221774B984786E0772B08D1684B1B68F6
:101F10001B68704803600421714B98477BE0472B96
:101F20000ED16C4B18686F4B98476F4B1B6883F34F
:101F3000088801226D4B1A70BFF35F8F62B66AE0AA
:101F4000542B09D10122614B1A705C4B1B68DB6872
:101F500002215F4898475EE04E2B0DD15B4B1B780A
:101F6000002B05D1554B1B68DB6802215848984768
:101F70000022564B1A704EE0562B4CD14F4B9946CF
:101F80001B68DB6801215A4898474B461B68DB6891
:101F90000421584898474B461B68DB680121564886
:101FA00098470022484B1A60544A464B1A604648EC
:101FB0001A000368591C016013685E1C16601B78C8
:101FC000002BF6D13D4B99461B68DB684C4898477F
:101FD0004B461B68DB6801214748984700223A4B73
:101FE0001A60484A374B1A6037481A000368591C70
:101FF000016013685E1C16601B78002BF6D12F4B16
:1020000099461B68DB68404898474B461B68DB686D
:1020100002212F4898477A22264B1A7000222D4B16
:102020001A602A4B1B78002B35D0244B1B68DB68C9
:102030000121364898472EE01A00303A092A06D87E
:1020400024490A681201303B13430B6023E01A0055
:10205000413A052A06D81F490A681201373B134343
:102060000B6018E01A00613A052A06D819490A6877
:102070001201573B13430B600DE02C2B06D1154B7F
:102080000B4A1968116000221A6004E0094A1370B3
:102090000022104B1A602368013323600A4A136838
:1020A00001331360064A12689A4200D994E681E629
:1020B00028020020E0010020E80100202C0200207E
:1020C000D8010020DC010020E4010020780000207D
:1020D000302900003402002038020020D401002002
:1020E000D91C0000691D0000300200200000002003
:1020F0003429000028290000382900003D2900006B
:102100003C2900004929000048290000542900000A
:1021100030B591B08023DB05009300230193FF22AB
:1021200069460A8100228B72CB72012124206C4601
:1021300021540130215425316354013163540A93F1
:1021400005316354013163540E930F930593238239
:10215000E3762276227762761323A3766277E123F1
:102160005B02089380235B030393264B0C93264B5F
:102170000D93264D264C6A4626492800A047002884
:10218000F9D1224D2C682000234B98471F2318407B
:102190001E3B8340214A13602A68D369002BFCD17F
:1021A0002268023313432360184B1B68DA69002A44
:1021B000FCD15A68802149020A435A600121134A1E
:1021C000D171DA69002AFCD1DA69002AFCD15A6897
:1021D000802189020A435A6001210C4A9171DA690F
:1021E000002AFCD100230E4A13700E4A13700E4AC7
:1021F00013700E4A13700E4A13700E4A137011B00A
:1022000030BDC04602001600020017004402002044
:10221000B5070000000C00422907000000E100E0C3
:102220003C020020FA0200203D0200204002002073
:10223000FB020020F802002010B581B20248034BD7
:102240009847012010BDC04644020020190B000031
:10225000024B187E4007C00F7047C046000C00427A
:1022600010B582B0064CA0470028FCD06B469C1DE0
:1022700021000448044B9847208802B010BDC04696
:102280005122000044020020450B000010B5064B0F
:1022900098470023002804D0044B98472338434232
:1022A0004341180010BDC0465122000061220000C9
:1022B000F8B504000F1E06D04618044D2078A84734
:1022C0000134A642FAD13800F8BDC04639220000D8
:1022D00010B50400024B98472070012010BDC04685
:1022E00061220000000248400823074902B2002A88
:1022F00003DA4000484080B201E0400080B2013B78
:102300009BB2002BF2D1704721100000F0B5574668
:102310004E464546E0B482B007000E1E29D0002488
:1023200000230193174B9A46174B9946174B984633
:10233000D047C5B24B461B78002B1CD10199280011
:10234000C0470190124B1B88002B03D1114B1B7807
:10235000002B08D07B1C3D701F00802E03D10C4940
:102360000A88013A0A800134A4B2A642E0D1019859
:1023700002E0002000E0012002B01CBC904699461B
:10238000A246F0BD61220000F8020020E522000014
:102390003E020020F9020020F0B585B00500019151
:1023A000022103A8174CA04780212800A047050060
:1023B000154B1C78002C20D1144EB047000287B278
:1023C000B0473F18BFB2104B1B78012B16D0BD424F
:1023D0000AD103AB1B78019A934205D1DB4303AAD0
:1023E0005278DBB29A4203D01820094B984705E097
:1023F0000620074B9847012400E00024200005B088
:10240000F0BDC0460D230000F8020020612200004C
:1024100039220000F0B55F4656464D464446F0B4BA
:1024200085B00390894600224A4B1A70002903D1D7
:102430000132494B1A700CE0484B19800022464B80
:102440001A700B005B0604D00B0080337F3293437D
:102450009946434E3F4D2C00B0472B78002B0CD0B3
:10246000002323703E4B9847C0B22378002B05D041
:102470000022384B1A70002663E0C0B2432823D0F4
:1024800071285DD01528E7D11EE00022314B1A706B
:1024900057E0FF231840062809D1029B0133DBB225
:1024A00002934B46803B9946039B803303934B46F4
:1024B000002B10D104202B4B9847294B9847002222
:1024C000254B1A7001263CE001230293254B9B46C5
:1024D000224B98461C000120D847029D2800D8476F
:1024E000E843C0B2D847039D8026002301931A4BCE
:1024F0009A462F0043461B88002B04D1524612787F
:102500000025002A03D03D78013B238001372800B5
:10251000144B984701992800134B98470190013EAE
:10252000002EE7D10500000AC0B20E4FB847E8B24E
:10253000B8470B4B9847074B1B78002BA9D0A4E753
:102540000026300005B03CBC90469946A246AB46FA
:10255000F0BDC046F8020020F90200203E02002033
:102560006122000039220000E5220000F0B5474654
:1025700080B482B001900C000620304B98470A21AD
:102580002F4B9847009000222E4B1A70002C03D13D
:1025900001322D4B1A7004E02C4B1C8000222A4B78
:1025A0001A7064252A4E2B4F4320B047009C00E050
:1025B000013CB847002802D1002CF9D101E0002CE1
:1025C00003D1013D002DEFD132E00124224F1D4DFA
:1025D000224B9846B8472B78002B04D00022194B89
:1025E0001A70002524E0FF231840012802D0042897
:1025F00014D019E021000198C047124B1B78002B22
:1026000004D000220F4B1A70002511E0012809D1D7
:102610000134E4B2019B80330193DBE706200C4BCD
:10262000984701E00028D5D10022074B1A700125F8
:10263000280002B004BC9046F0BDC046410D000029
:1026400061260000F8020020F90200203E0200206E
:10265000392200005122000061220000992300006D
:10266000002243088B4274D303098B425FD3030AD1
:102670008B4244D3030B8B4228D3030C8B420DD3E4
:10268000FF22090212BA030C8B4202D31212090272
:1026900065D0030B8B4219D300E0090AC30B8B42B0
:1026A00001D3CB03C01A5241830B8B4201D38B035E
:1026B000C01A5241430B8B4201D34B03C01A524103
:1026C000030B8B4201D30B03C01A5241C30A8B4246
:1026D00001D3CB02C01A5241830A8B4201D38B0231
:1026E000C01A5241430A8B4201D34B02C01A5241D5
:1026F000030A8B4201D30B02C01A5241CDD2C30947
:102700008B4201D3CB01C01A524183098B4201D3C2
:102710008B01C01A524143098B4201D34B01C01AAD
:10272000524103098B4201D30B01C01A5241C30825
:102730008B4201D3CB00C01A524183088B4201D394
:102740008B00C01A524143088B4201D34B00C01A80
:102750005241411A00D20146524110467047FFE7EC
:1027600001B5002000F006F802BDC0460029F7D0F0
:1027700076E770477047C046414208401C2101235C
:102780001B04984201D3000C10391B0A984201D354
:10279000000A08391B09984201D30009043902A232
:1027A000105C401A7047C0461B1C1D1D1E1E1E1EBD
:1027B0001F1F1F1F1F1F1F1FF0B54F464646C0B4E7
:1027C0001604360C9946330005042C0C070C150C26
:1027D00063437E436F4365431C0CAD1964199C46EB
:1027E000A64203D980235B02984647446346250CE2
:1027F000EF191D044B464A4343432D0C240464192E
:102800009918C91920000CBC90469946F0BDC046E5
:102810000E4B70B500251E000D4CE41AA410A54205
:1028200004D0AB00F35898470135F8E700F094F86E
:10283000084B00251E00084CE41AA410A54204D041
:10284000AB00F35898470135F8E770BD64290000E4
:10285000642900006429000068290000002310B5E5
:102860009A4203D0CC5CC4540133F9E710BD000098
:10287000000000420004004200080042000C004238
:10288000001000420004004308090A0B0C0D000070
:10289000520D00004E0D00004E0D0000B00D000066
:1028A000B00D0000680D0000580D00006E0D000016
:1028B0009E0D0000740F0000540F0000540F000024
:1028C000EE0F0000660F0000820F0000580F00009E
:1028D000900F0000D20F00002C1000006E100000BE
:1028E0006E1000006E1000001E1000003A10000074
:1028F00010100000481000005E10000004000800E6
:102900007000800001000001000200003922000078
:102910006122000051220000B1220000D1220000FB
:10292000152400006D250000322E31360000000015
:102930000A0D000076000000200000004D617220AA
:10294000313720323031370031333A35323A31398C
:10295000000000003E000000F8B5C046F8BC08BC0E
:102960009E467047DD000000F8B5C046F8BC08BCC4
:082970009E467047B50000000F
:04297800010000005A
:00000001FF
