:1000000008690020B1390000AD390000AD390000A9
:1000100000000000000000000000000000000000E0
:1000200000000000000000000000000015100000AB
:10003000000000000000000079100000BD1000006A
:10004000AD390000AD390000AD390000AD39000018
:10005000AD390000AD390000AD390000AD39000008
:10006000A12C0000B12C0000C12C0000D12C0000FC
:10007000E12C0000F12C0000AD390000AD3900008A
:10008000AD390000AD390000AD390000AD390000D8
:10009000AD390000AD39000059320000AD39000023
:1000A000AD390000AD390000AD390000AD390000B8
:1000B0000000000010B5064C2378002B07D1054B3B
:1000C000002B02D0044800E000BF0123237010BDC4
:1000D000B000002000000000406B0000084B10B58D
:1000E000002B03D00749084800E000BF0748036819
:1000F000002B00D110BD064B002BFBD09847F9E731
:1001000000000000B4000020406B0000406B0000C5
:100110000000000030B585B001AA064B13CB13C216
:10012000054D064C01A92800A0470028FAD105B0CA
:1001300030BDC04654680000944800205D080000AF
:1001400030B58BB06B46DA1DD87106AB1C21198017
:100150001A395980079200221A725A729A720F4DF8
:100160000F4C06A92800A0470028FAD103AB1C2297
:100170001A801B3A5A8026326A44049200221A726C
:100180005A729A72054D074C03A92800A04700280F
:10019000FAD127236B4418780BB030BD9448002067
:1001A0005D08000039080000C000C0B270470000C0
:1001B00030B585B003AB187059702C2269460A809F
:1001C0002A3A4A80019300230B724B728B72044DC2
:1001D000044C69462800A0470028FAD105B030BD7C
:1001E000944800205D08000030B585B003AB18705E
:1001F0005970282269460A80263A4A8001930023D2
:100200000B724B728B72044D044C69462800A04758
:100210000028FAD105B030BD944800205D080000E8
:1002200001680722CB691A42FCD17047F0B5DE465F
:1002300057464E464546E0B58BB007000D00160008
:1002400039600800A04B9847052800D135E104002B
:1002500012349E4AD169012383400B43D36109A91B
:10026000337B0B70E4B22000994B98472000994BE8
:100270009847307B0021984B98472B681C209B07A0
:1002800006D50BB03CBC90469946A246AB46F0BDA5
:100290002B681738DB07F4D438688B4B994698479E
:1002A00004008E498E4B9847A4008E4BE7500023E4
:1002B0003B767B7600247B83BB832522BC543B6248
:1002C00014332B603B6898461800C847814680234A
:1002D00008AA1370547001239370D470F069356AC2
:1002E000002800D1A7E008AB1870022308AA5370B9
:1002F000000CC0B211007C4B9847002D00D19FE04C
:1003000008AB1D70022308AA53702D0CE8B211002F
:10031000754B9847B38AFB80F38A3B81337E8022FA
:10032000002B04D1714B9B789B07DB0FDA01B1687E
:1003300033690B4313432422B25C002A02D080228B
:10034000D2051343B26A13432C22B25C002A03D1B4
:1003500080229204914202D18022120513432D2261
:10036000B25C002A02D08022120413432E22B25C17
:10037000002A02D08022D20313434246126813435C
:100380004246136080235B0053604C461234E0B257
:10039000574B984705000790FA27BF0033685F4323
:1003A00073689A46534CA047029003917800A04787
:1003B00000900191308E6843A0474F4B9B464F4AB7
:1003C0004F4BD8474F4D00224F4BA8470490059103
:1003D0003800A04702000B0004980599D847020096
:1003E0000B004A4C02980399A047009A019BA8472A
:1003F0000022474BA047009A019B464CA047464B22
:100400009847040080239B04B2689A421ED00300E0
:100410004020FF2C00D934E700260020FF241C4098
:10042000360634430004FF231B04184004434346AC
:10043000DC60002025E700214046384B984752E712
:1004400001214046354B9847050059E7FA27BF0080
:1004500053465F430298039902000B00A84700909F
:1004600001913800234B984700222D4BD8470200BA
:100470000B0000980199274EB0470022244B234ED1
:10048000B047254B9847061E0CD039000798254BDE
:1004900098470238801B2300FF2C0CD8FF28BDD9B9
:1004A0004020EEE67900481E079B9C4660441D4BA9
:1004B00098470138EFE74020E3E6044A136A022137
:1004C0000B4313621824CAE6F50E00000004004036
:1004D00051380000E1370000350D000051090000DF
:1004E000352C0000143D00204D3900000020004153
:1004F00075380000855F0000F153000095D626E8AE
:100500000B2E113E6947000000002440F158000006
:100510000000F03F894D00001D5F0000810D0000CC
:10052000000008402944000003681A7E920707D59E
:1005300002221A765B8B9B074120DB17184070471D
:100540005A8B520706D55968C02292020A435A6054
:100550001820F4E70020F2E730B5026800230124F8
:100560000225117E21420BD1117E294206D1013391
:100570009BB201899942F4D8122002E0002000E0E9
:10058000002030BD10B5046862688023DB0213438D
:1005900063606162024B98470123237610BDC04619
:1005A00059050000F0B5DE4657464E464546E0B5D3
:1005B00083B00600894605684C882B681B01DB0F59
:1005C0009A464B7A002B2BD16B68584A13406B60CC
:1005D0004B461B7A002B27D14B461B885B004A46B3
:1005E000527A92031343012213436B623000504B43
:1005F000984701905346002B03D04B465B88012B54
:100600003BD06B68494A13406B60019B002B3AD08A
:10061000019803B03CBC90469946A246AB46F0BD5B
:10062000897A444B9847CFE74B461B885B004A4684
:10063000527A920313438022120213436B623000FA
:100640003B4B984701906B68384A13406B60002819
:10065000DED13000384B984701900028D8D14B4666
:100660001B881B0A782213435B004A46527A920386
:1006700001210A4313436B62B8E76A688023DB02F7
:1006800013436B60C1E730002B4B98470190002863
:10069000BED1013CA4B28046284B9B4615E0012CFC
:1006A00020D03000264B984743465F1CBFB228231A
:1006B000EB5C4A4652684146535430001C4B984705
:1006C000013CA4B2002815D1B8465C4514D06B8B10
:1006D0009B0627D5F37A002BE3D05346002BDED1BF
:1006E000002CDED16A688023DB0213436B60013C7F
:1006F000A4B2EAE7B8460190B37A002B09D13000E2
:100700000F4B98472823EA5C4B465B6841465A5496
:100710007EE730000A4B98476A68C0239B02134368
:100720006B60ECE74123019372E7C046FFFFFBFFDC
:10073000590500008505000029050000FFFF0000A5
:1007400021020000F0B5DE4657464E464546E0B56C
:1007500083B006000F0005684C88324B98477B7ABF
:10076000002B1DD16B68304A13406B603B7A002B25
:100770001BD03B885B007A7A9203134380221202DB
:1007800013436B623000294B98470190002813D027
:10079000019803B03CBC90469946A246AB46F0BDDA
:1007A000B97A3000224B9847DCE73B885B007A7AC5
:1007B000920313436B62E5E730001E4B9847031E1C
:1007C0000190E5D1A046002420339946154B9B4665
:1007D000164B9A46444515D06B8B4A4613421DD0A2
:1007E0003000D8477B681A5D2823EA543000D04790
:1007F000002806D16B8B01345B07EBD51E230193D8
:1008000000E00190B37A002BC2D03000054B98472E
:100810006A68C0239B0213436B60B9E741230193CD
:10082000B6E7C04621020000FFFFFBFF59050000AC
:10083000850500002905000010B5838B9BB20522B9
:10084000002B01D0100010BD01338372C372024B24
:1008500098470200F6E7C046A505000010B5838B57
:100860009BB20522002B01D0100010BD0133837212
:10087000C372024B98470200F6E7C04645070000E6
:1008800001680722CB691A42FCD1704770B5040099
:1008900006683268458B838BED1AADB2838B013BC2
:1008A0009BB2838313011DD5C37A002B03D0838BA6
:1008B0009BB2012B10D0A38B9BB2002B02D1A37A49
:1008C000002B1CD12000124B9847236A5D19282366
:1008D000F35CDBB22B7070BD72688023DB021343C4
:1008E0007360E8E7C37A002BE5D0838B9BB2002BC3
:1008F000E1D172688023DB0213437360DBE72000E1
:10090000034B98477268C0239B0213437360D9E777
:100910008108000070B5040005686B8B5B0703D588
:100920001E222523C25470BD468B838BF61AB6B2A5
:10093000838B013B9BB28383044B9847236A9E19A8
:100940003378DBB22822AB54EDE7C04681080000C3
:1009500070B58000754BC45825682B681B01DA0FF1
:10096000637E267E1E40638B9BB2002B03D1A38B3C
:100970009BB2002B23D1638B9BB2002B08D0A38B9F
:100980009BB2002B04D12533E35C052B00D16DE035
:10099000638B9BB2002B24D0A38B9BB2002B20D067
:1009A0006B8B9B0600D581E0002A04D0A38B9BB201
:1009B000012B00D17AE041222523E25411E02B7E65
:1009C000DB0707D501232B766B8B9B072ED54122A6
:1009D0002523E254A38B9BB263832523E35C052B81
:1009E00038D0638B9BB2002B07D0A38B9BB2002B1C
:1009F00003D12533E35C052B64D02523E35C052B71
:100A000013D02523E35C002B0FD003232B75002389
:100A10006383A3832533E35C412B03D0A37A002BAC
:100A200000D075E0730700D57BE070BD6B8B5B0772
:100A3000D0D518222523E2540023A383A37A002BC8
:100A4000C8D020003A4B98476A68C0239B021343E2
:100A50006B60BFE71F33E35C002B03D02000354BF6
:100A60009847BEE72000344B9847BAE71F33E35C52
:100A7000002B00D08CE703332B75002363832533D1
:100A80000022E254A37A002B07D101232B76F3072F
:100A9000A7D5E36820009847A3E72000244B984798
:100AA0006A68C0239B0213436B60F0E72423E35C76
:100AB000002B03D12000204B984792E720001D4BCC
:100AC00098478EE71F33E35C012B96D12B7E9B0763
:100AD00001D502232B7603232B7500236383253353
:100AE0000022E254B30703D52423E35C012B0BD08F
:100AF000F30700D481E72423E35C002B00D07CE7DC
:100B0000E3682000984778E723692000984774E756
:100B10002000074B98476A68E023DB0213436B60B1
:100B200080E76369200098477FE7C046143D0020B6
:100B3000810800008D0800001509000010B5490863
:100B400040230024814202D2180010BD1C00091A63
:100B5000631C9BB28842F9D94023FF2CF4D814803F
:100B60000023F1E7F0B5DE4657464E464546E0B570
:100B700089B00C00059212AA117805004D4340225D
:100B8000A54207D9100009B03CBC90469946A24640
:100B9000AB46F0BD002B55D1020008000021634D8B
:100BA000A8478346260000270023002400930194D1
:100BB000002200233F2020218C461F3902960397F4
:100BC00014E06446241A0D00E540A84615E0029C96
:100BD000039D121BAB414D46009E019F35433C00D7
:100BE000464634430095019401381DD320246442C5
:100BF0000419E6D40D00A540A8460C008440A14687
:100C000092185B4114001D0046465F463E4203D0E9
:100C10000E00264332002B00029C039D9D42E3D828
:100C2000D5D19442E0D8D2E700220123009801995F
:100C3000121A8B411900130C0A041A43059B1A80DF
:100C400000229FE70022012BF8D1630F0493E300F9
:100C500098460A0000230021344CA04704000D00F0
:100C600000239C46069320339B4601266346079348
:100C700048E05946C91B3000C840824610E0009841
:100C80000199121A8B410299484601430291013F92
:100C900025D3202149427918EBD430008840824680
:100CA0003100B940894692185B4110001900444652
:100CB0004D462C40A4465446049D2C40A246644612
:100CC00055462C4303D03400044322000B00009807
:100CD00001999942DBD8D2D19042D8D8CFE7009C75
:100CE000019D0299079A8B1ADB0811498B4214D98E
:100CF000069B0133DBB219000693130001330793FF
:100D0000082908D000230293002200233F210094E9
:100D100001950F00BDE7402234E7402206990829DB
:100D200000D12FE74A031A4388E7C0461547000061
:100D3000FF1F000010B582B004000E4B1B78002B83
:100D400007D0002905D10B4B5B78834210D01D20C2
:100D50000CE001A90C701120074B98471120074B9C
:100D60009847044B5C7001221A70002002B010BD3D
:100D70000020FBE7CC00002051380000E1370000E4
:100D8000404B984232D00AD93F4B98424ED03F4B0D
:100D900098425BD03E4B984238D000207047842365
:100DA000DB0598420CD03B4B9842F6D1012917D075
:100DB00000295DD0022915D0032915D00020EDE7C8
:100DC000012907D0002951D0022905D0032905D0D7
:100DD0000020E3E73048E1E73048DFE73048DDE76F
:100DE0003048DBE73048D9E73048D7E7012907D05A
:100DF00000293FD0022905D0032905D00020CDE7E6
:100E00002B48CBE72B48C9E72B48C7E7012907D078
:100E1000002931D0022905D0032905D00020BDE7E3
:100E20002648BBE72648B9E72648B7E7012907D097
:100E3000002923D0022905D0032905D00020ADE7E1
:100E40002148ABE72148A9E72148A7E7012907D0B6
:100E5000002915D0022905D0032905D000209DE7DF
:100E60001C489BE71C4899E71C4897E71C4895E7F6
:100E7000032093E71B4891E71B488FE71B488DE74A
:100E80001B488BE7000800420010004200040043AA
:100E9000000C0042000400420300050003000600AD
:100EA000030007000300010003001E0003001F00F1
:100EB0000300090003000A0003000B0003001100F7
:100EC000030012000300130003000D0003000E00D6
:100ED00003000F00030017000300180003001900AF
:100EE00003000400030008000300100003000C00CE
:100EF0000300160030B587B00B4B6A4632CB32C2C6
:100F000032CB32C2009B83420BD001239A00694648
:100F10005258824206D00133062BF7D1002007B089
:100F200030BD0023D8B2FAE760680000F0B5C646CD
:100F300000B50C00904600280FD1002A11DD8F1853
:100F4000094E0A4D306821002B6898470134BC4295
:100F5000F8D1404604BC9046F0BD01235B42984660
:100F6000F7E78046F5E7C046103D0020083D002029
:100F7000F0B5C64600B50E0015000138022810D89D
:100F8000002A11D000240C4B98460C4F4346186899
:100F9000315D3B689847002808DB0134A542F5D154
:100FA00006E00124644203E0140001E001246442ED
:100FB000200004BC9046F0BD103D00200C3D0020F8
:100FC000034B1B68013301D072B6FEE772B6FEE731
:100FD00020000020064A13681868203080F3098832
:100FE000022080F314883FBCAE4662B600BDC04606
:100FF000703B002010B5031F802464041C60043B78
:101000001960043B02491960143B1A60403810BD56
:10101000C10F00007047000080225205034B1A6088
:10102000BFF34F8FBFF36F8F7047C04604ED00E0F2
:1010300072B6044A136801331360BFF34F8FBFF3D6
:101040006F8F704720000020064B1B68002B01D1DA
:1010500072B6FEE7013B034A1360002B00D162B673
:101060007047C04620000020EFF3108072B6704732
:10107000002080F310887047EFF309800E4B1A6848
:1010800020381060F0C044464D4656465F46F0C0DA
:1010900008B572B600F026FF62B60CBC116808688D
:1010A0001030F0C8A046A946B246BB4680F3098876
:1010B0002038F0C81847C046703B002010B5074BD9
:1010C00098470400064B9847002803D08022520519
:1010D000044B1A602000044B984710BD69100000B3
:1010E000D51B000004ED00E0731000000022044B4B
:1010F0001A60044A044B1A600722044B1A607047B6
:1011000018E000E03F1F000014E000E010E000E005
:1011100010B50A4B1968FF2212040A431A601968B5
:10112000FF2212060A431A60054B98470022054B1E
:101130001A60054B9847054B9847C04620ED00E0E4
:10114000ED10000020000020D50F0000C10F0000AE
:1011500070B50400430702D007239C430834114BA9
:101160009847114B1B68002B10D0104B1B68E418DC
:101170000F4A944211D8A34211D20B4A1568ED18B8
:101180000A4B1C600B4B9847280070BD07220A4B86
:1011900008339343044A1360E7E70025F2E700258C
:1011A000F0E7C046A51B0000D00000206C3B0020EB
:1011B0008F3A0000F91C0000D4000020002801D064
:1011C00072B6FEE7704703000833436001225242C3
:1011D0008260C360036100230360704700230361E2
:1011E000704743684B609A688A609A68516099605A
:1011F0000861036801330360704730B50C68020072
:101200000832631C02D1026904E01A0053681D68A9
:10121000AC42FAD253684B6099608A6051600861B1
:1012200003680133036030BD0369426881689160DF
:101230008268416851605A68904205D0002202617C
:101240001A68501E1860704782685A60F6E70000FE
:1012500070B504001500026C002A0BD10368002B46
:1012600004D14068174B984700236360A36B013398
:10127000A36370BD002D0DD18068134B9847A36800
:10128000226C94466344A36062689342EED3236861
:10129000A360EBE7C0680C4B9847236C5B42E268A5
:1012A000D218E26021688A4203D26268944663449D
:1012B000E360022DDAD1A36B002BD7D0A36B013BE7
:1012C000A363D3E7FD2100007960000010B582B070
:1012D00001900A00C46C002C05D0A16BE36B99420D
:1012E00003D372B6FEE772B6FEE7A16B00208B4215
:1012F00001D802B010BD01A92000064B984700207C
:10130000636A002BF5D020002430034B9847431E1E
:101310009841EEE7511200002D20000070B50C003E
:10132000016800290BD0026CC3689B18C360456834
:10133000AB4200D3C160C1682000014B984770BD2B
:1013400079600000F8B50400254B9847A36C002B8A
:101350001EDD244D244E0DE0636A002B18D02000C2
:101360002430B047002810D1A36C013BA364A36CC8
:10137000002B0DDDE36C002BEED000212000A847F0
:101380000128F1D1194B9847EEE7184B9847EBE746
:1013900001235B42A364164B9847114B9847636C3B
:1013A000002B16DD2369002B13D0250010350E4FBE
:1013B0000E4E08E0636C013B6364636C002B08DD38
:1013C0002369002B05D02800B8470028F2D0B04789
:1013D000F0E701235B426364054B9847F8BDC046C4
:1013E00031100000CD1200002D200000452100002A
:1013F0004910000070B504000D00002820D0174BE4
:1014000098472268216CE36B4B43D0186060002042
:10141000A063A2605B1AD318E36001235B4263649C
:10142000A364002D11D12369002B05D020001030BA
:101430000B4B9847012805D00A4B9847012070BDF7
:1014400072B6FEE7084B9847F6E720001030074DCC
:10145000A84720002430A847EEE7C046311000001E
:101460002D2000004910000019100000C7110000D5
:1014700070B505000E00002819D050200D4B98477C
:10148000041E14D03000684301300A4B9847206096
:10149000002809D0E563266401212000064B984707
:1014A0000023E364200070BD2000044B984772B60F
:1014B000FEE7C04651110000F5130000BD11000009
:1014C000F0B5CE46474680B585B004000F000192C6
:1014D0001D0000280CD000290CD0022D0FD0484B45
:1014E0009847002810D1019B002B11D072B6FEE75F
:1014F00072B6FEE7036C002BEFD072B6FEE7E36B2B
:10150000012BECD072B6FEE700263E4B984647E032
:101510000026FAE72A00390020003B4B9847E36C8D
:10152000002B0FD029002000384B9847012801D10B
:10153000374B9847374B9847012005B00CBC904675
:101540009946F0BD636A002BF4D020002430324B62
:1015500098470128EED12E4B9847EBE72D4B984743
:101560000020EAE72B4B984701A902A82B4B98478C
:1015700000283ED1234B9847A36B9946E66B254B39
:101580009847B1452FD1200010300199244B98473E
:101590002000244B9847244B9847002820D0012650
:1015A000C047A36BE26B9342B4D3022DB2D0019B30
:1015B000002BD3D0002E02D102A81C4B9847154B0C
:1015C00098471B4B98470F4B9847636C013301D1E9
:1015D00000236364A36C0133C4D10023A364C1E777
:1015E0000B4B9847DBE720000E4B98470E4B984774
:1015F000D5E720000B4B98470B4B984700209CE702
:101600005D2100003110000051120000CD120000D9
:1016100019100000491000002D200000D520000006
:10162000951F000045130000F91C0000B5200000C4
:10163000A51B0000F0B583B004000F0016001D00CC
:10164000002811D0002911D0022D14D0264B984724
:101650000190A36BE26B9A422ED800250198234B90
:101660009847280003B0F0BD72B6FEE7036C002B6C
:10167000EAD072B6FEE7E36B012B19D072B6FEE733
:101680000125636A002BE9D020002430184B9847CD
:101690000028E3D0002E09D001233360DEE7A36CDD
:1016A0000133A3640125D9E70125D7E70125D5E753
:1016B0000D4B98470190A36B2A00390020000D4B79
:1016C0009847A36C0133EAD1E36C002BD8D02900F2
:1016D0002000094B984701250128BFD1002EE3D0F7
:1016E00001233360BAE7C0466910000073100000A0
:1016F0002D20000051120000CD120000F0B5C646AA
:1017000000B584B004000E0001921F0000280AD02A
:1017100000290AD04D4B984700280BD1019B002B84
:101720000CD072B6FEE772B6FEE7036C002BF1D068
:1017300072B6FEE70025464B984642E00025FAE7E0
:10174000E56831002000434B9847002F1AD1A36B66
:10175000013BA3632368002B02D13F4B9847606095
:101760002369002B07D0200010303C4B98470128FC
:1017700001D13B4B98473B4B9847012004B004BC38
:101780009046F0BDE560636A002BF4D02000243061
:10179000324B98470028EED0314B9847EBE7314B5E
:1017A00098470020EAE72A4B984760682E4B9847F5
:1017B0002C4B984733E020002C4B98472C4B9847F4
:1017C0000125C047A36B002BBAD1019B002BE6D0AB
:1017D000002D02D102A8274B9847224B9847264B51
:1017E00098471B4B9847636C013301D10023636416
:1017F000A36C013301D10023A3641A4B984701A9BC
:1018000002A81E4B9847002818D1114B9847A56B8A
:10181000144B9847002DCED12368002BC3D0200055
:1018200024300199164B98472000104B9847104BD5
:1018300098470028C4D10A4B9847C1E720000B4BBA
:1018400098470B4B9847002098E7C0465D21000061
:10185000311000001D130000512100002D20000058
:1018600019100000491000007D2100004513000000
:10187000F91C0000B5200000A51B0000D5200000C9
:10188000951F000070B504000D000E4B9847636C67
:1018900001330BD0A36C01330BD00B4B9847A36BD8
:1018A000002B09D02000094B984770BD00236364CA
:1018B000F0E70023A364F0E7200024302900044B64
:1018C0009847EFE731100000491000004513000071
:1018D000ED1F0000084B1B681B68002B07D0064B50
:1018E0001B68DB68DB685A68044B1A60704701228A
:1018F0005242024B1A60F9E7743B0020240000209A
:1019000010B504000E4B1B6858600E4B1B689842C4
:101910000DD30D4B18680A4B196804310B4B9847CF
:101920000B4B1B689C4209D2094B1C6006E0094B1B
:101930001868034B19680431044B984710BDC04622
:10194000703B0020643C0020743B0020FB11000031
:1019500024000020783B0020F0B5D64600B582B0C8
:1019600005000F0016000193089B9A46002803D03B
:10197000042B03D972B6FEE772B6FEE740205A4B3D
:101980009847041E0DD00A9B002B00D094E0B000B5
:10199000554B98472063002800D08FE02000534B20
:1019A00098470120404277E0013701338B4204D051
:1019B0003878187038780028F6D100223B23E2549A
:1019C0005346E362E363231D00931800484FB84772
:1019D00020001830B8472461052352469B1AA361A2
:1019E0006462019A29003000424B98472060099BAD
:1019F000002B00D01C60404B9847404A13680133CD
:101A000013603F4B1B68002B4AD13D4B1C60136891
:101A1000012B1FD13B4E30003B4DA8473000143006
:101A2000A84730002830A84730003C30A847300095
:101A30005030A847354F3800A847354E3000A847EA
:101A40003448A8473448A8473448A847344B1F6057
:101A5000344B1E60344A136801331360E36A334A1F
:101A60001268934201D9314A13609800C01880006F
:101A7000244B181800992E4B98472E4B98472E4B05
:101A80001B680120002B07D01D4B1B68DB6A9A45A1
:101A900002D92A4B9847012002B004BC9246F0BDFF
:101AA000254B1B68002BD5D1154B1B68DB6A9A456B
:101AB000D0D3134B1C60CDE70A9B0363204BF31874
:101AC0009B00226B94466344072293431E003A789E
:101AD0003423E2543B78002B00D16EE7013723001A
:101AE000353321003C3163E751110000BD11000086
:101AF000DD110000F50F000031100000E03B002078
:101B0000703B00207C3B0020C7110000F83B002008
:101B10000C3C0020243C0020503C00203C3C002099
:101B2000743B0020783B0020EC3B0020F43B00207D
:101B3000E311000049100000383C0020191000009B
:101B4000FFFFFF3F10B584B000230393029301937E
:101B5000009364220C490D480D4CA047012803D086
:101B600000280ED172B6FEE70A4B98470128F7D13C
:101B700072B60122084B1A600022084B1A60084B0B
:101B8000984704B010BDC04678680000551E00009C
:101B90005919000001230000383C0020643C00205B
:101BA00011110000024A1368013313607047C046E8
:101BB000E83B002010B5044B9847044B1C68044BCD
:101BC0009847200010BDC04631100000643C002042
:101BD00049100000F0B583B0394B1B68002B61D170
:101BE000384B1A6801321A601E68002E12D1364B2B
:101BF0001B681B68002B01D072B6FEE7324A1168E1
:101C0000324B186810601960314A13680133136051
:101C1000304B9847304B1B6800249E4233D300243E
:101C2000294F3B681B68002B29D0274B1B68DB68BA
:101C3000DD686B689E4232D32B1D01931800274B41
:101C40009847AB6A002B03D028001830234B9847E5
:101C5000EB6A234A1268934201D9214A1360980023
:101C6000C01880001F4B181801991F4B98471F4B35
:101C70001B68EA6ADB6A9A42D3D30124D1E70122C6
:101C80005242154B1A60194B1B68DA6A93009B1875
:101C90009B00144A9B58012B09D9012407E00E4AE6
:101CA0001360F0E7124A1368013313600024114BEC
:101CB0001B68002B00D00124200003B0F0BDC046FB
:101CC000E83B0020643C0020743B0020783B00206F
:101CD000203C0020D518000024000020291200001C
:101CE000F43B00207C3B0020E3110000703B00200F
:101CF000E43B0020683C0020F8B5314B1B68002B0A
:101D000001D172B6FEE72F4B98472D4B1A68013A66
:101D10001A601B680024002B03D12B4B1B68002B7F
:101D20002AD12A4B98472000F8BD9800C01880009F
:101D3000274B18182900274B9847274B1B68FA6A2E
:101D4000DB6A9A4214D23368002B18D0E368DF684C
:101D500038001830214B98473D1D28001F4B9847ED
:101D6000FB6A1F4A12689342DFD91D4A1360DCE701
:101D700001221C4B1A60E6E71B4E3400E3E71B4BC5
:101D80001B68002B13D0194B1B68002B0FD0184E6B
:101D9000144D164C05E02368013B23602368002B9B
:101DA00005D0B0470028F6D001232B60F3E70D4B98
:101DB0001B680024012BB4D10E4B98470134B0E7C7
:101DC000E83B002031100000E03B002049100000FB
:101DD0007C3B0020E3110000703B00202912000032
:101DE000F43B0020683C0020243C0020E43B002021
:101DF000D51B00001910000010B5041E16D00D4BA5
:101E00001B68002B01D072B6FEE70B4B98470B4BBB
:101E10001B68E4180A4B186804300A4B98472000E6
:101E2000094B9847094B9847002801D1084B984720
:101E300010BDC046E83B0020A51B0000643C00200C
:101E4000703B00202912000001190000F91C00005D
:101E500019100000F8B5CE46474680B5164B984697
:101E6000164F174E26E0174B1B68012B20D82B6806
:101E7000002BF8D0C0473C68B047002CF7D0124B7D
:101E800098470E4BDB68DC68201D104B9847104AC2
:101E90001368013B13600F4A1368013B13600E4B3C
:101EA0009847206B0D4B994698472000C847DEE7BE
:101EB0000B4B9847074DDAE7A51B0000503C00206C
:101EC000F91C00007C3B00203110000029120000AA
:101ED000E03B0020F03B002049100000BD11000055
:101EE0001910000010B5264B1B68002B21D10022D1
:101EF000244B1A60244B1A6893009B189B00234ABA
:101F00009B58002B19D1204B1B68002B0FD01E4A69
:101F10001E4C10001368013B136011688B005B18A6
:101F20009B001B59002B08D10368002BF2D172B61D
:101F3000FEE70122134B1A6010BD134B1A681348B9
:101F400093009918890041184C6864684C609B188C
:101F50009B000833C3189C4209D093009A18920042
:101F60000A4B9A185368DA68094B1A60E4E760680C
:101F700093009B189B000549CB185860EDE7C046BD
:101F8000E83B0020683C0020F43B00207C3B002024
:101F9000703B002070B50C00002810D00C4D296853
:101FA00018310C4B9847286804300B4B9847631C3A
:101FB00007D00A4B18682018094B984770BD72B6B5
:101FC000FEE7034B196804310648074B9847F5E7CD
:101FD000703B0020FB11000029120000643C00202F
:101FE000011900003C3C0020E311000070B50D0019
:101FF000002801D172B6FEE7074C21681831074B63
:10200000984720680430064B9847064B18684019DB
:10201000054B984770BDC046703B0020E31100009F
:1020200029120000643C00200119000070B5C3684B
:10203000DC68002C27D0250018352800154B984760
:10204000154B1B68002B20D1251D2800114B9847EC
:10205000E36A124A1268934201D9104A1360980049
:10206000C01880000E4B181829000E4B98470E4BD5
:102070001B68E26ADB6A00209A4203D901220B4BFB
:102080001A60013070BD72B6FEE729000848054BA2
:102090009847ECE729120000E83B0020F43B0020C1
:1020A0007C3B0020E3110000703B0020683C0020D6
:1020B000243C0020002806D0044B1B680360044B1E
:1020C0001B684360704772B6FEE7C046203C0020A4
:1020D000643C002070B504000E0000281AD00029CE
:1020E0001AD0134B9847134B1A683368591C1DD0EC
:1020F000114909682068884203D0012561688A4235
:1021000004D26168501A0125834207D80B4B9847C7
:10211000280070BD72B6FEE772B6FEE79B1A5B1828
:1021200033602000064B98470025EFE70025EDE7D8
:1021300031100000643C0020203C002049100000C9
:10214000B52000000122014B1A607047683C002056
:10215000014B18687047C046703B0020054B1B6858
:102160000120002B04D0044B186843425841400022
:102170007047C046383C0020E83B002070B5041E84
:102180001AD0C26A184B1B68DB6A9A4214D2836960
:10219000002B05DB144B1B68D96A05235B1A83618E
:1021A00093009B189B00114AD31862699A4204D08D
:1021B0000D4B1B68DB6AE36270BD251D28000C4BCC
:1021C0009847094B1B68DB6AE3620A4A126893422C
:1021D00001D9084A13609800C0188000034B1818F2
:1021E0002900054B9847E7E7703B00207C3B002027
:1021F00029120000F43B0020E311000070B5041E1A
:102200001DD0C36AC26B934219D0051D28000C4B28
:102210009847E06BE062A369002B02DB05231B1AE1
:10222000A361084B1B68984201D9064B18608300D4
:1022300018188000044B18182900044B984770BDEB
:1022400029120000F43B00207C3B0020E311000039
:1022500010B54160006191420BD8D21A0124836904
:102260009A4211D2011D094B1868094B9847002466
:102270000AE09A4202D20124994205D2011D054B7F
:102280001868034B98470024200010BD703C0020C4
:10229000FB1100006C3C002070B5104B9847104BB0
:1022A0001B68002B02D00F4B984770BD0E4D2800C5
:1022B0000E4EB0470E4C2000B0470E4B1D600E4B2B
:1022C0001C6000220C2102200C4B9847002802D0F1
:1022D000034B1860E7E772B6FEE7C0463110000016
:1022E000A03C002049100000743C0020C7110000F1
:1022F000883C00206C3C0020703C002071140000E1
:1023000010B584B00B4B98470B4B1B68002B0FD0BC
:10231000002303930293019302330093002350227E
:1023200006490748074CA047002801D004B010BD5B
:1023300072B6FEE799220000A03C0020A8680000C9
:10234000652400005919000030B585B01D00134BFD
:102350001C68002C20D0019102920390052913DC07
:102360000F4B9847022807D00C4B18680023002217
:1023700001A90C4CA0470DE0084B18680023089AEF
:1023800001A9084CA04705E000232A0001A920006C
:10239000054CA04705B030BD0020FBE7A03C002065
:1023A0005D210000C114000035160000F0B5D646CE
:1023B0004F464646C0B582B08146234B984780467B
:1023C000224B1B68984217D300234A4613601F4BC9
:1023D00042461A60404602B01CBC90469946A2464E
:1023E000F0BD00230093524600212000184CA04766
:1023F000002803D172B6FEE7164E174F33681A68ED
:10240000002A18D0DB681A689246DC68251D28006F
:10241000B8472000636A9847E369012BEED1A369AE
:1024200053449A45DDD2636024610A4B1868290041
:102430000A4B9847E2E70A4A0649106808601360A9
:1024400001234A461360C2E7B51B00009C3C0020F4
:10245000492300006C3C002029120000FB11000001
:10246000703C0020F0B589B0504F514B1B681A6882
:10247000002A00D18CE0DB681D684E4B984705A808
:102480004D4B98470400059B002B00D08BE0A842E1
:1024900025D2291B494B1868494B9847494B984707
:1024A000002840D0454D484C0023002205A928684B
:1024B000A0470028D9D0059B0393002BF4DB079E8F
:1024C0007369002B01D0301DB84704A83A4B9847D8
:1024D000059B092BE8D89B003C4AD3589F46394BB3
:1024E0009847334B1B68DB68DE68301D2F4B9847DD
:1024F000F369012B03D0736A30009847D2E7B369C0
:10250000E9182B0022003000314CA0470128F2D1FD
:10251000002300932A00002130002E4CA047002801
:10252000E9D172B6FEE72C4B9847BBE7069BB26930
:10253000944663441900069B02003000244CA047D7
:102540000128B0D13000736A9847F369012BAAD1F2
:10255000069BB1698C4663441A0000230093002156
:1025600030001C4CA04700289DD172B6FEE70699AA
:10257000B161002906D04118030002003000144C5C
:10258000A04790E772B6FEE73000144B98478AE701
:10259000084B984705A8084B984704000025059B61
:1025A000002B00D175E7074B98477BE72912000005
:1025B0006C3C0020A51B0000AD230000A03C0020C7
:1025C00085180000F91C0000FD160000806800005E
:1025D000512200004923000019100000BD11000025
:1025E000F0B5DE4657464E464546E0B591B005008B
:1025F0000C00160029600800C34B9847020005280C
:102600000DD007001237030021680520C90709D53E
:1026100011B03CBC90469946A246AB46F0BD182787
:102620000123F1E7216817308907F1D4052A47D043
:10263000B649C86901229A4013000343CB610FA930
:102640002D239846F35C0B70FFB23800B04B9847CF
:102650003800B04B98474346F05C0021AE4B98479A
:10266000F37A6B712423F35CAB712523F35CEB717C
:10267000F37E2B72337F6B722B6898461800A24B47
:102680009847123000220E2306A98C4663441A8014
:10269000328A02928023DB019A4200D1A7E017D947
:1026A000C023DB01029A9A4200D19BE080231B02E7
:1026B0009A4200D023E1032306930023079310E0FE
:1026C0009249086A043A9A40130003430B62B6E742
:1026D00080239B019A4200D011E1102306930F3B07
:1026E000079333680593F3689B4673690393337EBE
:1026F00004932623F35C9A4673689946002B00D115
:102700009DE080235B05994504D12723F35C002BD2
:1027100000D182E0737E002B02D0B37E42469373D9
:102720002A68029FD369002BFCD10E3306AA944677
:1027300063441B8842469381059B5A461343039A80
:1027400013434A4613431F43049B1B021F43534634
:102750005B071F432723F35C002B01D104331F4386
:10276000737E9B02327F52021343727F1202134325
:102770002422B25C520413432522B25C1204134398
:10278000F17A19433389FF2B7DD0802252041743FD
:1027900019432C23F35C002B03D1604B9B789B07E0
:1027A00001D580231F432A68D369002BFCD14346FF
:1027B00059602A68D369002BFCD143461F600EABD9
:1027C00080221A7000225A70DA709A70336B0A9362
:1027D000736B0B93B36B0C93F36B02930D93002706
:1027E0000AAE5EE008230693073B079379E7336858
:1027F0000593F3689B4673690393337E0493262302
:10280000F35C9A4673689946002B14D080235B05CD
:10281000994500D179E7002020E0336A1F00C0B25B
:102820003F4B984701000E2206AB9C46624438009D
:102830003C4B984712E00823069300230793272375
:10284000F35C002B0ED0069B0093079B0E2206A97B
:102850008C466244B16A306A334FB847002800D0D2
:10286000D6E657E7336A1F00C0B22D4B98470100E8
:10287000069B0093079B0E2206A8844662443800FC
:10288000294FB847EAE7F37E002B82D08023DB0490
:102890001F437EE72000254B984707E00137042FB0
:1028A0000DD0F9B2BB0098590028F3D0431CF5D0E5
:1028B0000EA90870000CC0B21D4B9847EEE700232C
:1028C000EB602B616B61AB61EB612B62AB626B62A6
:1028D0000022EB85AB853033EA540133EA540133EF
:1028E000EA540133EA542868074B98470400114919
:1028F000114B9847A400114BE550002088E61023A7
:10290000069300230793ECE6F50E00000004004058
:1029100051380000E1370000350D00000020004173
:10292000753800003D0B0000650B0000810D0000B4
:102930004D3900009D2A0000352C0000143D002078
:10294000C2791C23002A01D118007047C28D92B2AF
:10295000173B002AF8D10368DA69002AFCD11985EF
:1029600002211A7E0A42FCD00023EDE782791C2363
:10297000002A01D118007047828D92B2173B002ABD
:10298000F8D10268107E4007F4D5D369002BFCD142
:10299000538BDBB298061DD0980703D502235383CF
:1029A0001833E7E7580703D5042353831A33E1E7C5
:1029B000D80703D5012353831233DBE7D80603D5A9
:1029C000102353833233D5E79B0603D5202353834B
:1029D0002133CFE7138D0B800023CBE7F0B5CE4634
:1029E000474680B583B0050001911720002A04D125
:1029F00003B00CBC90469946F0BDEB790530002B36
:102A0000F6D02C68E369002BFCD1013A93B29946C9
:102A1000002601271F4B984611E0731C9BB2019AB8
:102A2000915D6A79012A17D089B21E0028001A4BDD
:102A300098474B46013B9BB29946434513D0237EB2
:102A40003B42EAD1134B227E3A42E6D1012B19D008
:102A5000013B002BF7D1E0E70236B6B2019AD35C16
:102A60001B021943E2E7237E9B070DD4094B022189
:102A7000227E0A420AD1012B0AD0013B002BF7D15A
:102A80000020B5E71220B3E70020B1E70020AFE750
:102A90001220ADE7FFFF000041290000F8B58000DB
:102AA000624BC5582C68E369002BFCD1237EA67DC0
:102AB0001E403023EB5C3122AF5C1F40F30722D570
:102AC000EB8D9BB2002B1CD0AA6A1378DBB2511C91
:102AD000A962697901290ED09BB2DB05DB0D238544
:102AE000EB8D013B9BB2EB85002B0CD101332375A1
:102AF0000133A37507E0517809020B430232AA6241
:102B0000EBE701232375B30706D5022323750022C3
:102B10003133EA54FB071AD4730765D5AB8D9BB2EA
:102B2000002B5FD0638BDBB21A0714D43F22134013
:102B3000002B34D09A0711D51A223223EA54303BA5
:102B400063837B0750D528006B6998474CE02800C9
:102B5000EB689847E0E737221340E9E75A0705D5C5
:102B60001E223223EA542E3B6383EAE7DA0705D5B7
:102B700013223223EA54313B6383E2E7DA0605D5B8
:102B800042223223EA54223B6383DAE720221A42AC
:102B9000D7D021323223EA54123B6383D1E7238D0D
:102BA000DB05DB0DDAB2696A0A706A6A511C696278
:102BB0006979012910D0AB8D013B9BB2AB85002B0D
:102BC00012D10433237500222E33EA54BB070BD5F0
:102BD00028002B69984707E01B0A53706B6A013382
:102BE0006B62E8E704232375F30604D510232375ED
:102BF0002376FB060ED4B30604D520232375237653
:102C00003B070BD4330704D5082323752376BB0673
:102C100008D4F8BD2800EB699847ECE72800AB69B9
:102C20009847EFE72B6A28009847F2E7143D002009
:102C300070470000F0B50A4B1B78002B0CD1094FF0
:102C4000094E0A4D0024DE515A1914600433182B22
:102C5000F9D10122024B1A708000024BC150F0BD25
:102C6000A43C0020A83C0020312C0000143D002092
:102C700000B583B008236A461370013353700133E3
:102C800093700133D3700133137101335371034BCC
:102C900098476B46185603B000BDC046F50E0000BD
:102CA00010B5024B1B680020984710BDA83C0020BF
:102CB00010B5024B5B680120984710BDA83C00206E
:102CC00010B5024B9B680220984710BDA83C00201D
:102CD00010B5024BDB680320984710BDA83C0020CC
:102CE00010B5024B1B690420984710BDA83C00207A
:102CF00010B5024B5B690520984710BDA83C002029
:102D000070B50020084B98470500084CFA2189004F
:102D1000A047074B186007492800A047064B1860DA
:102D20000522064B1A6070BD75370000294400006B
:102D30002800002040420F002C00002010E000E09E
:102D400030B5084B1C68084A00258021490201382B
:102D500007D3002CFBD05460956013680B42FCD065
:102D6000F5E730BD2800002010E000E00C4B1B68A8
:102D7000002B06D1EFF31083002B07D00022094B64
:102D80001A70074A136801331360704772B6BFF3B5
:102D90005F8F0022044B1A700132024B1A70F0E769
:102DA000C03C0020C43C002030000020084B1A68C2
:102DB000013A1A601B68002B09D1064B1B78002BC7
:102DC00005D00122044B1A70BFF35F8F62B67047C3
:102DD000C03C0020C43C002030000020F0B583B08F
:102DE00001AC012565700027A77025702100152012
:102DF0000A4EB04780229203094B9A612570210048
:102E00002C20B04780225201064B5A612770657012
:102E100021000220B04703B0F0BDC0469D34000041
:102E200000280040802800400020704710B5002393
:102E30000022037043708370C37000210383036218
:102E4000C36101240471C0246401C4800172427210
:102E50008272C27202732A24025542738273C27351
:102E600003610275063C0255C3840385417510BD9C
:102E7000F0B5CE4600B59AB005000C00160008006B
:102E8000B24B98472C60B24A136A08210B43136275
:102E900022780523D20704D518001AB004BC914645
:102EA000F0BD2A68138C9BB2002BFBD122781C3317
:102EB0009207F1D473782B71002B04D1A54AD36902
:102EC00004210B43D3610023AB60EB602B61AB7635
:102ED000EB762B832B7780009F4BC5502A23F35C26
:102EE000002B05D1337B002B02D101336B7701E03E
:102EF00000236B772F6833786A46137069461E206B
:102F0000964B98471E20964B9847347960229549F6
:102F100002A8954B9847132C0BD9F488602291494D
:102F200002A8914B9847132C11D900248E4B994637
:102F30001EE0A40002ABE05801A900234B70CB7047
:102F40008B7001330B70C0B2884B9847E5E7A40043
:102F500002ABE05801A900234B70CB708B7001339A
:102F60000B70C0B2814B9847DFE70134142C18D0A6
:102F70000123A34032691A42F7D06022794902A89E
:102F8000C847132CF1D8A30002AA985801A900231E
:102F90004B70CB708B7001330B70C0B2734B984782
:102FA000E3E7737B9B01B27BD2011343DBB23B703F
:102FB000337DDB0172781343DBB2BB70F378342BC3
:102FC00000D940E19B006A4AD3589F460422102052
:102FD00002211AE0717A327A102016E006221020BF
:102FE000012112E00822102000210EE000223020F2
:102FF00000210AE000222020002106E0002200201B
:10300000002102E0022210200121090170230B405F
:1030100013433B732A68138C9BB2002BFBD1727D48
:1030200017333F2A00D937E7F37BDB011A43D2B2CB
:103030007A732A68138C9BB2002BFBD1B3787B7018
:103040002423F35CDB00327B92001A43F37A1343B0
:10305000B27A5200134303437B812A68138C9BB2DC
:10306000002BFBD1328B002A20D0102800D1C9E0E0
:1030700000D883E0202800D1A3E0302816D1F37ACD
:10308000002B0AD0F16980311723FF2900D903E70B
:10309000316A8031FF2900D9FEE61723F169FF2943
:1030A00000DDF9E6316AFF2900DDF5E67B891A4388
:1030B0007A812A68138C9BB2002BFBD1B38BFB81E6
:1030C0002A68138C9BB2002BFBD1338C3B822A687D
:1030D000138C9BB2002BFBD13379F28813433B81D5
:1030E0002A68138C9BB2002BFBD12A33F35CFB7054
:1030F00007233B711D33F35C002B1BD0F28C1D4961
:1031000017238A4200D9C7E67A822A68138C9BB2B9
:10311000002BFBD1318D80231B01CA18154892B2B8
:103120001723824200D9B7E6B9822A68138C9BB272
:10313000002BFBD1104B1B681A02E021C9000A408A
:103140009B065B0F1343BB850023A5E6292E0000D9
:1031500000040040001400402C3D002051380000C5
:10316000E137000084690000796000004D390000FB
:10317000B0680000FF0F000020608000002895D19B
:10318000F37A002B12D0F369802000018446634457
:1031900019002E481723814200D97DE6336A634423
:1031A00019002A481723814200D975E627491723B9
:1031B000F069884200DD6FE6306A884200DD6BE628
:1031C00074E7F37A002B12D0F369802080008446E4
:1031D000634419001E481723814200D95CE6336A14
:1031E000634419001A481723814200D954E618494C
:1031F0001723F069884200DD4EE6306A884200DD20
:103200004AE653E7F37A002B12D0F36980200002DC
:103210008446634419000F481723814200D93BE6D6
:10322000336A634419000B481723814200D933E6FF
:1032300008491723F069884200DD2DE6306A88428C
:1032400000DD29E632E7172326E6C046FF0F00001F
:10325000FF030000FFFF000070B52E4B1C682368C1
:103260009D79EDB2EA072DD5E27ED2072AD5A27E5E
:10327000D20727D501229A716269931C6361236882
:103280009B8C9BB21380238B013B9BB22383002B2F
:1032900015D0637F002B15D02268D3795BB2002B49
:1032A00010DB138C9BB2002BFBD1137E02210B434E
:1032B00013762268138C9BB2002BFBD102E0237F94
:1032C000052B16D06B0708D5042322689371E37E83
:1032D0009B0702D5A37E9B0714D4AB0708D5022316
:1032E00022689371E37E5B0702D5A37E5B070DD452
:1032F00070BD002323770133226813712000A36877
:103300009847DFE72000E3689847E6E72369200055
:103310009847EDE72C3D0020931C9B00195001239A
:1033200093401A00837E13438376704710B5038B56
:103330009BB20524002B01D0200010BD037F052B7C
:10334000FAD00523037702834161043B026853717D
:10335000437F0024002BEFD00268138C9BB2002B1C
:10336000FBD1137E02210B4313760268138C9BB2B0
:10337000002BFBD10024DFE700B583B001A80023B8
:103380000370094B9847094A136A40210B431362A3
:10339000074B1A783F390A431A701A7801310A43E9
:1033A0001A7003B000BDC04655350000000400404F
:1033B000001800438023DB01438100230373437320
:1033C0008373C37303744374837480229203026013
:1033D0004360C0235B01038170470000037B5A1EDA
:1033E00093419A02437B002B02D080239B001A4317
:1033F000837B002B02D080235B001A43C37B002B0E
:1034000001D080231A43037C002B01D040231A43B0
:10341000837C002B01D004231A43036841680B43CB
:1034200041890B43417C0B4301890B431343014A00
:10343000D360704700180043002809D001280DD040
:1034400002280AD1084AD36802210B43D36004E062
:10345000054A536802210B4353607047024A936840
:1034600002210B439360F8E700180043031E09D0C4
:1034700001280CD00020022B08D1074B9878400778
:10348000C00F03E0044B9878C007C00F7047024B91
:1034900098788007C00FF9E70018004300B583B0A3
:1034A00001AB80221A700A785A704A789A708A782A
:1034B000DA701900014B984703B000BD4D39000088
:1034C00010B5082803D880001C4B1B589F460020CD
:1034D00032E01B4B18692FE01A4B187D0007800F54
:1034E000431C1948584327E0154B586924E0144BF6
:1034F0001B6800209B071FD5124980225200CB6811
:103500001342FCD00E4B1B685B0701D40F4813E03D
:1035100000200F4B98470A4B9B681B041B0C584319
:103520000AE02823074AD35C00209B0704D5044BFC
:10353000D86801E08020000210BDC046E4690000A8
:10354000C83C0020000C004000093D00006CDC027B
:10355000753800000549CB69007801220240D2038A
:10356000034803401343CB617047C046001000403E
:10357000FF7FFFFF10B584B0802252002F4B9A606E
:10358000FD3A2F4B9A602F4A53681E218B4353609C
:103590008023DB059B78022B0FD08023DB059B78F3
:1035A0005BB2002B09DB8023DB0501229A7101321B
:1035B0009A701A009379002BFCD0204B197D802241
:1035C00052420A431A751A7D40218A431A751E4BCE
:1035D00098471E4C0123A3716371237101A94B60AD
:1035E00000234B7006220A700B724B720020184B9E
:1035F00098470020174B98470020174B9847217990
:10360000C9B2164B9847164B984214D88023DB0555
:103610009B78002B0FD08023DB059B785BB2002BBF
:1036200009DB8023DB0501229A7100229A701A00BF
:103630009379002BFCD004B010BDC046000C0040B4
:1036400000140040004000416536000000040040C6
:103650008936000035370000753700002944000026
:10366000001BB700064A536940210B4353610122F6
:10367000044B1A7019000B781342FCD17047C046F6
:10368000000400400018004070B504000D784B782D
:10369000002B02D08023DB001D434B7A002B02D08D
:1036A00080231B011D43486801280FD9431E18427F
:1036B00031D102282DD90223002201325B00984229
:1036C000FBD880235B011D43120415430B7A002BAA
:1036D00002D080239B011D430426A6401149124AB3
:1036E0004B6813401E42FBD1104B9847A4000D4B72
:1036F0009C466444226A80235B001A402A4322626B
:103700006146094A4B6813401E42FBD1084B98475B
:1037100070BD0022D5E7000480239B0018430543B9
:10372000D4E7C04600180040FC0700006D2D0000E3
:10373000AD2D000010B504000422824009480A495A
:1037400043680B401A42FBD1084B9847A400054B35
:103750009C466444226A80235B0013432362044B2B
:10376000984710BD00180040FC0700006D2D0000B8
:10377000AD2D0000F8B50400042282401248134920
:1037800043680B401A42FBD1114B98470E4F083447
:10379000A400E0590007000F0E4B98470600E559BA
:1037A000ED04ED0FE459240C0B4B9847002D07D185
:1037B000012C07D921003000084B9847060001E092
:1037C0000134E6403000F8BD00180040FC0700005E
:1037D0006D2D0000C1340000AD2D00002944000013
:1037E00010B50400094B9847A000094B9C46604463
:1037F0008022835840210B4383504031403A435844
:103800001A42FCD0034B984710BDC0466D2D0000F6
:1038100000180040AD2D000010B50400094B98477A
:10382000A000094B9C4660448022835840218B4372
:1038300083504031403A43581A42FCD1034B9847D9
:1038400010BDC0466D2D000000180040AD2D0000D9
:1038500070B504000D00054B98472A780F231340DC
:103860002034A400024AA35070BDC046193800009D
:103870000018004010B50400064B98472034A400FF
:10388000054BE4582407240F044B98472000044BB1
:10389000984710BD6D2D000000180040AD2D0000B0
:1038A0007537000030B5D378002B35D11378802BD5
:1038B00029D01B0680246402234354780225AC439C
:1038C00006D19478002C20D18024A40223434160A7
:1038D0005478013C012C1CD90D042D0CA024E405C6
:1038E0002C431C4384620D0CD02424062C431C431F
:1038F0008462D478002C22D15B031CD59378012BF1
:103900001ED0416117E00023D7E7C024E40223431F
:10391000DDE70D4C2340DFE741600C04240CA023BD
:10392000DB05234383620C0CD0231B0623438362F5
:10393000D378002B03D15378013B012B02D930BD42
:103940008161F8E78160FAE7FFFFFBFF10B50A002D
:10395000C1090023002904D14309DB0105498C4634
:1039600063441F242040012181401800024B9847E6
:1039700010BDC04600280040A53800007047000078
:1039800010B5054B9847054B9847054B9847054B95
:103990009847054B984710BD75350000DD2D000098
:1039A0007D3900007D3900007D390000FEE7000010
:1039B00010B51A4A1A4B9A4211D01A00194B9A4262
:1039C0000DD2194A03339B1A9B0801339B00002236
:1039D000134812498C58845004329A42FAD1134A3F
:1039E000134B9A420AD2D34311495B1803218B43EC
:1039F00004339B18002102C29342FCD10D4AFF21DF
:103A00000D4B8B4393600D4A53687F390B435360D2
:103A10000B4B98470B4B9847FEE7C046406B0000A6
:103A200000000020B000002004000020B0000020B2
:103A30000449002000ED00E00000000000400041CB
:103A400031600000C93E00000300064A1268002AE7
:103A500004D0044A1068C318136070470249014A31
:103A60001160F6E7E03C0020086900200120404298
:103A7000704780239B014B600020704700207047F7
:103A8000F0B585B000AF8E1C0B000933DB08DB00FE
:103A90006C46E31A9D466D46030A2B706870002938
:103AA00007D00023E818D45C8470013398B28142B7
:103AB000F8D85023BB80FE80BD6000233B737B732E
:103AC000BB73054D054C391D2800A0470028FAD1CD
:103AD000BD4605B0F0BDC046944800205D0800001A
:103AE00010B5154AD369002BFCD1134B1B7EDBB2FA
:103AF000124A13805B070DD50F4B5A8BD2B23F236E
:103B000013400F490B7006D00623134202D0062241
:103B1000094B5A8310BD084B1B8D0A49DB05DB0D91
:103B20000B80094A136801331360084B186800239F
:103B30000022074CA047EDE7000C0042FA3D0020B0
:103B4000CC480020BC480020E83C0020F83C002085
:103B50003516000070B582B005000E0000226B46DD
:103B6000DA80064C6B46991D2800A0470028F9D141
:103B70006B4606331B88337002B070BD6D290000A0
:103B800070B505008CB2034E21002800B047002814
:103B9000FAD170BD4129000030B587B00500144B43
:103BA000984701AC2000134B984780235B03019397
:103BB00000226260C0235B0123816581012323739E
:103BC000A373A37469464A708B70CA700B70062089
:103BD000094B98472000094B98470220084B98470B
:103BE000084C0220A0470028FBD007B030BDC046DB
:103BF00079330000B53300004D390000DD3300009B
:103C0000393400006D34000030B58DB001AC2000B7
:103C1000114B98470223A3701D3323710F4D2200CF
:103C20000F4928000F4B98472A68138C9BB2002B32
:103C3000FBD18021C9030C4B1960072313719371C9
:103C4000137802210B431370044B1A68138C9BB238
:103C5000002BFBD10DB030BD2D2E0000D048002030
:103C6000000C0043712E000000E100E010B5054C8F
:103C7000002205492000054B9847E37E01221343AB
:103C8000E37610BDD0480020394100001933000010
:103C90000023024A1380024A13807047BE48002066
:103CA000C048002070B505000B4B1C880B4B1888D2
:103CB000643065210A4B98478C420AD06200094B58
:103CC000D552601C6521064B9847034B1980002094
:103CD00070BD01204042FBE7C0480020BE480020E4
:103CE00009470000303D002070B53A4B9847AA20A4
:103CF000394B9847394C3A4E3A4D34E000223A4B12
:103D00001A601432394B1A60133A394B1A708022F8
:103D10009203384B9A6180225201374B5A6139E045
:103D2000324B1B68002B03D0013B304A136031E05B
:103D300014222E4B1A6000232B4A13602C4A137056
:103D4000802292032B4B5A61802252012A4B9A61A6
:103D500020E080208001294B98470022284B1A70D0
:103D60003220284B98478022920000212000B04743
:103D70002A8821002448254B9847254B1A88254B33
:103D80001B889A42CCD2184B1B68272BB6D801331C
:103D9000154A13601A4B1B78002BE1D01E4B1A7882
:103DA000082A15D893001D4AD3589F468020C00189
:103DB000D1E7C020C001CEE780200002CBE7A020E1
:103DC0000002C8E7C0200002C5E7E0200002C2E709
:103DD0000020C0E7913C0000A53C00009444002076
:103DE0008B60000034000020F43C002038000020EC
:103DF000E43C00200028004080280040993B00005F
:103E0000E53C0020F91D0000D04800202D330000C3
:103E1000F03C00204800002031000020086A00002B
:103E200030B58FB001AA64230193204B5360002367
:103E30009360137313768021890311610121494234
:103E40009182D361136225315354936208315354E4
:103E50000131535401315354D7331386144BD38259
:103E6000144C15492000154B984724680722E36934
:103E70001A42FCD123680222134323600D4D2868A7
:103E80000F4B98471F2318401E3B83400D4A136079
:103E9000E88800231021628B0A4204D10133834257
:103EA000F9D3102363830FB030BDC046480D000026
:103EB0001027000094480020000800422D02000056
:103EC000712C000000E100E0F0B595B072B6BFF3D0
:103ED0005F8F00240026634B1C70634B9847634B35
:103EE0009847634B984704AA8023DB0504935460EA
:103EF000FF2313819472D4720125DB3BD554013327
:103F0000D5540133D4540133D45494620533D4547A
:103F10000133D454546114820023D3761676167775
:103F20005676132393765677E1235B021362802340
:103F30005B03D3604F4B13634F4B536301235B42CF
:103F40009363D3634D4C4E4B1C604E494E4B1960EE
:103F50004E494F4B19604F4920004F4B98474F4EE9
:103F60003368986800214E4FB8473368586800217D
:103F7000B84748484B4B98474B494C4B98472668A5
:103F800030004B4B98471F2318408540494B1D601C
:103F90002368DA69002AFCD13368023213433360A4
:103FA000364B1B68DA69002AFCD15968802252021C
:103FB0000A435A600121314AD171DA69002AFCD1E1
:103FC000DA69002AFCD15968802292020A435A60B9
:103FD00001212A4A9171DA69002AFCD104322D4B61
:103FE0009A75354B9847354B9847354D2878354C61
:103FF000A04701001120344B98472878A0470100C2
:104000001120324B9847324B98470F20314B98473D
:104010008020C001304B98470022012140202F4BC7
:1040200098472F4B186000240394029401940223B4
:104030000093002364222B492B482C4DA84703945E
:1040400002940194013400940023642228492948F1
:10405000A847044B1C70BFF35F8F62B6264B98478E
:10406000FEE7C0463000002081390000012D00002D
:10407000213E00000200160002001700FC3D002057
:10408000103D0020813B00000C3D0020553B00000E
:10409000083D0020000C0042E12500004C000020FB
:1040A0009B600000F50E0000E13A0000352C000096
:1040B000712C000000E100E0093C00006D3C0000B4
:1040C00032000020A9010000B1010000E901000058
:1040D0001501000041010000993B0000711400002F
:1040E000F83C00202C6A0000E93C0000591900004F
:1040F000346A000095410000451B0000F8B50B0034
:104100000B4C2160160091420FD24C000419002084
:10411000074F2588401901333B600234B342F8D37E
:10412000511A044B984780B2F8BD0020F8E7C0460A
:10413000EC3C00203D45000010B58022920001219A
:104140000248034B9847034B188010BD944400204D
:10415000FD400000F03C002010B5094A40231370D8
:104160001D3BD371074B1B785370074B1B88938003
:10417000064B1B88538008210020054B984710BD33
:10418000C4480020310000203400002048000020F6
:10419000813A0000F0B5C64600B584B0082200217F
:1041A00001A88B4B984700248A4F8B4E8B4B984627
:1041B00022E001AB9B788A4A12789A4275D0884AED
:1041C00052789A427ED0864A52799A4200D18CE047
:1041D000834A92799A4200D195E0814AD2799A42F3
:1041E00000D19EE00822002101A8794B98470024C5
:1041F00000220F236B441A70002300220F21694410
:104200003868B047002800D1DFE00F236B441B78EB
:10421000402B00D0D2E001AD2B5508222900714877
:10422000714B98472B78232BDCD101ABDB79402BEA
:10423000D8D101AB5B78522BBBD0572BD2D101AB7D
:104240009B78674A92789A4277D0654AD2789A42A8
:1042500000D184E0624A12799A4200D18FE0604A2C
:10426000127A9A4200D19EE05D4AD27A9A42B9D13E
:1042700001ABD8785D4B1B7883420DD05B4D287025
:104280005B4CA047010011205A4B98472878A04763
:1042900001001120584B9847082252495748584B63
:1042A00098471920574B98479CE74E49AA23CB7053
:1042B00011330B7108225148514B98471920514B2B
:1042C00098478FE7504B1B884649CB701B0A0B71F0
:1042D00000234B714D4B1B788B7108224748484B8C
:1042E00098471920474B98477CE7494B1B883D4925
:1042F000CB701B0A0B7108224048414B984719208C
:10430000404B98476EE7434B1B883649CB701B0ADE
:104310000B71082239483A4B98471920394B984776
:1043200060E730493C4B1B78CB7008223348344B54
:1043300098471920334B984754E701A90A7912028C
:10434000CB781343354A1380314A1380082225491C
:104350002A482B4B984719202A4B984742E701A936
:104360000A791202CB7813432A4A138008221D4986
:104370002248234B98471920224B984732E701AB3C
:10438000DB78254A12789A4204D0234A137001221E
:10439000234B1A70082213491848194B98471920C3
:1043A000184B98471EE71F4B984708220D491348A2
:1043B000134B98471920134B984713E7072C00D944
:1043C00016E701AA1355013412E70A30C04713E774
:1043D0008B600000F83C0020FD160000F91D000075
:1043E0003C000020303E00207960000032000020B8
:1043F000A9010000B1010000E9010000FC3D00201E
:10440000DD290000412D0000F03C0020E43C0020AC
:10441000340000204800002031000020FC3C002037
:10442000E53C002059410000002243088B4274D330
:1044300003098B425FD3030A8B4244D3030B8B42A5
:1044400028D3030C8B420DD3FF22090212BA030CAE
:104450008B4202D31212090265D0030B8B4219D38F
:1044600000E0090AC30B8B4201D3CB03C01A5241AF
:10447000830B8B4201D38B03C01A5241430B8B42F7
:1044800001D34B03C01A5241030B8B4201D30B03E0
:10449000C01A5241C30A8B4201D3CB02C01A524107
:1044A000830A8B4201D38B02C01A5241430A8B42CA
:1044B00001D34B02C01A5241030A8B4201D30B02B3
:1044C000C01A5241CDD2C3098B4201D3CB01C01ACD
:1044D000524183098B4201D38B01C01A52414309D7
:1044E0008B4201D34B01C01A524103098B4201D3C5
:1044F0000B01C01A5241C3088B4201D3CB00C01A32
:10450000524183088B4201D38B00C01A52414308A9
:104510008B4201D34B00C01A5241411A00D20146CE
:10452000524110467047FFE701B5002000F0F0F857
:1045300002BDC0460029F7D076E7704703460B431B
:104540007FD4002243088B4274D303098B425FD38C
:10455000030A8B4244D3030B8B4228D3030C8B42B8
:104560000DD3FF22090212BA030C8B4202D312129E
:10457000090265D0030B8B4219D300E0090AC30B73
:104580008B4201D3CB03C01A5241830B8B4201D320
:104590008B03C01A5241430B8B4201D34B03C01A09
:1045A0005241030B8B4201D30B03C01A5241C30A81
:1045B0008B4201D3CB02C01A5241830A8B4201D3F2
:1045C0008B02C01A5241430A8B4201D34B02C01ADC
:1045D0005241030A8B4201D30B02C01A5241CDD281
:1045E000C3098B4201D3CB01C01A524183098B42CC
:1045F00001D38B01C01A524143098B4201D34B01B5
:10460000C01A524103098B4201D30B01C01A524117
:10461000C3088B4201D3CB00C01A524183088B429E
:1046200001D38B00C01A524143088B4201D34B0087
:10463000C01A5241411A00D20146524110467047F9
:104640005DE0CA0F00D04942031000D340425340FE
:1046500000229C4603098B422DD3030A8B4212D3BE
:10466000FC22890112BA030A8B420CD389019211F0
:104670008B4208D3890192118B4204D389013AD02D
:10468000921100E08909C3098B4201D3CB01C01A02
:10469000524183098B4201D38B01C01A5241430915
:1046A0008B4201D34B01C01A524103098B4201D303
:1046B0000B01C01A5241C3088B4201D3CB00C01A70
:1046C000524183088B4201D38B00C01A5241D9D288
:1046D00043088B4201D34B00C01A5241411A00D209
:1046E0000146634652415B10104601D34042002B05
:1046F00000D54942704763465B1000D3404201B584
:10470000002000F005F802BD0029F8D016E7704738
:104710007047C046F0B5CE46474615042D0C2E0016
:1047200080B50704140C3F0C9946030C7E435D438F
:10473000674363437F19340CE4199C46A54203D9AF
:1047400080235B029846C4444B465143434336049E
:10475000360C250C24046544A41959184919200065
:104760000CBC90469946F0BDF8B54546DE46574626
:104770004E460C03E0B54E00C90F88460D00610A95
:10478000440F0C43C70019035800DB0F9B464B0A2C
:10479000510F0B43760D400D1900D200D84500D1C2
:1047A000AEE0351A002D00DCF6E000280FD11343EF
:1047B00000D1DBE06B1E002B00D037E1BA1A974224
:1047C000BF41641A7F42E41B0126170024E0C64B58
:1047D0009E424DD080231B041943382D00DD07E194
:1047E0001F2D00DD38E12020431B9A460B00504668
:1047F0008340994613004846EB4018430300504657
:104800008240501E8241E9401A43BA1A611A974207
:10481000A441170064420C1B230262D56402650A9E
:10482000002D00D1DFE0280001F0E4FB0300083B8D
:104830001F2B00DDD2E020223C00D21A9D40D44044
:104840009F4025439E4200DDC4E09E1B731C1F2B2E
:1048500000DDF1E0202238002900D21AD840914032
:1048600097402C000143781E8741DC4000260F430F
:104870007B0709D00F233B40042B05D03B1DBB42D7
:10488000BF417F42E4191F0023022CD5964B01360D
:104890009E4200D19AE04546944BFF081C406007B9
:1048A000760564020743240B760D00212403230BB5
:1048B0000C0D8F4A24051C431440330523435B0031
:1048C000ED075B082B43380019003CBC9046994625
:1048D000A246AB46F8BD6446044300D111E2040091
:1048E00067467B07C6D145466007FF080743E408D3
:1048F0007D4B9E4230D024037605240B760DD4E701
:10490000331A9A46002B78DD002831D0764886424B
:10491000AED08020000401435346382B00DCE9E090
:104920000A43511E8A410021D219BA42BF410919D6
:104930007C4217000C192302D3D56B4B01369E42E3
:1049400000D13AE10120694B1C407B0807401F431E
:10495000E007074364088BE723003B4300D1CBE12A
:104960008022120314432403240B9EE72E007FE7CA
:104970000800104300D1B4E0581E002800D0DEE04B
:10498000BA18BA429B4164185B42E418170001262A
:104990002302A6D50226D5E7002D6ED1701C400556
:1049A000400D012800DCF9E0B81A844687428041B6
:1049B000E51A40422D1A280200D489E0D71BBA42DA
:1049C00092411C1B5242A51AD84629E745460024AD
:1049D00000276AE7454CF61A2C4049E73D00283885
:1049E000854000272EE7380001F004FB20301DE74A
:1049F0000A43511E8A41002107E7002B00D0F3E053
:104A0000701C43055B0D012B00DCADE0364B98427A
:104A100000D1D1E0BA18BA42BF4164187F42E4190C
:104A2000E707520817436408060021E72E4885422D
:104A300000D193E01D00D0E629001F3EF140202B5D
:104A400000D18DE04022D31A9D402F437D1EAF41FF
:104A500000240F43002644E72B000800203BD840E9
:104A60000300202D00D17DE04020451BA9400A43D2
:104A7000511E8A4100211A43C7E6002E50D01A4E1B
:104A8000B04257D080266B429946360434434B4699
:104A9000382B00DDD6E01F2B00DD35E12026F51A8E
:104AA0002600AE40B2463E00DE40AC4635005646DB
:104AB0002E436546AF407D1EAF41DC403743D71BD8
:104AC000BA4292410C1B5242A41A0600D846A3E6F1
:104AD000644667462C4300D0A2E600250026002746
:104AE00006E71E00C4E6C046FF070000FFFF7FFF89
:104AF000FFFF0F801F2B63DC2020C31A08009840A3
:104B00009C46834653461000D8400300584618433D
:104B100063469A40531E9A4153460243D94003E7E5
:104B200026003E4306D0EB439946002BC7D0944E57
:104B3000B042ACD10C0017000600D84698E6904B66
:104B40009A450BD08246E7E6002800D09EE0180088
:104B5000104300D1E9E01C001700D846884E87E6D4
:104B6000002572E7002182E723003B43002E00D09E
:104B7000ABE0002B00D1E7E00B00134300D177E658
:104B8000BA18BA42BF4164187F42E419230200D424
:104B9000F2E07C4B17001C40060069E62000384319
:104BA000002ED1D100285BD11C00144300D1A8E015
:104BB0001C001700D8465BE606000024002797E695
:104BC00050460B002038C34099465346202B00D155
:104BD00095E0402350461B1A99400A43511E8A41D2
:104BE0004B4600211A439FE6002E30D126003E435B
:104BF00067D0DB439A46002B1CD0614EB04260D098
:104C00005346382B00DD96E01F2B00DD9FE0202669
:104C1000F31A26009E409C46B34653463E00DE40B3
:104C200033005E461E4363469F407B1E9F415346B2
:104C3000DC403743BF189742924164185242A4188F
:104C4000060078E627437C1EA741002437E74C4E38
:104C5000B04236D080265B4236049A463443CFE7D2
:104C60001800104300D103E6B81A84466745AD41E9
:104C7000E01A6D42401B050200D42CE6D71BBA4255
:104C800092411C1B5242A41AD846F1E51800104369
:104C900000D163E7F808670707438020E4080003B2
:104CA000044208D0DD08054205D1D2085907114356
:104CB0000F002C00D8467B0FE4001C43FF00304E51
:104CC000D6E50C0017000600D2E5002B38D00B000B
:104CD000134300D142E7F808670707438020E40840
:104CE00000030442E7D0CB080342E4D1D2084907CD
:104CF00011430F001C00DEE700270024D5E500214A
:104D00006BE700250027F3E54E462500203EF540E1
:104D10004B462E00202B2DD04025ED1AAC402743CA
:104D20007C1EA74100243743C9E6802400252403C4
:104D3000134E0027DCE527437C1EA741002479E7BA
:104D40000C0017000E4E93E50C00170090E5564638
:104D50002300203EF34099465346202B0ED040239B
:104D600056469B1B9C4027437C1EA7414B46002474
:104D70001F435FE70024D2E71700B2E50024F2E703
:104D8000FF070000FFFF7FFFF0B557464546DE46B0
:104D90004E46E0B54C000E0387B0834692461D0098
:104DA0008046360B640DCF0F002C4FD06F4B9C42CA
:104DB00035D08023420F1B04F6001343334399463A
:104DC000C30098466A4B00269C4600236444039324
:104DD0002B031B0B9B466B00ED0F50465B0D0195A3
:104DE0005ED0624A934253D05A46D1008022400F8F
:104DF000120402430A4393465246D1005C4A944649
:104E0000002263443800684084460290E41A164346
:104E10000F2E00D9B4E0574BB6009B599F460300B4
:104E2000334399466CD100239846023308260393F6
:104E3000CEE7CB464146039A0197022A65D1019BF2
:104E40004A4C9C460023002298466BE00300334303
:104E500099464ED0002E00D1BCE1300001F0CAF8D6
:104E600003000B3B1C2B00DDACE11D22D31A5A467C
:104E70000100DA4008398E401300334399465B46FF
:104E80008B40984600233C4C0026241A03939FE74E
:104E900051465A46114329D1002293460232B1E7C6
:104EA000594601431ED05B46002B00D19EE1584677
:104EB00001F0A0F803000B3B1C2B00DD8FE102008A
:104EC0005946083A91408B461D21CB1A5146D9408C
:104ED0000B0059460B4351469B469140264B0022FE
:104EE0001B1A8FE7002301229B468BE751460322C2
:104EF00088E700239846013304260024039367E7DC
:104F00000323B14603930C2662E7032A00D15CE237
:104F1000019B012A00D0E4E113409C4600230024B9
:104F20000022984600211203130B0A0D12051A43A2
:104F30002305124C40462240134362465B00D207D1
:104F40005B081343190007B03CBC90469946A24643
:104F5000AB46F0BD002380229C4612039846034CCA
:104F6000E0E70023014C00229846DBE7FF07000042
:104F700001FCFFFF3C6A00000DFCFFFFFFFF0F80FC
:104F8000D94500D939E100D134E1002346464D46E8
:104F90009A46013C5B460A0E1B021A430B02170C91
:104FA000039313041B0C3900280090460193FFF76C
:104FB0003BFA0200019B83465A4328003900914680
:104FC000FFF7B8FA350C09040D43A9450DD95B4626
:104FD0004544013BA84500D93AE1A94500D837E14D
:104FE00002235B429C464544E3444B46EB1A39009E
:104FF00018000493FFF718FA019B0500434339009A
:1050000004989946FFF796FA330409041B0C0B43E6
:10501000994509D943446A1E984500D91AE1994532
:1050200000D817E1023D43444A469B1A5A461204EF
:105030002A4303999346100C0A0C914609045A46D8
:10504000090C4E460D001204120C454305915143C4
:105050007243704352190E0CB218954203D9802541
:105060006D02AC466044150C09041204090C2818A2
:105070005218834200D2CEE000D1C8E01D1A534638
:105080009E1AB24592415242AB1A9A46984500D1B7
:1050900017E139001800FFF7C7F9019B05004343EA
:1050A000390050460493FFF745FA04980B04310C7D
:1050B0001943884209D941446B1E884500D907E14C
:1050C000884200D804E1023D4144049BCB1A1800F9
:1050D00039000493FFF7A8F9019B82464343390046
:1050E00004980193FFF726FA01980B043104090C88
:1050F000194388420DD953464144013B884500D9A4
:10510000E8E0884200D8E5E002235B429C46414447
:10511000E244019B2D04CE1A51462943059D4F467A
:105120002A000B04080C1B0C5A4345437B4378436D
:105130005B19170CFB189D4203D980256D02AC4604
:1051400060441D0C12041B04120C28189B18864284
:1051500000D293E000D18EE001231943A04BE31865
:10516000002B00DC99E04A0700D09EE05A46D201AD
:1051700006D55A469B4B1A4080239346DB00E31822
:10518000994A934268DD0123029A984C1A40002301
:10519000944698460022C5E680224B4612031342ED
:1051A0000AD05B46134206D11A431203120BAC46D7
:1051B00088468E4CB6E64B461A431203120BBC4689
:1051C0008A4CAFE603005A46283B9A40002391469A
:1051D000984657E6584600F00DFF203040E60300A1
:1051E0005246283B9A400021934677E600F002FFA2
:1051F00020305FE6884500D2C7E64B46DE075D08F3
:1052000043465B081E434346DB079A46C2E6002539
:10521000924500D333E7039E5946B446E244B24573
:10522000AD416D424544EB180139984507D298428B
:1052300000D97FE000D1BCE01D1A8B461FE79845DE
:10524000FAD1039D5545F2D943468B461D1A16E700
:105250009B46CAE61500E7E65A46C90852070A43C4
:105260005B0590465C0D5A46012302995202194093
:10527000120B8C4656E6002B00D16FE746444A1EBF
:10528000B04529D91100864200D065E7039A9342C0
:1052900000D061E762E7012149420120C21A382AA1
:1052A00021DD029B03409C4638E60F220A40042A77
:1052B00000D15BE70A00111D914292415242934492
:1052C00054E7474BE318002BE5DD01225242F2E799
:1052D0001D00FAE69A461CE7B04239D86ED011009C
:1052E0003AE702933AE71F2A3CDC20239B1A0C0082
:1052F0005846994098404B1E99415B46D440D34054
:10530000204308431A00430709D00F230340042B0E
:1053100005D00100081D88429B415B42D218130250
:105320003AD50123029A01241A4000239446984654
:105330000022F7E5022149428C46039DE344AC4636
:10534000E244AA45AD416D424544ED182D1A96E65A
:105350008A1E03994D008D42894149424144761885
:1053600003958FE71F204042C31A5846D8400300D8
:10537000202A28D040205D46821A954029434A1EA3
:1053800091411943072300220B4009D00F2300222B
:105390000B400800042BBDD1010053075202120B31
:1053A000C9081943012388460299002419408C46F4
:1053B000B8E55245BED88B46002560E6039D9D4268
:1053C000C6D3110062E70025D8E780225B461203AE
:1053D0001A43019B1203120B9C468846034CA1E51D
:1053E000FF030000FFFFFFFEFE070000FF070000B5
:1053F000F0B557464546DE464E46E0B50C039846A6
:105400004E00230B87B0070092469B46760DCD0FCA
:10541000002E6BD06D4B9E4235D080245B46420FF0
:105420002404DB0014431C43C3009946684BA34685
:105430009C46002300276644029343461C035A00FF
:10544000DB0F5046240B520D984600D176E05F4B9F
:105450009A426DD08023410F1B040B435C49E4004A
:105460008C461C43C300002062444146B618694084
:10547000721C0191944607430F2F00D9B0E0554AA2
:10548000BF00D25997465B460343994600D087E058
:1054900000239B46023308270293CEE7424601923F
:1054A000022867D0032800D10EE2012800D062E173
:1054B000002300240022994601990140CDB2002129
:1054C00012030B0D120B1B051343434A2405134013
:1054D0001C436400ED0764082C434846210007B0D4
:1054E0003CBC90469946A246AB46F0BD0343994664
:1054F0004FD05B46002B00D189E1584600F07AFD81
:1055000003000B3B1C2B00DD7AE11D22D31A3A006D
:1055100001005C46DA4008398C4013008F40234379
:105520009B46B94600232D4E0027361A029384E786
:10553000534623432AD10024022096E753462343AF
:1055400020D0002C00D157E1200000F053FD0300D3
:105550000B3B1C2B00DD49E11D21CB1A51460200FB
:10556000D9405346083A944093400C431B4A121AC0
:1055700000207AE70125019B144C1D4000230022E6
:1055800099469CE70024002201206EE75346032041
:105590006BE700239B4601330427002602934CE768
:1055A000032381460C27029347E78022002300252E
:1055B00012039946054C82E75C464B4602986FE71A
:1055C0005C464B46019502986AE7C046FF0700001B
:1055D00001FCFFFF7C6A0000FFFF0F800DFCFFFF56
:1055E0004A464946170C1A0C1B041B0C08041900E8
:1055F000000C41431500884619007D43794303950B
:1056000089462900150045434D44029545462D0C19
:10561000AA46029D5544A94506D98A4680214902D9
:105620008946CA4451460391290C04914146090414
:105630002D04090C88462900250C24044144240C1F
:105640000591210041438846210079438A466843F9
:10565000414650448146080C48446F43824503D973
:105660008021490289464F44010C8946390049444A
:10567000029141460F0404993F0C88460004C0196A
:1056800080444146049159460F0C0904090C884690
:1056900059438A4639005143894641464A43514657
:1056A000090C8B467B43D2185A44934203D980237A
:1056B0005B029B46D94451460904090C8A4641467F
:1056C00061437C43130C12044B445244A1468A4666
:1056D0003C0041466C434D4351464D440F0C7D19EF
:1056E000A94503D98021490288464444049F03996F
:1056F000B84641448B4683458041414288465146E5
:1057000008042F04000C3F185846029910188946C7
:10571000904292414F44BA46524299469346C244FF
:10572000D144CB448F42BF41C245894199459B41F9
:10573000934592417F4249422D0C52420F435B42B6
:1057400013437F19FF185B463C19DB0D059A640271
:105750001C43430213435D1EAB415A46C00D034335
:1057600052021343E20156D501205A080340134365
:10577000E207134364085A48604400284DDD5A0785
:1057800009D00F221A40042A05D01A1D9A429B41C3
:105790005B42E4181300E20104D58020514AC000A6
:1057A00014406044504A904200DDE3E60125DB08E6
:1057B00062071A436402019B9146220B4405640D63
:1057C0001D407CE6802259461203114208D0144243
:1057D00006D122431203120B45469946434C6EE60E
:1057E0005B461A431203120B404C68E60300544612
:1057F000283B9C400023B9E600F0FCFB2030A6E6E5
:105800000300283B9F400023BB4699468AE600F0F0
:10581000F1FB203074E6B446ADE701252A1A382A98
:1058200006DD019B00241D4000230022994646E628
:105830001F2A21DC20252000AD1A1E00AB40A84005
:10584000D6405D1EAB4130431843D440430709D0D6
:105850000F230340042B05D00300181D98429B41E1
:105860005B42E418230221D50125019B01241D4040
:1058700000230022994622E61F2521006D42281AA6
:10588000C1400800202A1DD05F35AA1A9440234346
:105890005C1EA341072503431D400022002D09D0B3
:1058A0000F2200241A401800042AD6D103006507ED
:1058B0006402220BDB082B4301259946019B00243F
:1058C0001D40FCE50024E2E780220125120322436B
:1058D00001991203120B0D409946044CEFE5C046A6
:1058E000FF030000FFFFFFFEFE070000FF070000B0
:1058F000F0B54646D6464F460C03C0B5CD0F4E0018
:10590000610A440F0C43C1005800400D84468A468A
:105910000F001903500F490A0143C648760DA846E7
:10592000DB0FD200844500D1D8E001204340AB42D8
:1059300000D1A6E06046351A002D00DC05E1002804
:1059400010D10B00134300D1D7E06B1E002B00D009
:105950004BE153469F1ABA458041641A4042241ACB
:1059600001261EE0B34B9E4248D080231B041943FE
:10597000382D00DD19E11F2D00DD4CE120230F0043
:105980005B1B10009A409F40E840531E9A41E9403B
:10599000074317435346DF1B611ABA45A4416442CB
:1059A0000C1B230200D4C5E06402650A002D00D15F
:1059B000F6E0280000F01EFB0300083B1F2B00DD73
:1059C000E9E020223C00D21A9D40D4409F4025436C
:1059D0009E4200DDDBE09E1B731C1F2B00DD0AE1F5
:1059E00020223800D21A290097402C009140D8403C
:1059F0007A1E9741DC40002601430F437B0709D004
:105A00000F233B40042B05D03B1DBB42BF417F42CF
:105A1000E4191F00230225D5864B01369E4200D192
:105A2000AFE0854B01251C4043466207FF08640236
:105A300076051743240B760D1D4000212403230B0C
:105A40000C0D7E4A24051C431440330523435B00A0
:105A5000ED075B082B43380019001CBC90469946A3
:105A6000A246F0BD012543466207FF081743E4083C
:105A70001D40704B9E4236D024037605240B760DD4
:105A8000DBE76346F31A002B00DC94E06046002855
:105A900035D068488642B1D080273F043943382B3F
:105AA00000DCFDE00A43170000217A1E97415744AD
:105AB00057458041091944420C1923023AD55D4BE0
:105AC00001369E4200D14BE101225B4B1C407B081A
:105AD00017401F43E207174364088FE7080010438D
