:1000000078600020B1390000AD390000AD39000042
:1000100000000000000000000000000000000000E0
:10002000000000000000000000000000311000008F
:10003000000000000000000099100000DD1000002A
:10004000AD390000AD390000AD390000AD39000018
:10005000AD390000AD390000AD390000AD39000008
:10006000B52C0000C52C0000D52C0000E52C0000AC
:10007000F52C0000052D0000AD390000AD39000061
:10008000AD390000AD390000AD390000AD390000D8
:10009000AD390000AD39000059320000AD39000023
:1000A000AD390000AD390000AD390000AD390000B8
:1000B0000000000010B5064C2378002B07D1054B3B
:1000C000002B02D0044800E000BF0123237010BDC4
:1000D000B400002000000000A46E0000084B10B522
:1000E000002B03D00749084800E000BF0748036819
:1000F000002B00D110BD064B002BFBD09847F9E731
:1001000000000000B8000020A46E0000A46E0000F3
:100110000000000030B585B001AA064B13CB13C216
:10012000054D064C01A92800A0470028FAD105B0CA
:1001300030BDC046946B00008C3F00209108000049
:1001400030B58BB06B46DA1DD87106AB1C21198017
:100150001A395980079200221A725A729A720F4DF8
:100160000F4C06A92800A0470028FAD103AB1C2297
:100170001A801B3A5A8026326A44049200221A726C
:100180005A729A72054D074C03A92800A04700280F
:10019000FAD127236B4418780BB030BD8C3F002078
:1001A000910800007108000030B587B003AA0C4B1D
:1001B0000C3313CB13C20B4D0B4C03A92800A047E3
:1001C0000028FAD16A46064B183313CB13C2054DEB
:1001D000064C69462800A0470028FAD107B030BD78
:1001E000946B00008C3F0020910800007108000013
:1001F000C000C0B27047C04630B585B003AB1870C0
:1002000059702C2269460A802A3A4A8001930023B9
:100210000B724B728B72044D044C69462800A04748
:100220000028FAD105B030BD8C3F002091080000B5
:1002300030B585B003AB18705970282269460A8022
:10024000263A4A80019300230B724B728B72044D45
:10025000044C69462800A0470028FAD105B030BDFB
:100260008C3F00209108000001680722CB691A42E8
:10027000FCD17047F0B55F4656464D464446F0B453
:100280008BB007000D001600396008009E4B9847A0
:10029000052800D117E1040012349C49CA690123E2
:1002A00083401343CB6109A9337B0B70E4B2200078
:1002B000974B98472000974B9847307B0021964BEF
:1002C00098472B681C209B0700D516E12B68173830
:1002D000DB0700D511E138688B4B9946984704003D
:1002E0008E498F4B9847A4008E4BE75000233B76F6
:1002F0007B7600247B83BB832522BC543B62143372
:100300002B603B6898461800C8478146802308AA9E
:100310001370547001239370D470F069356A00280B
:1003200003D100214046804B984708AB1870022348
:1003300008AA5370000CC0B211007C4B9847002DE6
:1003400004D101214046784B9847050008AB1D7049
:10035000022308AA5370280CC0B21100734B9847AF
:10036000B38AFB80F38A3B81327E8023002A04D14A
:100370006F4B9B789B07DB0FDB01B16832690A4347
:1003800013432422B25C002A02D08022D2051343F8
:10039000B26A13432C22B25C002A03D18022920459
:1003A000914202D18022120513432D22B25C002A11
:1003B00002D08022120413432E22B25C002A02D003
:1003C0008022D2031343424612681343424613600D
:1003D00080235B0053604C461234E0B2554B984783
:1003E00005000790FA27BF0033685F4373689A4699
:1003F000514CA047029003917800A04700900191D2
:10040000308E6843A0474D4B9B464D4A4D4BD847D5
:100410004D4D00224D4BA847049005913800A04750
:1004200002000B0004980599D84702000B00484CC5
:1004300002980399A047009A019BA8470022454BC8
:10044000A047009A019B444CA047444B98470400A6
:10045000B26880239B049A4249D1FA218900574609
:100460004F430298039902000B00A84700900191A6
:100470003800314B98470022394BD84702000B0017
:1004800000980199344EB0470022324B304EB047AD
:10049000324B9847061E06D039000798314B9847D3
:1004A0000238831B07E07900481E079B9C46604486
:1004B0002C4B9847431EFF2C03D8FF2B0AD9402012
:1004C0001BE0402019E0114A116A02230B4313621A
:1004D0001824E8E6FF221440360634431B04FF22AA
:1004E000120413401C434346DC60002005E040201A
:1004F000FF2C02D800260023ECE70BB03CBC904652
:100500009946A246AB46F0BD110F00000004004022
:1005100051380000E1370000410D00007D09000066
:100520004D2C0000643D00208D0D00004D39000071
:100530000020004175380000E5620000DD56000033
:1005400095D626E80B2E113E594A000000002440A3
:10055000D15B00000000F03FB15000007962000064
:10056000000008401547000003681A7E920707D56F
:1005700002221A765B8B9B074120DB1718400AE0AA
:100580005A8B520706D55A68C02189020A435A601D
:10059000182000E00020704730B5026800230124D5
:1005A000022504E001339BB20189994207D9117EEB
:1005B000214206D1117E2942F4D0002002E012200F
:1005C00000E0002030BDC04610B50468636880229A
:1005D000D202134363606162024B98470123237682
:1005E00010BDC04699050000F0B55F4656464D4621
:1005F0004446F0B483B00600894605684C882B68F1
:100600001B01DB0F9A464B7A002B02D0897A564B9E
:1006100098476A68554B13406B604B461B7A002B1A
:1006200028D04B461B885A004B465B7A9B031343EA
:100630008022120213436B6230004D4B9847696869
:100640004A4B0B406B60002800D086E03000494BDD
:100650009847002800D080E04B461B881B0A782270
:10066000134359004B465B7A9B03773A13430B4382
:100670006B6209E04B461B885A004B465B7A9B0332
:100680001343012213436B623000394B9847020039
:100690005346002B09D04B465B88012B05D16B6874
:1006A0008021C9020B436B6003E069682F4B0B404C
:1006B0006B60002A51D130002E4B984701900028E2
:1006C0004BD1013CA4B280462B4B9B4629E06B8B5F
:1006D0009B0641D5F37A002B0FD05346002B02D155
:1006E000002C02D009E0012C07D16B688022D202D5
:1006F00013436B60013CA4B213E030001F4B9847DA
:1007000043465F1CBFB22823EB5C4A465268414611
:1007100053543000164B9847013CA4B2002803D133
:10072000B8465C45D3D101E0B8460190B37A002BBE
:1007300007D03000114B98476B68C02292021343D8
:100740006B6030000D4B98472823EA5C4B465B6892
:1007500041465A54019800E0412003B03CBC904609
:100760009946A246AB46F0BDC9050000FFFFFBFF5E
:100770009905000069050000FFFF00006902000004
:10078000F0B55F4656464D464446F0B483B0060089
:100790000F0005684C88314B98477B7A002B03D0BB
:1007A000B97A30002E4B98476A682E4B13406B6025
:1007B0003B7A002B09D03B885A007B7A9B0313437A
:1007C0008022120213436B6205E03B885A007B7A59
:1007D0009B0313436B623000234B9847002836D1AC
:1007E0003000224B9847031E019030D1A0460024D0
:1007F00020339946194B9B461B4B9A4611E06B8B55
:100800004A46134222D03000D8477B681A5D28231D
:10081000EA543000D047002806D16B8B01345B07C7
:1008200004D4A045EBD103E0019001E01E23019325
:10083000B37A0198002B0AD03000084B98476B68B8
:10084000C022920213436B60019800E0412003B084
:100850003CBC90469946A246AB46F0BD69020000FA
:10086000C9050000FFFFFBFF9905000069050000B6
:1008700010B5838B9BB20522002B05D10133837207
:10088000C372024B98470200100010BDE90500003A
:1008900010B5838B9BB20522002B05D101338372E7
:1008A000C372024B98470200100010BD8107000080
:1008B00001680722CB691A42FCD1704770B5040069
:1008C00006683268438B858B5D1BADB2838B013B21
:1008D0009BB2838313010CD5C37A002B15D0838B75
:1008E0009BB2012B11D173688022D2021343736033
:1008F0000BE0C37A002B08D0838B9BB2002B04D172
:1009000073688022D20213437360A38B9BB2002BC7
:100910000AD1A37A002B07D02000084B98477368B0
:10092000C0229202134373602000044B9847236A4D
:100930005D192823F35CDBB22B7070BDB108000099
:1009400070B504000668738B5B0703D51E22252350
:10095000C2540FE0438B858B5D1BADB2838B013B93
:100960009BB28383044B9847236A5D192B78DBB2D3
:100970002822B35470BDC046B108000070B5800095
:100980006F4BC45825682B681B01DA0F637E267EE7
:100990001E40638B9BB2002B35D1A38B9BB2002BE7
:1009A00031D02B7EDB071BD501232B766B8B9B076E
:1009B00003D541222523E25412E06B8B5B070FD550
:1009C00018222523E2540023A383A37A002B07D007
:1009D00020005C4B98476B68C022920213436B6007
:1009E000A38B9BB263832523E35C052B56D11F3376
:1009F000E35C002B03D12000534B98474EE02000CE
:100A0000524B98474AE0638B9BB2002B26D0A38BB6
:100A10009BB2002B22D12533E35C052B1ED11F3363
:100A2000E35C002B1AD103332B750023638325333A
:100A30000022E254A37A002B08D02000414B9847B3
:100A40006B68C022920213436B6001E001232B7696
:100A5000F30723D5E368200098471FE0638B9BB220
:100A6000002B1BD0A38B9BB2002B17D06B8B9B064C
:100A700009D4002A03D0A38B9BB2012B03D04122BF
:100A80002523E2540AE02423E35C002B03D1200059
:100A90002D4B984702E020002C4B9847638B9BB26C
:100AA000002B2AD0A38B9BB2002B26D12533E35CED
:100AB000052B22D11F33E35C012B1ED12B7E9B071C
:100AC00001D502232B7603232B7500236383253363
:100AD0000022E254B30707D52423E35C012B03D1A2
:100AE00023692000984708E0F30706D52423E35C38
:100AF000002B02D1E368200098472523E35C052BF7
:100B00001CD02523E35C002B18D003232B75002376
:100B10006383A3832533E35C412B0AD0A37A002BA4
:100B200007D02000074B98476B68E022D20213439E
:100B30006B60730702D563692000984770BDC0469B
:100B4000643D0020B108000041090000BD0800001C
:100B500010B5490840230024814201D20AE01C005C
:100B6000091A631C9BB28842F9D94023FF2C01D893
:100B700014800023180010BDF0B55F4656464D4660
:100B80004446F0B489B00C00059212AA1178020014
:100B90004A434025A24200D9C6E0002B51D10200B1
:100BA00008000021644DA847834626000027002343
:100BB000002400930194002200233F2020218C4632
:100BC0001F390296039720246442041903D40D00B0
:100BD000A540A84604E06446241A0D00E540A84656
:100BE0000C008440A14614001D00A4185D412200A1
:100BF0002B0046465F463E4203D00E00264332009D
:100C00002B00029C039D9D420FD801D194420CD829
:100C1000029C039D121BAB414D46009E019F354334
:100C20003C0046463443009501940138CBD2002263
:100C3000012300980199121A8B41120C1B041A43CC
:100C40006FE00022012B6CD1630F0493E300984600
:100C50000A0000230021384CA04704000D000023A7
:100C60009C46069320339B46012663460793002348
:100C70000293002200233F21009401950F002021C0
:100C80004942791803D430008840844604E059462C
:100C9000C91B3000C84084463100B9408946100065
:100CA00019008018594102000B0044464D462C4063
:100CB000A2466446049D2C40A446544665462C43F7
:100CC00003D03400044322000B000098019999429C
:100CD0000AD801D1904207D800980199121A8B4185
:100CE0000299484601430291013FC8D2009C019DF0
:100CF0000299079A8B1ADB0810498B420BD9069B85
:100D00000133DBB21900069313000133079308295E
:100D1000ADD1402508E04025069A082A04D05203A8
:100D20001A43059B1A800025280009B03CBC904658
:100D30009946A246AB46F0BD014A0000FF1F0000E5
:100D400010B582B004000E4B1B78002B01D0002997
:100D50000DD001A90C7011200A4B984711200A4BA5
:100D60009847074B5C7001221A70002006E0044B84
:100D70005B78834201D01D2000E0002002B010BD4E
:100D8000D000002051380000E1370000444B984269
:100D900034D007D88423DB0598420DD0414B9842CC
:100DA0001BD06FE0404B98424AD0404B984258D0FD
:100DB0003F4B984266D132E0012906D0002963D02A
:100DC000022906D0032906D001E03A4867E0002056
:100DD00065E0394863E0394861E0012906D000291F
:100DE00054D0022906D0032906D001E0344856E049
:100DF000002054E0334852E0334850E0012906D047
:100E0000002945D0022906D0032906D001E02F4849
:100E100045E0002043E02E4841E02E483FE0012914
:100E200006D0002936D0022906D0032906D001E0D9
:100E3000294834E0002032E0284830E028482EE0FD
:100E4000012906D0002927D0022906D0032906D07F
:100E500001E0244823E0002021E023481FE023484C
:100E60001DE0012906D0002918D0022906D0032947
:100E700006D001E01E4812E0002010E01D480EE000
:100E80001D480CE000200AE01C4808E0032006E0B2
:100E90001B4804E01B4802E01B4800E01B48704769
:100EA0000008004200040042001000420004004319
:100EB000000C0042030005000300060003000700C9
:100EC0000300010003001E0003001F0003000900CF
:100ED00003000A0003000B000300110003001200CE
:100EE0000300130003000D0003000E0003000F00B9
:100EF000030017000300180003001900030004009A
:100F0000030008000300100003000C00030016009B
:100F100030B587B00C4B6A4632CB32C232CB32C2CC
:100F2000009B834206D001239A00694652588242B0
:100F300003D100E00023D8B203E00133062BF3D144
:100F4000002007B030BDC046B86B0000F0B5474682
:100F500080B40C00904600280DD1002A0EDD8F18B9
:100F6000084E094D306821002B6898470134A7428C
:100F7000F8D1404603E00120404200E0002004BCDC
:100F80009046F0BD603D0020583D0020F0B547463A
:100F900080B40E0015000138022811D8002A12D0A2
:100FA00000240C4B98460C4F43461868315D3B6853
:100FB0009847002809DB0134A542F5D1200006E05E
:100FC0000120404203E0002001E00120404204BC37
:100FD0009046F0BD603D00205C3D0020034B1B6847
:100FE000013301D072B6FEE772B6FEE7240000209E
:100FF000064A13681868203080F30988022080F3BD
:1010000014883FBCAE4662B600BDC046283C0020F6
:1010100010B5031F802464041C60043B1960043B6A
:1010200002491960143B1A60403810BDDD0F000002
:101030007047C04680225205034B1A60BFF34F8FA2
:10104000BFF36F8F7047C04604ED00E072B6044AEC
:10105000136801331360BFF34F8FBFF36F8F704777
:1010600024000020064B1B68002B01D172B6FEE75E
:10107000013B034A1360002B00D162B67047C046A3
:1010800024000020EFF3108072B670470020C046A5
:1010900080F310887047C046EFF309800E4B1A6842
:1010A00020381060F0C044464D4656465F46F0C0BA
:1010B00008B572B600F020FF62B60CBC1168086873
:1010C0001030F0C8A046A946B246BB4680F3098856
:1010D0002038F0C81847C046283C002010B5074B00
:1010E00098470400064B9847002803D080225205F9
:1010F000044B1A602000044B984710BD8510000077
:10110000F51B000004ED00E0911000000022044BEC
:101110001A60044A044B1A600722044B1A60704795
:1011200018E000E03F1F000014E000E010E000E0E5
:1011300010B50A4B1A68FF2109040A431A601A689D
:10114000FF2109060A431A60054B98470022054B08
:101150001A60054B9847054B9847C04620ED00E0C4
:101160000D11000024000020F10F0000DD0F000031
:1011700070B50400430702D007239C430834104B8A
:101180009847104B1B68002B05D107220E4B0833E4
:1011900093430C4A13600D4B1B68E4180C4A9442AD
:1011A00007D8A34207D2074A1568ED18074B1C6001
:1011B00002E0002500E00025064B9847280070BD9E
:1011C000C51B0000703B0020D8000020D400002088
:1011D0008F3A0000191D0000002801D072B6FEE70A
:1011E0007047C046030008334360012252428260C8
:1011F000C3600361002303607047C046002303619E
:101200007047C04643684B609A688A609A6851602C
:1012100099600861036801330360704730B50C685A
:1012200002000832631C02D1026904E01A0053680C
:101230001D68AC42FAD253684B6099608A60516075
:10124000086103680133036030BDC046036942682A
:10125000816891608268416851605A68904201D10A
:1012600082685A60002202611A68501E1860704736
:1012700070B504001500026C002A08D10368002B29
:101280002CD14068174B98470023636026E0002D5F
:101290000DD18068144B9847A368226C9446634430
:1012A000A3606268934219D32368A36016E0C06804
:1012B0000D4B9847236C5B42E268D218E2602168CC
:1012C0008A4203D2626894466344E360022D05D1EA
:1012D000A36B002B02D0A36B013BA363A36B013371
:1012E000A36370BD0D220000DD63000010B582B065
:1012F00001900A00C46C002C01D172B6FEE7A16B0C
:10130000E36B994201D372B6FEE7A16B00208B42DA
:101310000DD901A92000074B98470020636A002BD4
:1013200005D020002430044B9847431E984102B05A
:1013300010BDC046711200003D20000070B50C00C9
:10134000016800290BD0026CC3689B18C360456814
:10135000AB4200D3C160C1682000014B984770BD0B
:10136000DD630000F8B50400244B9847A36C002B04
:101370001CDD234D234EE36C002B07D00021200001
:10138000A84701280CD1204B984709E0636A002B3D
:101390000CD020002430B047002801D01A4B9847C9
:1013A000A36C013BA364A36C002BE4DC01235B4230
:1013B000A364164B9847114B9847636C002B16DDBE
:1013C0002369002B04D112E02369002B04D10EE025
:1013D000250010350B4F0C4E2800B847002800D0D0
:1013E000B047636C013B6364636C002BECDC01234E
:1013F0005B426364054B9847F8BDC0464D10000042
:10140000ED1200003D200000552100006510000095
:1014100070B504000D00002801D172B6FEE7154B2F
:1014200098472268216CE36B4B43D0186060002022
:10143000A063A2605B1AD318E36001235B4263647C
:10144000A364002D0BD12369002B0FD02000103096
:10145000094B9847012809D1084B984706E020001E
:101460001030074DA84720002430A847054B984767
:10147000012070BD4D1000003D200000351000001F
:10148000E51100006510000070B505000E00002891
:1014900011D050200E4B9847041E0CD030006843EA
:1014A00001300B4B98472060002806D12000094BE3
:1014B000984700E0FEE772B6FCE7E5632664012189
:1014C0002000054B98470023E364200070BDC04610
:1014D00071110000D911000011140000F0B5574639
:1014E0004E464546E0B484B004000F0001921D0052
:1014F000002801D172B6FEE7002904D1036C002B4D
:1015000001D072B6FEE7022D04D1E36B012B01D0AE
:1015100072B6FEE7424B9847002804D1019B002B8E
:1015200003D072B6FEE7002600E000263D4B984649
:10153000C047A36BE26B934201D3022D1FD12A0057
:1015400039002000384B9847E36C002B08D0290065
:101550002000364B984701280DD1354B98470AE0BB
:10156000636A002B07D020002430324B98470128B3
:1015700001D12F4B9847304B9847012049E0019B00
:10158000002B03D12C4B9847002042E0002E03D1C2
:1015900002A82A4B98470136274B9847284B984773
:1015A000204B9847636C013301D100236364A36C23
:1015B000013301D10023A3641F4B984701A902A85E
:1015C000204B984700281ED1164B9847A36B9A468C
:1015D000E36B9946184B9847CA450ED1200010304E
:1015E0000199194B98472000184B9847184B98477A
:1015F00000289DD10E4B98479AE72000134B98473F
:10160000134B984794E72000104B9847104B98478E
:10161000002004B01CBC90469946A246F0BDC046CE
:101620006D2100004D10000071120000ED1200004D
:10163000351000003D20000065100000C5200000AE
:10164000C51B0000E5200000A51F00006513000079
:10165000191D0000F0B583B004000F0016001D0036
:10166000002801D172B6FEE7002904D1036C002BDB
:1016700001D072B6FEE7022D38D1E36B012B30D0DA
:1016800072B6FEE72A00390020001F4B9847A36C72
:1016900001331DD1E36C002B0BD0290020001B4B24
:1016A00098470125012829D1002E16D00123336047
:1016B00024E00125636A002B20D020002430144B45
:1016C000984700281AD0002E09D00123336015E076
:1016D000A36C0133A364012510E001250EE0012570
:1016E0000CE00C4B98470190A36BCBE7094B984754
:1016F0000190A36BE26B9A42C4D800250198064B77
:101700009847280003B0F0BD71120000ED120000F0
:101710003D2000008510000091100000F0B54F46FC
:101720004646C0B485B004000E0001921F00002898
:1017300001D172B6FEE7002904D1036C002B01D061
:1017400072B6FEE74A4B9847002804D1019B002B54
:1017500003D072B6FEE7002500E00025454B984611
:10176000C047A36B002B2BD0E56831002000424B13
:101770009847002F14D1A36B013BA3632368002B70
:1017800002D13E4B984760602369002B14D02000A3
:1017900010303B4B984701280ED13A4B98470BE04D
:1017A000E560636A002B07D020002430344B984753
:1017B000002801D0334B9847334B9847012052E023
:1017C000019B002B03D1304B984700204BE0002DAC
:1017D00003D102A82D4B984701352B4B98472C4B32
:1017E0009847244B9847636C013301D1002363640D
:1017F000A36C013301D10023A364234B984701A9B3
:1018000002A8244B9847002827D11A4B9847A36B6E
:1018100099461D4B98474B46002B18D12368002B47
:1018200006D1144B984760681B4B9847164B984756
:10183000200024300199194B98472000184B9847F5
:10184000184B984700288BD10E4B984788E720000B
:10185000134B9847134B984782E72000104B98474B
:10186000104B9847002005B00CBC90469946F0BD3F
:101870006D2100004D1000003D13000061210000AB
:101880003D2000003510000065100000C52000005C
:10189000C51B0000E52000008D210000A51F0000F1
:1018A00065130000191D000070B504000D000D4BFC
:1018B0009847636C013301D100236364A36C013347
:1018C00001D10023A364084B9847A36B002B04D1DC
:1018D000200024302900054B98472000044B9847EE
:1018E00070BDC0464D10000065100000FD1F0000D7
:1018F00065130000084B1B681B68002B04D10122F4
:101900005242064B1A6006E0034B1B68DB68DB683B
:101910005A68024B1A607047783B0020280000206C
:1019200010B5041E0E4B1B6858600E4B1B689C4282
:1019300007D20D4B18680A4B196804310B4B9847B6
:101940000CE00B4B1868064B19680431074B98479D
:10195000084B1B689C4201D2064B1C6010BDC04660
:10196000283C0020443C0020483C00201D12000080
:10197000783B002028000020F0B54F464646C0B412
:1019800085B002900F00160003930C9C002801D133
:1019900072B6FEE7042C01D972B6FEE740205A4B1E
:1019A0009847051E00D1A8E00E9B002B00D0A1E0B7
:1019B000B000554B98472863002803D12800534BAB
:1019C00098479AE0524BF3189B002A6B9446634465
:1019D0000722934398463A783423EA543B78002B05
:1019E0000DD07A1C2B00353329003C31107818704B
:1019F0001078002803D0013201339942F6D1002239
:101A00003B23EA54271E042F00D90427EF62EF631B
:101A10002B1D019318003F4EB04728001830B047E7
:101A20002D610523DB1BAB616D62039A0299404671
:101A3000394B984728600D9B002B00D01D60374B19
:101A40009847374A136801331360364B1B68002BE5
:101A500022D1344B1D601368012B28D1324E6333E1
:101A60009946B144314F3000B84714364E45FAD14B
:101A70002F4B994618002D4EB0472E4F3800B047D7
:101A80002D48B0472D48B0472D48B0472D4B4A460A
:101A90001A602D4B1F600AE02C4B1B68002B06D1EF
:101AA000204B1B68DB6A9C4201D31E4B1D60284AF9
:101AB000136801331360EB6A264A1268934201D916
:101AC000244A13609800C3189B001748C018019956
:101AD000214B9847214B98471C4B1B680120002B3A
:101AE0000DD0104B1B68DB6A9C4208D91C4B9847F1
:101AF000012004E00E9B036364E70120404205B02F
:101B00000CBC90469946F0BD71110000D91100003F
:101B1000FFFFFF3FFD110000111000004D100000FD
:101B2000503C0020283C0020B03B0020E511000084
:101B3000843B0020983B00202C3C0020143C0020DB
:101B4000543C0020783B0020483C00207C3B002097
:101B50004C3C0020683C002005120000651000008D
:101B60003510000010B584B0002303930293019355
:101B7000009364220C490D480D4CA04701280DD15B
:101B80000C4B9847012809D172B601220A4B1A6002
:101B900000220A4B1A600A4B984703E0002801D143
:101BA00072B6FEE704B010BDD06B00006D1E0000E1
:101BB00079190000112300007C3B0020443C0020E8
:101BC00031110000024A1368013313607047C046A8
:101BD000403C002010B5044B9847044B1C68044B54
:101BE0009847200010BDC0464D100000443C002026
:101BF00065100000F0B583B0394B1B68002B62D133
:101C0000384B1A6801321A601C68002C12D1364B0E
:101C10001B681B68002B01D072B6FEE7324A1168C0
:101C2000324B186810601960314A13680133136031
:101C3000304B9847304B1B6800269C4237D3002618
:101C4000294D2B681B68002B04D1012252422A4BDC
:101C50001A602CE0244B1B68DB68DF687B689C42C1
:101C600002D2254A136022E03B1D01931800234B4A
:101C70009847BB6A002B03D0380018301F4B984799
:101C8000FB6A1F4A1268934201D91D4A13609800EB
:101C9000C3189B001B48C01801991B4B98471B4B4E
:101CA0001B68FA6ADB6A9A42CBD30126C9E7174B55
:101CB0001B68DB6A9A00D3189B00124A9B58012BC1
:101CC00006D9012604E0124A136801331360002686
:101CD000104B1B68002B00D00126300003B0F0BD74
:101CE000403C0020443C0020783B0020483C002041
:101CF000743B0020F5180000280000204D12000061
:101D0000683C0020B03B002005120000283C002069
:101D1000AC3B00206C3C0020F8B52F4B1B68002B1F
:101D200001D172B6FEE72D4B98472B4B1A68013A4A
:101D30001A601B680024002B4AD1294B1B68002B1A
:101D400023D145E0FB68DE6830001830254B98470A
:101D5000351D2800234B9847F36A234A12689342A3
:101D600001D9214A13609800C3189B001F48C0186E
:101D700029001F4B98471F4B1B68F26ADB6A9A4287
:101D800005D301221C4B1A6001E01C4C270023687C
:101D9000002BD7D11A4B1B68002B11D0184B1B6896
:101DA000002B0DD0174E144D154CB047002801D014
:101DB00001232B602368013B23602368002BF4D1AF
:101DC0000D4B1B680024012B02D10F4B98470134A7
:101DD0000E4B98472000F8BD403C00204D100000FD
:101DE000503C00204D120000683C0020B03B002019
:101DF00005120000283C00206C3C00202C3C0020F8
:101E0000AC3B0020F51B0000351000006510000001
:101E100010B5041E16D00D4B1B68002B01D072B6F6
:101E2000FEE70B4B98470B4B1B68E4180A4B1868EE
:101E300004300A4B98472000094B9847094B9847B4
:101E4000002801D1084B984710BDC046403C0020F7
:101E5000C51B0000443C0020283C00204D1200001F
:101E600021190000191D000035100000F0B547468B
:101E700080B4164D164F174E1DE0B8473468164B08
:101E80009847002C17D0154B9847124BDB68DC683D
:101E9000201D134B9847134A1368013B13600B4AEC
:101EA0001368013B1360104B9847206B0F4B98460B
:101EB00098472000C0472B68002BDED10C4B1B68D5
:101EC000012BF8D90B4B9847F5E7C046803B002023
:101ED000C51B0000143C0020191D00004D1000001F
:101EE0004D120000503C002065100000D911000088
:101EF000B03B00203510000010B5254B1B68002BAF
:101F000003D00122234B1A6041E00022214B1A60CA
:101F1000214B1B689A00D3189B00204A9B58002B2A
:101F200016D11D4B1B68002B06D01B4A1B4C100002
:101F300004E00368002B01D172B6FEE71368013B91
:101F4000136013689900CB189B001B59002BF0D02D
:101F5000114B1B68114C9A00D11889006118486810
:101F600040684860D21892000832A218904205D109
:101F700041689A00D2189200A21851609A00D318B2
:101F80009B00064AD3185B68DA68054B1A6010BDDF
:101F9000403C00206C3C0020683C0020B03B00200E
:101FA000283C002070B50C00002801D172B6FEE775
:101FB0000B4D296818310B4B9847286804300A4BA1
:101FC0009847631C06D1064B196804310748084B33
:101FD000984704E0074B18682018074B984770BDD6
:101FE000283C00201D1200004D120000543C00202F
:101FF00005120000443C00202119000070B50C00BF
:10200000002801D172B6FEE7074D29681831074B49
:10201000984728680430064B9847064B1868001903
:10202000054B984770BDC046283C002005120000B3
:102030004D120000443C00202119000070B5C36817
:10204000DD68002D01D172B6FEE72C0018342000A7
:10205000144B9847144B1B68002B13D12C1D2000E8
:10206000104B9847EB6A114A1268934201D90F4A04
:1020700013609800C3189B000D48C01821000D4B39
:10208000984703E021000C480A4B98470B4B1B680C
:10209000EA6ADB6A00209A4203D90122084B1A60DF
:1020A000013070BD4D120000403C0020683C002013
:1020B000B03B0020051200002C3C0020283C0020F2
:1020C0006C3C0020002801D172B6FEE7034B1B6870
:1020D0000360034B1B6843607047C046743B00209D
:1020E000443C002070B504000E00002801D172B6F7
:1020F000FEE7002901D172B6FEE7114B9847114B5C
:10210000196833685A1C15D00F4A1268206890422B
:1021100003D00125626891420DD26268881A0125B8
:10212000834208D9521AD31833602000074B9847CE
:10213000002500E00025064B9847280070BDC046EA
:102140004D100000443C0020743B0020C5200000DE
:10215000651000000122014B1A6070476C3C0020A2
:10216000014B18687047C046283C0020054B1B688F
:102170000120002B04D0044B186843425841400012
:102180007047C0467C3B0020403C002070B5041ED8
:1021900031D0C36A184A1268D26A93422BD282693C
:1021A000002A05DB144A1268D16A0522521A82619C
:1021B0009A00D3189B00114AD31862699A4216D12B
:1021C000251D28000E4B98470B4B1B68DB6AE3620A
:1021D0000C4A1268934201D90A4A13609800C31846
:1021E0009B000648C0182900074B984703E0024BA4
:1021F0001B68DB6AE36270BD283C0020B03B002016
:102200004D120000683C00200512000070B5051E4C
:102210001DD0C36AC26B934219D0041D20000C4B21
:102220009847E86BE862AB69002B02DB05231B1AB9
:10223000AB61084B1B68984201D9064B18608300BC
:1022400018188000044B18182100044B984770BDE3
:102250004D120000683C0020B03B00200512000039
:1022600010B54160006191420BD8D21A01248369F4
:102270009A4211D2011D094B1868094B9847002456
:102280000AE09A4202D20124994205D2011D054B6F
:102290001868034B98470024200010BDA43C002080
:1022A0001D120000703C002070B5104B9847104B79
:1022B0001B68002B16D10F4D28000F4EB0470F4C56
:1022C0002000B0470E4B1D600E4B1C6000220C21FD
:1022D00002200D4B9847002802D0054B186001E002
:1022E00072B6FEE7094B984770BDC0464D1000001E
:1022F000A03C0020743C0020E5110000883C002038
:10230000703C0020A43C00208914000065100000EF
:1023100010B584B00B4B98470B4B1B68002B0DD0AE
:10232000002303930293019302330093002350226E
:1023300006490748074CA047002801D172B6FEE7BE
:1023400004B010BDA9220000A03C0020006C0000D9
:10235000792400007919000030B585B01D00134BB9
:102360001C68002C1FD0019102920390052913DCF8
:102370000F4B9847022807D10C4B18680023089A86
:1023800001A90C4CA0470FE0084B1868002300225D
:1023900001A9084CA04707E000232A0001A920005A
:1023A000054CA04700E0002005B030BDA03C002057
:1023B0006D210000DD14000055160000F0B55746F1
:1023C0004E464546E0B482B08146244B984780464D
:1023D000234B1B68984233D223E0DB681A6892468D
:1023E000DC68251D2800B8472000636A9847E36928
:1023F000012B18D1A36953449A4507D26360246125
:10240000184B18682900184B98470CE000230093DC
:10241000524600212000154CA047002803D172B677
:10242000FEE7104E124F33681A68002AD5D1114AC0
:102430000C4910680860136001234A46136002E0EB
:1024400000234A461360064B42461A60404602B0DB
:102450001CBC90469946A246F0BDC046D51B000064
:102460009C3C0020703C00201D12000059230000FD
:102470004D120000A43C0020F0B55F4656464D4684
:102480004446F0B489B0524B9B46524B9946524B4E
:1024900098465B461B681A68002A00D18FE0DB680B
:1024A0001D684C4B984705A84B4B98470400059B6B
:1024B000002B31D1854223D8484B9847444B1B68A9
:1024C000DB68DE68301D464B9847F369012B13D15A
:1024D000B369E9182B0022003000424CA0470128C4
:1024E0000AD1002300932A00002130003E4CA0476F
:1024F000002801D172B6FEE7736A300098470DE0FC
:10250000291B3A4B18683A4B9847344B9847002898
:1025100004D1384B984701E0304B9847334D364C47
:1025200045E0059B0393002B41DB079E7369002B5D
:1025300002D0301D2A4B984704A8274B9847059B8B
:10254000092B34D89B002D4AD3589F46069BB2696D
:10255000944663441900069B02003000214FB8479F
:10256000012824D13000736A9847F369012B1ED1EA
:10257000069BB1698C4663441A0000230093002136
:102580003000194EB047002811D172B6FEE7069907
:10259000B161002901D172B6FEE7411803000200C3
:1025A0003000104EB04702E03000154B9847002332
:1025B000002205A92868A0470028B2D169E7C847CA
:1025C00005A8C04704000025059B002B98D0A3E771
:1025D000703C0020C51B0000BD230000191D000039
:1025E0004D1200006122000059230000A03C002091
:1025F000A9180000351000001D170000D86B00005E
:10260000D9110000F0B55F4656464D464446F0B439
:1026100091B005000C00160029600800C44B9847D3
:10262000021E052A03D007001237030001E0182715
:10263000012321680520C90700D571E12168173001
:10264000890700D56CE1052A07D1BA48026A012141
:1026500099400B001343036206E0B648C2690121AA
:1026600099400B001343C3610FA92D239846F35CD7
:102670000B70FFB23800B04B98473800AF4B98470B
:102680004346F05C0021AE4B9847F37A6B712423EC
:10269000F35CAB712523F35CEB71F37E2B72337F1C
:1026A0006B722B6899461800A14B98471230002294
:1026B0000E2306A98C4663441A80328A0292802334
:1026C000DB019A421AD004D880239B019A420BD096
:1026D00007E1C023DB01029A9A420AD080231B0241
:1026E0009A4200D102E1FCE0102306930F3B0793CE
:1026F00000E108230693073B0793FBE0336804934C
:10270000F3689B4673690393337E98462623F35CF4
:10271000059373689A46002B16D080235B059A4573
:1027200039D12723F35C002B39D1336A1F00C0B2A3
:10273000844B984701000E2206AB9C466244380049
:10274000814B9847030027E0082306930023079353
:102750002723F35C002B0CD0069B0093079B0E22D3
:1027600006A98C466244B16A306A784FB8470300C4
:1027700012E0336A1F00C0B2724B98470100069BFB
:102780000093079B0E2206A88446624438006F4FD0
:10279000B847030000E00023181E00D0C0E0737E9D
:1027A000002B02D0B37E4A4693732A68029FD369F6
:1027B000002BFCD10E3306AA944663441B884A467C
:1027C0009381049B5A461343039A1343524613437F
:1027D0003B43424612021343059A57071F432723E0
:1027E000F35C002B01D104331F43717E8902337FD8
:1027F0005B021943737F1B0219432423F35C5B04C0
:1028000019432523F25C12041143F37A19433389E7
:10281000FF2B04D0802252041743194305E0F37EB6
:10282000002B02D08023DB041F432C23F35C002BFE
:1028300003D1474B9B789B0701D580231F432A6810
:10284000D369002BFCD14B4659602A68D369002B11
:10285000FCD14B461F600EAB80221A7000225A70CA
:10286000DA709A70336B0A93736B0B93B36B0C93A0
:10287000F36B02930D9300270EAEF9B2BB000AAAC8
:102880009858002802D12000324B9847431C05D0AD
:102890003070000CC0B231002F4B98470137042F25
:1028A000EBD10023EB602B616B61AB61EB612B62C1
:1028B000AB626B620022EB85AB853033EA540133A7
:1028C000EA540133EA540133EA542868184B984714
:1028D00004002249224B9847A400224BE5500020D7
:1028E0001EE0102306930023079303E003230693BF
:1028F0000023079333680493F3689B46736903933B
:10290000337E98462623F35C059373689A46002B22
:1029100000D11DE780235B059A4500D101E73EE722
:1029200011B03CBC90469946A246AB46F0BDC046AD
:10293000110F00000004004051380000E137000092
:10294000410D000075380000510B0000790B0000AC
:10295000002000418D0D00004D390000BD2A00000F
:102960004D2C0000643D0020C2791C23002A0ED0AB
:10297000C28D92B2173B002A09D10368DA69002A96
:10298000FCD1198502211A7E0A42FCD000231800CE
:102990007047C04682791C23002A30D0828D92B2C3
:1029A000173B002A2BD10268107E400727D5D36938
:1029B000002BFCD1538BDBB298061DD0980703D5B2
:1029C0000223538318331AE0580703D50423538393
:1029D0001A3314E0D80703D50123538312330EE0D2
:1029E000D80603D510235383323308E09B0603D562
:1029F00020235383213302E0138D0B800023180022
:102A00007047C046F0B54F4680B482B004000191D3
:102A10001720002A49D0E3790530002B45D02768DC
:102A2000FB69002BFCD191460025012620E03A7E6F
:102A3000324204D1012B2AD0013B002BF7D16A1C72
:102A400092B2019B5B5D6179012902D099B21500B8
:102A500005E0A91C8DB20199895C09021943200087
:102A6000144B98474A46013A93B29946002B16D028
:102A70003B7E3342E3D1104BD9E73A7E0A4208D17C
:102A8000012B08D0013B002BF7D100200DE01220D4
:102A90000BE0002009E0122007E0002005E03B7E6B
:102AA0009B07FAD4044B0221E7E702B004BC91462D
:102AB000F0BDC04669290000FFFF0000F8B58000A6
:102AC000604BC5582C68E369002BFCD1237EA67DA2
:102AD0001E403023EB5C3122AF5C1F40F30722D550
:102AE000EB8D9BB2002B1CD0AA6A1378DBB2511C71
:102AF000A9626979012901D09BB204E051780902E9
:102B00000B430232AA62DB05DB0D2385EB8D013B13
:102B10009BB2EB85002B06D1013323750133A375DE
:102B200001E001232375B30709D502232375002291
:102B30003133EA54FB0702D52800EB689847730746
:102B400060D5AB8D9BB2002B5AD0638BDBB21A07DA
:102B500002D43F22134001E037221340002B2DD036
:102B60009A0705D51A223223EA54303B63831FE0CB
:102B70005A0705D51E223223EA542E3B638317E001
:102B8000DA0705D513223223EA54313B63830FE081
:102B9000DA0605D542223223EA54223B638307E05A
:102BA00020221A4204D021323223EA54123B63839A
:102BB0007B0727D528006B69984723E0238DDB0529
:102BC000DB0DDAB2696A0A706A6A511C6962697956
:102BD000012904D11B0A53706B6A01336B62AB8D00
:102BE000013B9BB2AB85002B0CD104332375002233
:102BF0002E33EA54BB0705D528002B69984701E01E
:102C000004232375F30607D5102323752376FB06CB
:102C100002D52800EB699847B30607D52023237512
:102C200023763B0702D52800AB699847330707D5C1
:102C3000082323752376BB0602D52B6A2800984704
:102C4000F8BDC046643D00207047C046F0B50A4B51
:102C50001B78002B0CD1094F094E0A4D0024DE5180
:102C60005A1914600433182BF9D10122024B1A703F
:102C70008000024BC150F0BDA83C0020AC3C0020BD
:102C8000492C0000643D002010B582B004000622EB
:102C900005496846054B98472000054B98476B4609
:102CA000185602B010BDC046086C0000DD6300007D
:102CB000110F000010B5024B1B680020984710BD93
:102CC000AC3C002010B5024B5B680120984710BD5A
:102CD000AC3C002010B5024B9B680220984710BD09
:102CE000AC3C002010B5024BDB680320984710BDB8
:102CF000AC3C002010B5024B1B690420984710BD66
:102D0000AC3C002010B5024B5B690520984710BD14
:102D1000AC3C002070B50020084B98470500084CDB
:102D2000FA218900A047074B186007492800A047EF
:102D3000064B18600522064B1A6070BD75370000FF
:102D4000154700003000002040420F002C000020FA
:102D500010E000E030B5084B1C68084A00258021CF
:102D6000490206E0002C04D05460956013680B42C1
:102D7000FCD00138F6D230BD3000002010E000E079
:102D80000C4B1B68002B10D1EFF31083002B09D1E3
:102D900072B6BFF35F8F0022074B1A700132074BE8
:102DA0001A7002E00022054B1A70024A13680133C0
:102DB00013607047C43C002034000020C83C002051
:102DC000084B1A68013A1A601B68002B09D1064BA0
:102DD0001B78002B05D00122044B1A70BFF35F8FC4
:102DE00062B67047C43C0020C83C0020340000207C
:102DF000F0B583B001AC012565700027A770257080
:102E000021002C200B4EB047802252010A4B9A61C0
:102E10002770657021000220B04725700237677067
:102E200021001420B0472570677021002D20B04785
:102E300003B0F0BD9D3400008028004000207047A2
:102E400010B500230022037043708370C37000210B
:102E500003830362C36101240471C0246401C4803C
:102E6000017242728272C27202732A240255427344
:102E70008273C27303610275063C0255C3840385E5
:102E8000417510BDF0B54F4680B49AB005000C00F6
:102E900016000800A94B98472C60A94A116A08231C
:102EA0000B43136222780523D20700D5C9E12A68B3
:102EB000138C9BB2002BFBD122781C33920700D5D8
:102EC000BFE173782B71002B04D19E4AD169043382
:102ED0000B43D3610023AB60EB602B61AB76EB76E9
:102EE0002B832B778000984BC5502A23F35C002B53
:102EF00005D1337B002B02D101336B7701E0002336
:102F00006B772F6833786A46137069461E208F4BA3
:102F100098471E208E4B9847347960228D4902A82D
:102F20008D4B9847132C0CD8A40002ABE05801A994
:102F300000234B70CB708B7001330B70C0B2874B8A
:102F40009847F4886022834902A8834B9847132C42
:102F50000CD8A40002ABE05801A900234B70CB7041
:102F60008B7001330B70C0B27C4B984700247A4BB6
:102F700099460123A34032691A4212D06022754952
:102F800002A8C847132C0CD8A30002AA985801A97C
:102F900000234B70CB708B7001330B70C0B26F4B42
:102FA00098470134142CE4D1737B9A01B37BDB0185
:102FB0001343DBB23B70337DDB0172781343DBB22A
:102FC000BB70F378342B00D93AE19B00644AD358A4
:102FD0009F460420102102221AE0727A307A1021D2
:102FE00016E006201021012212E008201021002204
:102FF0000EE00020302100220AE0002020210022E3
:1030000006E000200021002202E00220102101221F
:1030100012017023134003433B732A68138C9BB245
:10302000002BFBD1727D17333F2A00D909E1F37BD6
:10303000DB011A43D2B27A732A68138C9BB2002B3D
:10304000FBD1B3787B702423F25CD200337B9B00EE
:103050001343F27A1A43B37A5B0013430B437B8129
:103060002A68138C9BB2002BFBD1328B002A00D133
:1030700098E010297AD002D800293ED092E0202989
:103080001AD0302900D08DE0F37A002B0AD0F169F4
:1030900080311723FF2900D9D3E0316A8031FF291D
:1030A00000D9CEE01723F169FF2900DDC9E0316ABC
:1030B000FF2900DDC5E075E0F37A002B12D0F3693B
:1030C00080208000844663441900172325488142EC
:1030D00000D9B6E0336A63441900172321488142BE
:1030E00000D9AEE017231F49F069884200DDA8E04F
:1030F000306A884200DDA4E054E0F37A002B12D05D
:10310000F3698020000184466344190017231648A0
:10311000814200D995E0336A6344190017231248AD
:10312000814200D98DE017230F49F069884200DD04
:1031300087E0306A884200DD83E033E03D2E000006
:1031400000040040001400407C3D00205138000085
:10315000E1370000E46C0000DD6300004D39000041
:10316000106C0000FF030000FF0F0000F37A002B3B
:1031700010D0F369802000028446634419001723AD
:10318000324881425DD8336A6344190017232F48BF
:10319000814256D817232D49F069884251DC306AA4
:1031A00088424EDC7B891A437A812A68138C9BB251
:1031B000002BFBD1B38BFB812A68138C9BB2002BB5
:1031C000FBD1338C3B822A68138C9BB2002BFBD142
:1031D0003279F38813433B812A68138C9BB2002B0E
:1031E000FBD12A33F35CFB7007233B711D33F35C87
:1031F000002B19D0F28C172315498A4221D87A82E4
:103200002A68138C9BB2002BFBD1318D80231B01CC
:10321000CA1892B217230E48824212D8B9822A687D
:10322000138C9BB2002BFBD10A4B1B681902E022C6
:10323000D2000A409B065B0F1343BB85002300E0CE
:10324000172318001AB004BC9146F0BDFFFF000020
:10325000FF0F00002060800070B52D4B1C682368B4
:103260009D79EDB2EA0735D5E27ED20732D5A27E4E
:10327000D2072FD501229A716269931C636123687A
:103280009B8C9BB21380238B013B9BB22383002B2F
:1032900015D0637F002B1DD02268D3795BB2002B41
:1032A00018DB138C9BB2002BFBD1117E02330B4336
:1032B00013762268138C9BB2002BFBD10AE0237F8C
:1032C000052B07D1002323770133226813712000D7
:1032D000A36898476B070BD5042322689371E37E9C
:1032E0009B0705D5A37E9B0702D52000E36898477E
:1032F000AB070BD5022322689371E37E5B0705D5EC
:10330000A37E5B0702D523692000984770BDC046A5
:103310007C3D0020931C9B00195001239340827E2A
:10332000134383767047C04610B50400038B9BB2ED
:103330000520002B1DD1237FD8B2052819D00523E5
:10334000237722836161043B22685371637F0020ED
:10335000002B0ED02268138C9BB2002BFBD1117E68
:1033600002330B4313762268138C9BB2002BFBD1E4
:10337000002010BD00B583B001A800230370094BE5
:103380009847094A116A40230B431362074B197887
:1033900001220A431A70197802220A431A7003B0F4
:1033A00000BDC04655350000000400400018004331
:1033B0008023DB0143810023037343738373C3734F
:1033C0000374437483748022920302604360C023B9
:1033D0005B0103817047C046037B5A1E93419B02E9
:1033E000427B002A02D0802292001343827B002A73
:1033F00002D0802252001343C27B002A01D08022D7
:103400001343027C002A01D040221343827C002A0D
:1034100001D00422134301684268114342890A43E0
:10342000417C0A4301890A431343014AD360704730
:1034300000180043002805D10A4A516802230B43B3
:1034400053600EE0012805D1064A916802230B4320
:10345000936006E0022804D1024AD16802230B439C
:10346000D360704700180043031E05D10A4B9878BB
:10347000C007C00FC0B20DE0012804D1064B9878F8
:103480008007C00F06E00020022B03D1024B987882
:103490004007C00F7047C0460018004300B583B016
:1034A00001AB80221A700A785A704A789A708A782A
:1034B000DA701900014B984703B000BD4D39000088
:1034C00010B5082803D880001C4B1B589F460020CD
:1034D00032E01B4B18692FE01A4B187D0007800F54
:1034E0000130194B584327E0154B586924E0144B21
:1034F0001B68022018401FD0124980225200CB685E
:103500001342FCD00E4B1B685B0714D500200F4BF9
:1035100098470B4B9B681B041B0C58430CE028235B
:10352000084AD35C00209B0706D5054BD86803E00A
:103530008020000200E0064810BDC046446D000037
:10354000CC3C0020000C004000093D007538000014
:10355000006CDC0210B50549CC69027801231A40E1
:10356000D203034B23401343CB6110BD0010004036
:10357000FF7FFFFF10B584B0802252002F4B9A606E
:10358000FD3A2F4B9A602F4A53681E218B4353609C
:103590008023DB059B78022B0FD08023DB059B78F3
:1035A0005BB2002B09DB8023DB0501229A7101321B
:1035B0009A701A009379002BFCD0204B1A7D802141
:1035C00049420A431A751A7DC0318A431A751E4B47
:1035D00098471E4C0123A3716371237101A94B60AD
:1035E00000234B7006220A700B724B720020184B9E
:1035F00098470020174B98470020174B9847217990
:10360000C9B2164B9847164B984214D88023DB0555
:103610009B78002B0FD08023DB059B785BB2002BBF
:1036200009DB8023DB0501229A7100229A701A00BF
:103630009379002BFCD004B010BDC046000C0040B4
:1036400000140040004000416536000000040040C6
:103650008936000035370000753700001547000037
:10366000001BB700064A516940230B4353610122F6
:10367000044B1A7019000B781342FCD17047C046F6
:10368000000400400018004070B505000C784B782D
:10369000002B02D08023DB001C434B7A002B02D08E
:1036A00080231B011C434A68012A17D9531E1A4262
:1036B0000FD1022A06D90223002001305B009A4272
:1036C000FBD800E0002080235B011C43000404437E
:1036D00004E0120480239B001A4314430B7A002B4E
:1036E00002D080239B011C430426AE400D490E4AA4
:1036F0004B6813401E42FBD10C4B9847AD00094B61
:103700009C466544286A80235B0018402043286259
:103710006146054A4B6813401E42FBD1044B984753
:1037200070BDC04600180040FC070000812D00005D
:10373000C12D000010B504000422824009480A4946
:1037400043680B401A42FBD1084B9847A400054B35
:103750009C466444236A8022520013432362044B34
:10376000984710BD00180040FC070000812D0000A4
:10377000C12D0000F8B5040004228240124813490C
:1037800043680B401A42FBD1114B98470E4F083447
:10379000A400E0590007000F0E4B98470600E559BA
:1037A000ED04ED0FE459240C0B4B9847002D07D185
:1037B000012C07D921003000084B9847060001E092
:1037C0000134E6403000F8BD00180040FC0700005E
:1037D000812D0000C1340000C12D000015470000FC
:1037E00010B50400094B9847A000094B9C46604463
:1037F0008022815840230B4383508021403A435814
:103800001A42FCD0034B984710BDC046812D0000E2
:1038100000180040C12D000010B50400094B984766
:10382000A000094B9C4660448022835840218B4372
:1038300083504031403A43581A42FCD1034B9847D9
:1038400010BDC046812D000000180040C12D0000B1
:1038500070B504000D00054B98472B780F221340DC
:103860002034A400024AA35070BDC046193800009D
:103870000018004010B50400064B98472034A400FF
:10388000054BE4582407240F044B98472000044BB1
:10389000984710BD812D000000180040C12D000088
:1038A0007537000030B5D378002B1ED11378802BEC
:1038B00004D01B0680246402234300E000235478D4
:1038C0000225AC430AD19478002C03D18024A402B1
:1038D000234302E0C024E402234341605478013CC6
:1038E000012C12D8184C23400FE041600B041B0C34
:1038F000A024E405234383620B0CD0242406234335
:103900008362D378002B18D01CE00C04240CA02573
:10391000ED052C431C4384620C0CD0252D062C4352
:103920001C438462D478002C0CD15B0305D59378BA
:10393000012B01D1816100E041615378013B012BF2
:1039400000D8816030BDC046FFFFFBFF10B503000B
:103950000A00C1090020002904D15809C001054905
:103960008C4660441F210B401E399940024B9847FA
:1039700010BDC04600280040A53800007047C04672
:1039800010B5054B9847054B9847054B9847054B95
:103990009847054B984710BD75350000F12D000084
:1039A0007D3900007D3900007D390000FEE7C0460A
:1039B00010B51D4B1D4A9A4203D01D4B1A4A9A421C
:1039C00004D31C4B1C4A9A4210D31EE01B4A184BCE
:1039D00003339B1A9B0801339B00002212481349B2
:1039E0008C58845004329A42FAD1EAE7144A114BB7
:1039F00003339B1A9B0801339B0000220E480021D1
:103A00001418216004329A42FAD10E4AFF210E4B5B
:103A10008B4393600D4A516880230B4353600C4BDA
:103A200098470C4B9847FEE700000020A46E00006A
:103A3000B400002078400020B400002004000020E2
:103A4000B800002000ED00E0000000000040004150
:103A500091630000593F00000300064A1268002AE3
:103A600002D10549034A1160024A1068C318136065
:103A70007047C046E43C00207860002001204042AE
:103A80007047C04680239B014B6000207047C046B2
:103A90000020704730B585B003AB020A1A70587029
:103AA0009970562269460A80533A4A80019300234E
:103AB0000B724B728B72044D044C69462800A04770
:103AC0000028FAD105B030BD8C3F002091080000DD
:103AD00030B58BB06B469A1DD88006AB5621198045
:103AE00054395980079200221A725A729A720F4DF5
:103AF0000F4C06A92800A0470028FAD103AB562294
:103B00001A80553A5A8026326A44049200221A7268
:103B10005A729A72054D074C03A92800A047002845
:103B2000FAD127236B4418780BB030BD8C3F0020AE
:103B3000910800007108000010B5154AD369002BE8
:103B4000FCD1134B1B7EDBB2124A13805B071ED5E0
:103B50000F4B5A8BD2B23F2313400F490B7006D044
:103B60000623134213D00622094B5A830FE0084B59
:103B70001B8D0A49DB05DB0D0B80094A13680133F5
:103B80001360084B186800230022074CA04710BDA3
:103B9000000C00424A3E002064400020B43F002058
:103BA000EC3C0020083D00205516000070B582B0A6
:103BB00005000E0000226B46DA80064C6B46991D0C
:103BC0002800A0470028F9D16B4606331B883370C4
:103BD00002B070BD9529000070B505008CB2034E8F
:103BE00021002800B0470028FAD170BD69290000E3
:103BF00030B587B00500144B984701AC2000134B3B
:103C0000984780235B03019300226260C0235B011D
:103C10002381658101232373A373A37469464A70CA
:103C20008B70CA700B700520094B98472000094B18
:103C300098470220084B9847084C0220A0470028CC
:103C4000FBD007B030BDC04675330000B133000073
:103C50004D390000D93300003534000069340000CC
:103C600030B58DB001AC2000154B98470223A370EE
:103C70001D332371C0235B01E380124D22001249E2
:103C80002800124B9847124B18702A68138C9BB26D
:103C9000002BFBD18021C9030E4B19600723137140
:103CA00093711178053B0B431370064B1A68138C04
:103CB0009BB2002BFBD10022054B1A700DB030BD1A
:103CC000412E0000D83F0020000C0043852E00004C
:103CD000B63F002000E100E070B5094D002209491F
:103CE0002800094EB0470124EB7E2343EB76074DB5
:103CF000002207492800B047EB7E1C43EC7670BDDC
:103D0000D83F0020F941000015330000B83F0020E3
:103D10000D4300000023024A1380024A13807047BB
:103D2000384000203A40002070B505000B4B1C883D
:103D30000B4B1888643065210A4B98478C420AD097
:103D40006200094BD552601C6521064B9847034B16
:103D50001980002001E00120404270BD3A4000205F
:103D600038400020F5490000803D002070B5394BF7
:103D70009847AA20384B9847384C20220021200031
:103D8000374B9847374B1A8821003748374B9847AD
:103D9000374E384D384CB0472823E35C2B702A232C
:103DA000E25C364B1A702C23E25C354B1A70354BB3
:103DB0001A88354B1B889A4211D2344B1B68272B2B
:103DC00003D80133314A136019E000222F4B1A60E7
:103DD00014322F4B1A60133A2E4B1A700FE02C4BF3
:103DE0001B68002B03D0013B294A136007E0142213
:103DF000274B1A600023254A1360264A1370264B6E
:103E00001B78002B22D0254B1A78082A18D893004B
:103E1000234AD3589F468020800112E08020C001B1
:103E20000FE0C020C0010CE08020000209E0A020CB
:103E3000000206E0C020000203E0E020000200E0F3
:103E40000020184B98470022134B1A703220164B53
:103E50009847A0E7153D0000293D0000803E002066
:103E6000EF63000036000020D83F00202933000017
:103E7000A9010000E83C0020183D0020FD3C002086
:103E8000F03C0020F23C002048000020F83C0020DC
:103E90004C0000200C3D0020FC3C0020380000209D
:103EA000686D0000F13B0000111E000030B58FB0BE
:103EB00001AA64230193214B536000239360137381
:103EC0001376802189031161012149429182D361D6
:103ED00013622531535493620831535401315354C2
:103EE00001315354D7331386154BD382154C1649E1
:103EF0002000164B984724680722E3691A42FCD138
:103F000022680223134323600E4D2868104B984704
:103F10001F2318401E3B83400E4A1360E88800238D
:103F2000102105E00133834202D31023638302E0B2
:103F3000628B0A42F6D00FB030BDC046480D00007B
:103F4000102700008C3F002000080042750200008E
:103F5000892C000000E100E0F0B595B072B6BFF327
:103F60005F8F002400266B4B1C706B4B98476B4B8C
:103F700098476B4B984704AA8023DB050493546051
:103F8000FF2313819472D4720125DB3BD554013396
:103F9000D5540133D4540133D45494620533D454EA
:103FA0000133D454546114820023D37616761677E5
:103FB0005676132393765677E1235B0213628023B0
:103FC0005B03D360574B1363574B536301235B422F
:103FD0009363D363554C564B1C605649564B19603E
:103FE0005649574B196057492000574B9847574E31
:103FF000336898680021564FB847336858680021E5
:10400000B8475048534B98475349544B98472668F4
:104010003000534B98471F2318408540514B1D607B
:104020002368DA69002AFCD1326802231343336023
:104030003E4B1B68DA69002AFCD15A68802149028C
:104040000A435A600121394AD171DA69002AFCD148
:10405000DA69002AFCD15A68802189020A435A6031
:104060000121324A9171DA69002AFCD10432354BC0
:104070009A753D4B98473D4B9847552100203C4C45
:10408000A047AA210120A04700203A4CA0473A4B64
:1040900018700120A047394B1870394D2878394CD9
:1040A000A04701001120384B98472878A04701000D
:1040B0001120364B9847364B98470F20354B984781
:1040C0008020C001344B9847002201214020334B0F
:1040D0009847334B18600024039402940194022300
:1040E0000093002364222F492F48304DA8470394A2
:1040F0000294019401340094002364222C492D4839
:10410000A847044B1C70BFF35F8F62B62A4B9847D9
:10411000FEE7C0463400002081390000152D000064
:10412000AD3E000002001600020017004C3E0020C9
:10413000603D0020D93B00005C3D0020AD3B00000D
:10414000583D0020000C004205260000B000002071
:10415000FF630000110F0000393B00004D2C0000F0
:10416000892C000000E100E0613C0000D93C000027
:10417000953A0000D13A000065400020E43E00205E
:1041800039000020F1010000F901000031020000B7
:104190001501000041010000F13B000089140000FE
:1041A000083D00208C6D00006D3D00007919000075
:1041B000946D000029440000651B0000F8B50C4B0D
:1041C000196091420DD24B1C4C000419571C002061
:1041D000074E25884019336001330234BB42F8D1C1
:1041E00000E00020511A034B984780B2F8BDC0464A
:1041F000003D00202948000070B58CB0202201212C
:104200003248334B9847334B1880334B1A68802021
:10421000C00380233149C850138C9BB2002BFBD1C3
:10422000073313719371137802218B4313702A4B58
:104230001A68138C9BB2002BFBD1294E337001AC52
:104240002000284B98473423E370313B237263727C
:10425000013BA37004332371C0235B01E380224D33
:10426000220022492800224B984730702A68138C7C
:104270009BB2002BFBD18021C903184B1960072387
:10428000137193711178053B0B431370164B1A6829
:10429000138C9BB2002BFBD10022114B1A70124CD5
:1042A00014492000144B9847E27E01231343E37620
:1042B000124D202200212800114B9847114B1A88DB
:1042C00029002000104B98470CB070BD803E0020A4
:1042D000BD410000F23C0020D83F002000E100E09A
:1042E000B63F0020412E0000B83F0020000C0043E4
:1042F000852E00000D43000015330000F83F00201C
:10430000EF630000360000202933000070B58CB048
:10431000202201212C482D4B98472D4B18802D4BE6
:104320001A688020C00380232B49C850138C9BB28D
:10433000002BFBD1073313719371137802218B4348
:104340001370244B1A68138C9BB2002BFBD1234EA5
:10435000337001AC2000224B98473423E370313B8B
:1043600023726372013BA3701D332371C0235B0171
:10437000E3801C4D22001C4928001C4B98473070DC
:104380002A68138C9BB2002BFBD18021C903124BEE
:1043900019600723137193711178053B0B43137058
:1043A000104B1A68138C9BB2002BFBD100220B4BD5
:1043B0001A700C4C0E4920000E4B9847E27E0123E8
:1043C0001343E3760CB070BDF83F0020BD41000000
:1043D000F43C0020B83F002000E100E0B63F0020A0
:1043E000412E0000D83F0020000C0043852E000025
:1043F000F941000015330000074B40221A701D3AA6
:10440000DA71064A12785A70054A12889A80054A6B
:1044100012885A807047C0463C4000203800002077
:104420003600002048000020F0B5474680B484B034
:104430000C22002168469A4B98470024994E9A4DC9
:104440009A4F21E10F236B441B78402B00D012E1DF
:104450006A4613550C2269469548964B98476B4619
:104460001B78232B00D0FFE06B46DB7A402B00D07B
:10447000FAE06B465B78522B03D0572B00D17CE0DF
:10448000F2E06B469B788C4A12789A420DD18849AB
:104490008B70AA23CB7011330B710C228748884B89
:1044A00098471920874B9847DEE0834A52789A4212
:1044B0002BD17F4CA370202200218348784B984752
:1044C000824B1A8880498248824B9847824B1B88CE
:1044D000E3701B0A2371814B1B8863711B0AA37154
:1044E0007F4B1B78E3717F4B1B7823727E4B1B78CD
:1044F00063727E4B1B78A3720C2221006F48704BB5
:10450000984719206F4B9847AEE06B4A52799A4210
:104510000ED167498B706D4B1B88CB701B0A0B71DA
:104520000C226648664B98471920664B98479BE0DB
:10453000614A92799A420ED15D498B706C4B1B880F
:10454000CB701B0A0B710C225C485D4B98471920FD
:104550005C4B984788E0584AD2799A4200D083E071
:1045600053498B70634B1B78CB700C225348544BD0
:1045700098471920534B984776E06B469B784E4AF4
:1045800092789A4212D16B461B791B026A46D27806
:104590001343594A13804D4A13800C22444947481B
:1045A000474B98471920474B98475DE0424AD278DD
:1045B0009A4210D16B461B791B026A46D27813438C
:1045C0004B4A13800C223A493C483D4B98471920EE
:1045D0003C4B984748E0384A12799A4213D16B46CF
:1045E000DB78444A12789A4204D0424A137001227E
:1045F000424B1A700C222E493048314B98471920F3
:10460000304B984730E02C4A127A9A420AD13C4B00
:1046100098470C2226492948294B98471920294BAD
:10462000984721E0244AD27A9A421DD16B46D87825
:10463000344B1B7883420FD0324B98461870324C63
:10464000A04701001120314B984743461878A047F6
:10465000010011202E4B98470C2215491748184B82
:1046600098471920174B98470C22002168460C4B9D
:104670009847002404E00B2C02D86A4613550134F5
:1046800000220F236B441A70002300220F2169447B
:104690003068A847002800D0D4E60A30B847F3E7CE
:1046A000EF630000083D00201D170000111E0000F0
:1046B000C03E0020DD6300003C0000204C3E002096
:1046C000052A0000552D0000803E00203600002005
:1046D000D83F002029330000F23C0020F43C0020A9
:1046E0000C3D0020E83C0020FD3C0020F03C002078
:1046F0004800002038000020043D0020FC3C002041
:10470000F943000039000020F1010000F901000028
:1047100031020000002243088B4274D303098B420C
:104720005FD3030A8B4244D3030B8B4228D3030C81
:104730008B420DD3FF22090212BA030C8B4202D323
:104740001212090265D0030B8B4219D300E0090A4B
:10475000C30B8B4201D3CB03C01A5241830B8B4254
:1047600001D38B03C01A5241430B8B4201D34B033D
:10477000C01A5241030B8B4201D30B03C01A5241A2
:10478000C30A8B4201D3CB02C01A5241830A8B4227
:1047900001D38B02C01A5241430A8B4201D34B0210
:1047A000C01A5241030A8B4201D30B02C01A524174
:1047B000CDD2C3098B4201D3CB01C01A5241830928
:1047C0008B4201D38B01C01A524143098B4201D362
:1047D0004B01C01A524103098B4201D30B01C01A8D
:1047E0005241C3088B4201D3CB00C01A5241830807
:1047F0008B4201D38B00C01A524143088B4201D334
:104800004B00C01A5241411A00D201465241104693
:104810007047FFE701B5002000F0F0F802BDC04688
:104820000029F7D076E7704703460B437FD4002278
:1048300043088B4274D303098B425FD3030A8B4234
:1048400044D3030B8B4228D3030C8B420DD3FF229E
:10485000090212BA030C8B4202D31212090265D06C
:10486000030B8B4219D300E0090AC30B8B4201D31F
:10487000CB03C01A5241830B8B4201D38B03C01A66
:104880005241430B8B4201D34B03C01A5241030BDD
:104890008B4201D30B03C01A5241C30A8B4201D38E
:1048A000CB02C01A5241830A8B4201D38B02C01A39
:1048B0005241430A8B4201D34B02C01A5241030AB0
:1048C0008B4201D30B02C01A5241CDD2C3098B4295
:1048D00001D3CB01C01A524183098B4201D38B0112
:1048E000C01A524143098B4201D34B01C01A5241B5
:1048F00003098B4201D30B01C01A5241C3088B42FA
:1049000001D3CB00C01A524183088B4201D38B00E4
:10491000C01A524143088B4201D34B00C01A524186
:10492000411A00D201465241104670475DE0CA0F5D
:1049300000D04942031000D34042534000229C461D
:1049400003098B422DD3030A8B4212D3FC22890127
:1049500012BA030A8B420CD3890192118B4208D3FD
:10496000890192118B4204D389013AD0921100E05F
:104970008909C3098B4201D3CB01C01A5241830973
:104980008B4201D38B01C01A524143098B4201D3A0
:104990004B01C01A524103098B4201D30B01C01ACB
:1049A0005241C3088B4201D3CB00C01A5241830845
:1049B0008B4201D38B00C01A5241D9D243088B429B
:1049C00001D34B00C01A5241411A00D2014663463E
:1049D00052415B10104601D34042002B00D54942A2
:1049E000704763465B1000D3404201B5002000F0E1
:1049F00005F802BD0029F8D016E770477047C04699
:104A0000F0B54F464646C0B41604360C99463300FE
:104A100005042C0C070C150C63437E436F43654360
:104A20001C0CAD1964199C46A64203D980235B0275
:104A3000984647446346250CEF191D044B464A43EC
:104A400043432D0C240464199918C91920000CBC87
:104A500090469946F0BDC046F8B556465F464D466D
:104A60004446F0B40F00FD0FAA4609037C002E0057
:104A70005F00450F490A7F0D2943C5001803BC4656
:104A8000400A570F640DDB0F3843D2009A4500D11E
:104A9000AAE06646A61B002E00DCFFE06346002B62
:104AA00039D10300134300D0D9E06B0709D00F239D
:104AB0002B40042B05D02B1DAB42AD416D42491953
:104AC0001D000B0200D482E0CA4B01349C4200D18D
:104AD000FEE00A005646C84BED081A405007640530
:104AE00052020543120B640D002112030B0D1B052E
:104AF0006405120B1A436308C04CF60714401C43AC
:104B0000640064083443280021003CBC9046994668
:104B1000A246AB46F8BDB74B9C42C6D080231B04CF
:104B20001843382E00DDEBE01F2E00DD1EE12023B0
:104B30009B1B9C4603006746BB40984613004746B4
:104B4000F3403B436746BA40571EBA411343020045
:104B5000F240EB1A9D42B6411D008A1A7642911B23
:104B60000B0231D54A02560A002E00D1B4E03000C3
:104B700001F0F0FB0300083B1F2B00DDB5E0202215
:104B80002900D21AD1409E400A009D4032439C42E7
:104B900000DDB1E01C1B631C1F2B00DDD5E02021D4
:104BA00014002800C91A8C40D8408D400443DA40D4
:104BB000681E854111002543002476E741463143B4
:104BC00000D134E2310045466B0700D06FE756460E
:104BD0004807ED08C9080543864B9C4235D00A03B7
:104BE0006405120B640D7FE76346E31A9B46002BB6
:104BF00000DC8BE06746002F3CD07E4FBC4200D1EA
:104C000053E780273F0438435B46382B00DCF7E04E
:104C10000243501E82410020D2B253194218AB42C7
:104C200089411D00494289180B02CDD5714B0134D1
:104C30009C4200D13DE101206F4A6B080A402840A8
:104C40001843D507054351082FE72B000B4300D12C
:104C5000CBE180231B030B431A03120B44E7013EF5
:104C6000002E6DD1AE1AB5429B41091A5B42C91A9A
:104C7000350075E70700174300D116E701235B42B3
:104C80009C46E3445B46002B00D0E0E0AA18AA4211
:104C90009B4109185B4259181500C5E7002E75D1D4
:104CA000661C7605760D012E00DCF3E0AE1AB046E8
:104CB0004545BF410E1A7F42F61B370200D48FE0F4
:104CC000551BAA42B641411A76428E1B9A464BE7C3
:104CD00056460022002507E7280001F03BFB203064
:104CE0000300083B1F2B00DC49E72A0028388240DC
:104CF00000259C4200DC4DE73F49E41A1140D4E610
:104D00000243501E8241D3B2002222E7002B00D082
:104D1000F3E0631C9C465B055B0D012B00DC9FE010
:104D2000344B9C4500D1C3E0AA180918AA4280411F
:104D300040424118CD075208154349086446B4E67D
:104D40002C4B9C4200D0ECE6AFE611001F3CE1404A
:104D50000C00202B00D17FE04021CB1A9A40154354
:104D60006A1E95410021254300242DE733000700EA
:104D7000203BDF403B00202E70D04027BE1BB040C0
:104D80000243501E824113430022E2E6002C4FD022
:104D9000184CA44500D1ABE0802424047642214382
:104DA000382E00DDDFE01F2E00DD43E12027BC1B95
:104DB000A1460C004F46BC40A0462C004746F4409C
:104DC0003C434F46BD406F1EBD41F1402C43151B77
:104DD000AA429241411A5242891A64469A46BFE653
:104DE00041464546314300D0BEE60026002400255A
:104DF000F2E6C046FF070000FFFF7FFFFFFF0F80C6
:104E00001F2B59DC2027FF1ABC46070063469F4032
:104E10005B46B9461700DF40B8464F4643461F433E
:104E200063469A40531E9A415B463A43D840F4E6A3
:104E30000C002C435CD0F643002E55D1551BAA42E2
:104E4000A441411A6442091B9A46644688E6964F7B
:104E5000BC4200D0D8E628E6002280E700208FE799
:104E60000B002B43002C00D0C2E0002B00D101E14D
:104E70000300134300D118E6AB18AB42B641091842
:104E8000764271180A0200D409E1884A1D001140D7
:104E900064460AE6002C5BD10E002E4300D08AE067
:104EA0000100114300D1C2E0010015009A46FCE563
:104EB0006446002100258FE620235B429C46DC44AB
:104EC00063460700DF405B46BC46202B00D1ACE0C8
:104ED00040235F46DB1B98400243501E82416346DD
:104EE00013431A00002098E66F4CA44500D057E702
:104EF0000100150064469A46D7E5002C39D10C0014
:104F00002C436ED0DB43002B1AD0674CA44568D0ED
:104F1000382B00DDA4E01F2B00DDAEE020240F00C5
:104F2000E41AA740B9462F00DF40B846A3464F46D3
:104F3000444627435C46A5406C1EA541D9403D43ED
:104F4000AD1895429B4109185B42591864466BE6BF
:104F50000C002C4315D1010011437BD0010015003A
:104F60009A46514CA1E50D43691E8D410021ECB2DA
:104F70002DE74D4CA44534D0802424045B422143CA
:104F8000C6E7040014434ED0ED084C072C4380259F
:104F9000C9082D03294208D0C6082E4205D1D208DF
:104FA000410711430C009A463100620FC900E50029
:104FB00011433D4C79E50600164300D175E5AE1A64
:104FC000B0464545BF410E1A7F42F61B370200D45A
:104FD000F4E5551BAA42B641411A7642891B9A460E
:104FE00063E50100150064465FE5002200257BE5CE
:104FF000002B3BD00300134315D0ED084B072B4388
:105000008025C9082D03294207D0C4082C4204D1A9
:1050100041070B002100D2081343C9005A0F114366
:10502000DD00214C41E5204C3FE5002054E70026FF
:105030000025D1E534000F00203CE7403C00202E45
:105040002BD04027BE1BB1400D43691E8D4100216E
:105050002C43BCE6802100260903134C0025BBE548
:105060000D43691E8D410021EDB269E70100150075
:105070000D4C1AE50100150017E51C000F00203C3F
:10508000E7403C00202B0CD04027FB1A99400D43F1
:10509000691E8D410021254352E70021D4E71D0000
:1050A00092E50021F3E7C046FF070000FFFF7FFF06
:1050B000F0B556464D4644465F46F0B41D000E031B
:1050C0004C00CB0F87B0070092468146360B640D2B
:1050D00098466AD06D4B9C4235D08022430F120413
:1050E0001343F6001E43C3009946694B00279C46B4
:1050F0000023644402932B0368001B0BED0F514601
:105100009B46400D009500D178E0604B98426CD0F2
:105110005B46DA004B0F802109040B4313439B4687
:105120005346D9005A4B9C46002360444246201AFD
:105130006A40924601901F430F2F00D9B0E05548B6
:10514000BF00C0598746374300D088E00023994606
:105150000233082700260293CDE74346B34649466B
:105160000093029B009A9246022B00D0BFE10021DF
:1051700053460122002689461A40444B002136033B
:105180000C0D2405360B2643434C1B0526401E43BD
:105190007600D207760816434846310007B03CBC7B
:1051A00090469946A246AB46F0BD330003434FD02C
:1051B000002E00D1BCE1300001F0CCF803000B3B25
:1051C0001C2B00DDADE11D220100D31A08393A0085
:1051D0008F408E40DA40B9461643304B00279C463C
:1051E000002360444442029385E753465A461343E2
:1051F0002CD1002300219B46023397E70B4320D09C
:105200005B46002B00D19EE1584601F0A3F8030055
:105210000B3B1C2B00DD8FE102005946083A914000
:105220008B461D21CB1A5146D9400B0059460B43E2
:1052300051469B469140194B9C4660444042002396
:1052400074E7002300219B4601336FE703236DE7DA
:105250000023994601330427002602934BE70323DA
:105260000C27029347E70122D51A382D00DCB0E164
:1052700053461A4000210023002689467EE700237A
:105280008026994600223603004B77E7FF0700008F
:1052900001FCFFFF9C6D0000FFFF0F80F303000087
:1052A0005E4500D972E100D16DE1019B4D46013BA5
:1052B00001930023340002935B461E020B0E1E4333
:1052C0000B020393330C994633041B0C4946200010
:1052D0000093FFF71FFA009B37004343060049463F
:1052E00020009846FFF79CFA2C0C09040C43A045BB
:1052F00009D9E419731EA74200D95CE1A04500D882
:1053000059E1023EE4194346E41A49462000FFF7FA
:1053100001FA0300009A80465343494620009B4609
:10532000FFF77EFA2A040904120C0A4393450DD9AB
:105330004346D219013B974200D93AE1934500D840
:1053400037E102235B429C46D219E0445B46D21A05
:105350004346360433439B460399180C0B0C1D003F
:10536000059309045B46090C0C001B041B0C444309
:10537000049159436B4368431B190D0CEB189C4275
:1053800003D980246402A44660441C0C09041B0455
:10539000090C20185D18824200D2DEE000D1D7E06F
:1053A000161A029B9C465D1BAC459B415B42F61A5C
:1053B000B74200D106E149463000FFF7ABF9009B48
:1053C00004004343494630009846FFF729FA2E0C63
:1053D00009040E43B04509D9F619631EB74200D936
:1053E000F3E0B04500D8F0E0023CF6194346F31A6A
:1053F000494618000293FFF78DF9009B06004343CE
:10540000494602989846FFF70BFA2D0409042D0C23
:105410000D43A84509D9ED19731EAF4200D9D6E056
:10542000A84500D8D3E0023EED19240421004346EC
:105430003143049E059A3000ED1A0B040C0C1B0C32
:1054400058436643534354439A19030C9B189E4296
:1054500003D980225202944664441A0C00041B04AF
:10546000000C14191B18A54250D34DD00123194329
:10547000964A019B94466344002B00DCF3E64A07FE
:1054800009D00F220A40042A05D00A1D8A42894108
:1054900049428B4411005A46D20108D55A468C4BDA
:1054A0001A4093468022D2009446019B6344894A65
:1054B000934200DD5BE65A46C9085007084356028E
:1054C000514601225B058146360B5B0D0A4055E6CD
:1054D00080231B031E4211D05A461A420ED15E464B
:1054E0001E433603360B2A0089467B4B46E6032BC8
:1054F00000D1E1E0012BBBD11A40BBE61E433603CD
:10550000360B4246744B39E6002BB1D07D194A1E4A
:10551000AF4252D91100A542A8D1039A9A42A5D10F
:10552000A6E703003E00283B9E400023994654E630
:1055300000F010FF203041E603005246283B9A401D
:105540000021934677E6504600F004FF20305EE6E7
:10555000029B0026AB4200D323E7039E0299B44688
:1055600061448846B045B6415B467642F619B218AA
:10557000013B0291974213D290424FD800D18EE066
:10558000161A9B460DE7894500D28EE674084B46F5
:10559000F60735005B081D434B46DB0702938BE69D
:1055A0009742EDD10399029CA142E5D93E1A9B4650
:1055B000F7E69846CAE61E00A5E6AC423ED874D08F
:1055C000110053E70121494252E71C000EE71E007B
:1055D0002BE71F2D3CDC20230A0058465B1B98401C
:1055E000EA4099400243481E81415E461143EE4025
:1055F0004B0709D00F230B40042B05D00B00191DBE
:1056000099429B415B42F61833023CD55346012236
:1056100000211A40002601238946AFE502235B42A0
:105620009C46039CE344A446029B63449846A045E1
:10563000B6417642F6190293B218B1E603988A1E73
:1056400041008142B6417642F619AD19039161E7F6
:105650001F225242D31A5A46DA401300202D29D075
:1056600040225846551BA8400143481E814107204F
:105670000B4318400026002809D00F2200261A40AC
:105680001900042ABBD10B0070077602360BDB0829
:1056900003439946012253461A4000236EE50299BE
:1056A0008D42BBD89B4600267BE603989842C5D323
:1056B000110032E70020D7E780265B4636031E4301
:1056C0003603360B009A8946034B57E5FF0300006B
:1056D000FFFFFFFEFE070000FF070000F0B55F467A
:1056E00056464D464446F0B40D0399464E002B0BEA
:1056F00087B00700924680469B46760DCC0F002E61
:1057000069D06D4B9E4235D05B468022DD0012048D
:10571000430F13432B439B46C3009846674B002718
:105720009C460023664401934A4615035000D20F5D
:1057300053462D0B400D914600D176E05E4A9042D3
:105740006CD080225B0F120413435C4AED00944638
:105750001D4353460022DB00604449463618701C46
:105760006140029017430F2F00D9AFE05448BF00AB
:10577000C759BF465B461F4300D088E000239B46C5
:105780009846023308270193CEE74946022A6AD099
:10579000032A00D109E2012A00D0BBE11140002216
:1057A000002300259046CCB200212D030A0D1205DE
:1057B0002D0B1543434A1B0515401D436D00E4079F
:1057C0006D0825434046290007B03CBC90469946E9
:1057D000A246AB46F0BD034352D05B46002B00D13E
:1057E0008AE1584600F0B6FD03000B3B1C2B00DDA0
:1057F0007BE11D22D31A3A0001005D46DA400839E8
:105800008D4013008F402B439B46B8462E4B0027FC
:105810009C46002360444642019385E752462A4352
:105820002CD100250023022297E752462A4321D09B
:10583000002D00D154E1280000F08CFD03000B3B4B
:105840001C2B00DD46E11D21CB1A51460200D94038
:105850005346083A954093400D431B4A9446604492
:105860004042002279E7012400220C40124B00251F
:10587000904699E70025002301226EE703226CE79A
:1058800000239B4698460133042701934CE70323EA
:105890000C27019348E700238025984600242D0318
:1058A000054B81E75D464346019A6FE75D464346F7
:1058B0002100019A6AE7C046FF07000001FCFFFFD4
:1058C000DC6D0000FFFF0F80F30300004246120C66
:1058D00091461A0C9446424617044A461B041B0C78
:1058E0005A43604690464A4642431000039262463D
:1058F0001C003F0C7A437C4342440192220C9246A6
:10590000019A5244904506D9824680204002804642
:10591000C24450460390100C049048462404240CC2
:105920001204121905922A0C2D042D0C68432C0028
:10593000824648467C4350438146200C804657436C
:1059400057444744BA4503D9802040028046C144A9
:10595000380C3F04B84648442404240C01900498B1
:10596000A044404404905846000C81465846040424
:10597000200C8246070048465F434C46434360463E
:1059800060436446834650464443380C8446E418DA
:105990006444A34203D980235B029C46E344484607
:1059A0003F04230C3F0C2404E419574668436F431B
:1059B00084464D46504655434243380C8146624426
:1059C0004A445B44944503D98020400284466544A0
:1059D00003983F04834604983F0C8446E344C34540
:1059E00080414042824610048446019867448446C0
:1059F0006744A344BC46A345A4419946D4446442A9
:105A00008742BF41D4458041E144A04699459B412E
:105A10007F424042C8440743120CBA18A045A44133
:105A20005F423B0064422343D71843467D19DB0D98
:105A30006D021D435B465A02059B1A43531E9A4151
:105A40005B46DB0D1A4343465B021343EA0107D56D
:105A500001225C0813402343EA07029E13436D08AA
:105A6000574AB218002A4BDD580709D00F201840BA
:105A7000042805D0181D98429B415B42ED18030095
:105A8000E80104D54F4A15408022D200B2184E4892
:105A9000824200DDE7E60124DB08680718436D0257
:105AA000530580462D0B5B0D0C407DE68022594648
:105AB0001203114208D0154206D115432D03984612
:105AC0002D0B4C46414B6FE65D4615432D032D0BC8
:105AD0003E4B69E603005546283B9D400023BCE64B
